{
	"addsmart.sol": {
		"solidityadd": {
			"abi": [
				{
					"inputs": [],
					"name": "getResult",
					"outputs": [
						{
							"internalType": "uint256",
							"name": "",
							"type": "uint256"
						}
					],
					"stateMutability": "pure",
					"type": "function"
				},
				{
					"inputs": [],
					"name": "isEven",
					"outputs": [
						{
							"internalType": "bool",
							"name": "",
							"type": "bool"
						}
					],
					"stateMutability": "payable",
					"type": "function"
				}
			],
			"devdoc": {
				"kind": "dev",
				"methods": {},
				"version": 1
			},
			"evm": {
				"assembly": "    /* \"addsmart.sol\":58:378  contract solidityadd {... */\n  mstore(0x40, 0x80)\n    /* \"addsmart.sol\":232:234  11 */\n  0x0b\n    /* \"addsmart.sol\":219:234  int256 num = 11 */\n  0x00\n  sstore\n    /* \"addsmart.sol\":58:378  contract solidityadd {... */\n  callvalue\n  dup1\n  iszero\n  tag_1\n  jumpi\n  0x00\n  dup1\n  revert\ntag_1:\n  pop\n  dataSize(sub_0)\n  dup1\n  dataOffset(sub_0)\n  0x00\n  codecopy\n  0x00\n  return\nstop\n\nsub_0: assembly {\n        /* \"addsmart.sol\":58:378  contract solidityadd {... */\n      mstore(0x40, 0x80)\n      jumpi(tag_1, lt(calldatasize, 0x04))\n      shr(0xe0, calldataload(0x00))\n      dup1\n      0x36b166ba\n      eq\n      tag_2\n      jumpi\n      dup1\n      0xde292789\n      eq\n      tag_3\n      jumpi\n    tag_1:\n      0x00\n      dup1\n      revert\n        /* \"addsmart.sol\":256:376  function isEven() public payable returns (bool) {... */\n    tag_2:\n      tag_4\n      tag_5\n      jump\t// in\n    tag_4:\n      mload(0x40)\n      tag_6\n      swap2\n      swap1\n      tag_7\n      jump\t// in\n    tag_6:\n      mload(0x40)\n      dup1\n      swap2\n      sub\n      swap1\n      return\n        /* \"addsmart.sol\":85:213  function getResult() public pure returns (uint256) {... */\n    tag_3:\n      callvalue\n      dup1\n      iszero\n      tag_8\n      jumpi\n      0x00\n      dup1\n      revert\n    tag_8:\n      pop\n      tag_9\n      tag_10\n      jump\t// in\n    tag_9:\n      mload(0x40)\n      tag_11\n      swap2\n      swap1\n      tag_12\n      jump\t// in\n    tag_11:\n      mload(0x40)\n      dup1\n      swap2\n      sub\n      swap1\n      return\n        /* \"addsmart.sol\":256:376  function isEven() public payable returns (bool) {... */\n    tag_5:\n        /* \"addsmart.sol\":298:302  bool */\n      0x00\n        /* \"addsmart.sol\":332:333  0 */\n      dup1\n        /* \"addsmart.sol\":327:328  2 */\n      0x02\n        /* \"addsmart.sol\":321:324  num */\n      sload(0x00)\n        /* \"addsmart.sol\":321:328  num % 2 */\n      tag_14\n      swap2\n      swap1\n      tag_15\n      jump\t// in\n    tag_14:\n        /* \"addsmart.sol\":321:333  num % 2 == 0 */\n      eq\n        /* \"addsmart.sol\":321:348  num % 2 == 0 ? true : false */\n      tag_16\n      jumpi\n        /* \"addsmart.sol\":343:348  false */\n      0x00\n        /* \"addsmart.sol\":321:348  num % 2 == 0 ? true : false */\n      jump(tag_17)\n    tag_16:\n        /* \"addsmart.sol\":336:340  true */\n      0x01\n        /* \"addsmart.sol\":321:348  num % 2 == 0 ? true : false */\n    tag_17:\n        /* \"addsmart.sol\":314:318  even */\n      0x01\n      0x00\n        /* \"addsmart.sol\":314:348  even = num % 2 == 0 ? true : false */\n      0x0100\n      exp\n      dup2\n      sload\n      dup2\n      0xff\n      mul\n      not\n      and\n      swap1\n      dup4\n      iszero\n      iszero\n      mul\n      or\n      swap1\n      sstore\n      pop\n        /* \"addsmart.sol\":365:369  even */\n      0x01\n      0x00\n      swap1\n      sload\n      swap1\n      0x0100\n      exp\n      swap1\n      div\n      0xff\n      and\n        /* \"addsmart.sol\":358:369  return even */\n      swap1\n      pop\n        /* \"addsmart.sol\":256:376  function isEven() public payable returns (bool) {... */\n      swap1\n      jump\t// out\n        /* \"addsmart.sol\":85:213  function getResult() public pure returns (uint256) {... */\n    tag_10:\n        /* \"addsmart.sol\":127:134  uint256 */\n      0x00\n        /* \"addsmart.sol\":146:155  uint256 a */\n      dup1\n        /* \"addsmart.sol\":158:160  10 */\n      0x0a\n        /* \"addsmart.sol\":146:160  uint256 a = 10 */\n      swap1\n      pop\n        /* \"addsmart.sol\":170:179  uint256 b */\n      0x00\n        /* \"addsmart.sol\":182:184  50 */\n      0x32\n        /* \"addsmart.sol\":170:184  uint256 b = 50 */\n      swap1\n      pop\n        /* \"addsmart.sol\":205:206  b */\n      dup1\n        /* \"addsmart.sol\":201:202  a */\n      dup3\n        /* \"addsmart.sol\":201:206  a + b */\n      tag_19\n      swap2\n      swap1\n      tag_20\n      jump\t// in\n    tag_19:\n        /* \"addsmart.sol\":194:206  return a + b */\n      swap3\n      pop\n      pop\n      pop\n        /* \"addsmart.sol\":85:213  function getResult() public pure returns (uint256) {... */\n      swap1\n      jump\t// out\n        /* \"#utility.yul\":7:97   */\n    tag_21:\n        /* \"#utility.yul\":41:48   */\n      0x00\n        /* \"#utility.yul\":84:89   */\n      dup2\n        /* \"#utility.yul\":77:90   */\n      iszero\n        /* \"#utility.yul\":70:91   */\n      iszero\n        /* \"#utility.yul\":59:91   */\n      swap1\n      pop\n        /* \"#utility.yul\":7:97   */\n      swap2\n      swap1\n      pop\n      jump\t// out\n        /* \"#utility.yul\":103:212   */\n    tag_22:\n        /* \"#utility.yul\":184:205   */\n      tag_31\n        /* \"#utility.yul\":199:204   */\n      dup2\n        /* \"#utility.yul\":184:205   */\n      tag_21\n      jump\t// in\n    tag_31:\n        /* \"#utility.yul\":179:182   */\n      dup3\n        /* \"#utility.yul\":172:206   */\n      mstore\n        /* \"#utility.yul\":103:212   */\n      pop\n      pop\n      jump\t// out\n        /* \"#utility.yul\":218:428   */\n    tag_7:\n        /* \"#utility.yul\":305:309   */\n      0x00\n        /* \"#utility.yul\":343:345   */\n      0x20\n        /* \"#utility.yul\":332:341   */\n      dup3\n        /* \"#utility.yul\":328:346   */\n      add\n        /* \"#utility.yul\":320:346   */\n      swap1\n      pop\n        /* \"#utility.yul\":356:421   */\n      tag_33\n        /* \"#utility.yul\":418:419   */\n      0x00\n        /* \"#utility.yul\":407:416   */\n      dup4\n        /* \"#utility.yul\":403:420   */\n      add\n        /* \"#utility.yul\":394:400   */\n      dup5\n        /* \"#utility.yul\":356:421   */\n      tag_22\n      jump\t// in\n    tag_33:\n        /* \"#utility.yul\":218:428   */\n      swap3\n      swap2\n      pop\n      pop\n      jump\t// out\n        /* \"#utility.yul\":434:511   */\n    tag_23:\n        /* \"#utility.yul\":471:478   */\n      0x00\n        /* \"#utility.yul\":500:505   */\n      dup2\n        /* \"#utility.yul\":489:505   */\n      swap1\n      pop\n        /* \"#utility.yul\":434:511   */\n      swap2\n      swap1\n      pop\n      jump\t// out\n        /* \"#utility.yul\":517:635   */\n    tag_24:\n        /* \"#utility.yul\":604:628   */\n      tag_36\n        /* \"#utility.yul\":622:627   */\n      dup2\n        /* \"#utility.yul\":604:628   */\n      tag_23\n      jump\t// in\n    tag_36:\n        /* \"#utility.yul\":599:602   */\n      dup3\n        /* \"#utility.yul\":592:629   */\n      mstore\n        /* \"#utility.yul\":517:635   */\n      pop\n      pop\n      jump\t// out\n        /* \"#utility.yul\":641:863   */\n    tag_12:\n        /* \"#utility.yul\":734:738   */\n      0x00\n        /* \"#utility.yul\":772:774   */\n      0x20\n        /* \"#utility.yul\":761:770   */\n      dup3\n        /* \"#utility.yul\":757:775   */\n      add\n        /* \"#utility.yul\":749:775   */\n      swap1\n      pop\n        /* \"#utility.yul\":785:856   */\n      tag_38\n        /* \"#utility.yul\":853:854   */\n      0x00\n        /* \"#utility.yul\":842:851   */\n      dup4\n        /* \"#utility.yul\":838:855   */\n      add\n        /* \"#utility.yul\":829:835   */\n      dup5\n        /* \"#utility.yul\":785:856   */\n      tag_24\n      jump\t// in\n    tag_38:\n        /* \"#utility.yul\":641:863   */\n      swap3\n      swap2\n      pop\n      pop\n      jump\t// out\n        /* \"#utility.yul\":869:945   */\n    tag_25:\n        /* \"#utility.yul\":905:912   */\n      0x00\n        /* \"#utility.yul\":934:939   */\n      dup2\n        /* \"#utility.yul\":923:939   */\n      swap1\n      pop\n        /* \"#utility.yul\":869:945   */\n      swap2\n      swap1\n      pop\n      jump\t// out\n        /* \"#utility.yul\":951:1131   */\n    tag_26:\n        /* \"#utility.yul\":999:1076   */\n      0x4e487b7100000000000000000000000000000000000000000000000000000000\n        /* \"#utility.yul\":996:997   */\n      0x00\n        /* \"#utility.yul\":989:1077   */\n      mstore\n        /* \"#utility.yul\":1096:1100   */\n      0x12\n        /* \"#utility.yul\":1093:1094   */\n      0x04\n        /* \"#utility.yul\":1086:1101   */\n      mstore\n        /* \"#utility.yul\":1120:1124   */\n      0x24\n        /* \"#utility.yul\":1117:1118   */\n      0x00\n        /* \"#utility.yul\":1110:1125   */\n      revert\n        /* \"#utility.yul\":1137:1311   */\n    tag_15:\n        /* \"#utility.yul\":1168:1169   */\n      0x00\n        /* \"#utility.yul\":1185:1204   */\n      tag_42\n        /* \"#utility.yul\":1202:1203   */\n      dup3\n        /* \"#utility.yul\":1185:1204   */\n      tag_25\n      jump\t// in\n    tag_42:\n        /* \"#utility.yul\":1180:1204   */\n      swap2\n      pop\n        /* \"#utility.yul\":1218:1237   */\n      tag_43\n        /* \"#utility.yul\":1235:1236   */\n      dup4\n        /* \"#utility.yul\":1218:1237   */\n      tag_25\n      jump\t// in\n    tag_43:\n        /* \"#utility.yul\":1213:1237   */\n      swap3\n      pop\n        /* \"#utility.yul\":1256:1257   */\n      dup3\n        /* \"#utility.yul\":1246:1281   */\n      tag_44\n      jumpi\n        /* \"#utility.yul\":1261:1279   */\n      tag_45\n      tag_26\n      jump\t// in\n    tag_45:\n        /* \"#utility.yul\":1246:1281   */\n    tag_44:\n        /* \"#utility.yul\":1303:1304   */\n      dup3\n        /* \"#utility.yul\":1300:1301   */\n      dup3\n        /* \"#utility.yul\":1295:1305   */\n      smod\n        /* \"#utility.yul\":1290:1305   */\n      swap1\n      pop\n        /* \"#utility.yul\":1137:1311   */\n      swap3\n      swap2\n      pop\n      pop\n      jump\t// out\n        /* \"#utility.yul\":1317:1497   */\n    tag_27:\n        /* \"#utility.yul\":1365:1442   */\n      0x4e487b7100000000000000000000000000000000000000000000000000000000\n        /* \"#utility.yul\":1362:1363   */\n      0x00\n        /* \"#utility.yul\":1355:1443   */\n      mstore\n        /* \"#utility.yul\":1462:1466   */\n      0x11\n        /* \"#utility.yul\":1459:1460   */\n      0x04\n        /* \"#utility.yul\":1452:1467   */\n      mstore\n        /* \"#utility.yul\":1486:1490   */\n      0x24\n        /* \"#utility.yul\":1483:1484   */\n      0x00\n        /* \"#utility.yul\":1476:1491   */\n      revert\n        /* \"#utility.yul\":1503:1694   */\n    tag_20:\n        /* \"#utility.yul\":1543:1546   */\n      0x00\n        /* \"#utility.yul\":1562:1582   */\n      tag_48\n        /* \"#utility.yul\":1580:1581   */\n      dup3\n        /* \"#utility.yul\":1562:1582   */\n      tag_23\n      jump\t// in\n    tag_48:\n        /* \"#utility.yul\":1557:1582   */\n      swap2\n      pop\n        /* \"#utility.yul\":1596:1616   */\n      tag_49\n        /* \"#utility.yul\":1614:1615   */\n      dup4\n        /* \"#utility.yul\":1596:1616   */\n      tag_23\n      jump\t// in\n    tag_49:\n        /* \"#utility.yul\":1591:1616   */\n      swap3\n      pop\n        /* \"#utility.yul\":1639:1640   */\n      dup3\n        /* \"#utility.yul\":1636:1637   */\n      dup3\n        /* \"#utility.yul\":1632:1641   */\n      add\n        /* \"#utility.yul\":1625:1641   */\n      swap1\n      pop\n        /* \"#utility.yul\":1660:1663   */\n      dup1\n        /* \"#utility.yul\":1657:1658   */\n      dup3\n        /* \"#utility.yul\":1654:1664   */\n      gt\n        /* \"#utility.yul\":1651:1687   */\n      iszero\n      tag_50\n      jumpi\n        /* \"#utility.yul\":1667:1685   */\n      tag_51\n      tag_27\n      jump\t// in\n    tag_51:\n        /* \"#utility.yul\":1651:1687   */\n    tag_50:\n        /* \"#utility.yul\":1503:1694   */\n      swap3\n      swap2\n      pop\n      pop\n      jump\t// out\n\n    auxdata: 0xa264697066735822122058ed38775b0b3943cb76e4b210ff3fff275ab28cd00de9d4be183d2b0c6dcfee64736f6c63430008120033\n}\n",
				"bytecode": {
					"linkReferences": {},
					"object": "6080604052600b60005534801561001557600080fd5b50610253806100256000396000f3fe6080604052600436106100295760003560e01c806336b166ba1461002e578063de2927891461004c575b600080fd5b610036610077565b6040516100439190610101565b60405180910390f35b34801561005857600080fd5b506100616100c6565b60405161006e9190610135565b60405180910390f35b60008060026000546100899190610189565b14610095576000610098565b60015b600160006101000a81548160ff021916908315150217905550600160009054906101000a900460ff16905090565b600080600a905060006032905080826100df91906101e9565b9250505090565b60008115159050919050565b6100fb816100e6565b82525050565b600060208201905061011660008301846100f2565b92915050565b6000819050919050565b61012f8161011c565b82525050565b600060208201905061014a6000830184610126565b92915050565b6000819050919050565b7f4e487b7100000000000000000000000000000000000000000000000000000000600052601260045260246000fd5b600061019482610150565b915061019f83610150565b9250826101af576101ae61015a565b5b828207905092915050565b7f4e487b7100000000000000000000000000000000000000000000000000000000600052601160045260246000fd5b60006101f48261011c565b91506101ff8361011c565b9250828201905080821115610217576102166101ba565b5b9291505056fea264697066735822122058ed38775b0b3943cb76e4b210ff3fff275ab28cd00de9d4be183d2b0c6dcfee64736f6c63430008120033",
					"opcodes": "PUSH1 0x80 PUSH1 0x40 MSTORE PUSH1 0xB PUSH1 0x0 SSTORE CALLVALUE DUP1 ISZERO PUSH2 0x15 JUMPI PUSH1 0x0 DUP1 REVERT JUMPDEST POP PUSH2 0x253 DUP1 PUSH2 0x25 PUSH1 0x0 CODECOPY PUSH1 0x0 RETURN INVALID PUSH1 0x80 PUSH1 0x40 MSTORE PUSH1 0x4 CALLDATASIZE LT PUSH2 0x29 JUMPI PUSH1 0x0 CALLDATALOAD PUSH1 0xE0 SHR DUP1 PUSH4 0x36B166BA EQ PUSH2 0x2E JUMPI DUP1 PUSH4 0xDE292789 EQ PUSH2 0x4C JUMPI JUMPDEST PUSH1 0x0 DUP1 REVERT JUMPDEST PUSH2 0x36 PUSH2 0x77 JUMP JUMPDEST PUSH1 0x40 MLOAD PUSH2 0x43 SWAP2 SWAP1 PUSH2 0x101 JUMP JUMPDEST PUSH1 0x40 MLOAD DUP1 SWAP2 SUB SWAP1 RETURN JUMPDEST CALLVALUE DUP1 ISZERO PUSH2 0x58 JUMPI PUSH1 0x0 DUP1 REVERT JUMPDEST POP PUSH2 0x61 PUSH2 0xC6 JUMP JUMPDEST PUSH1 0x40 MLOAD PUSH2 0x6E SWAP2 SWAP1 PUSH2 0x135 JUMP JUMPDEST PUSH1 0x40 MLOAD DUP1 SWAP2 SUB SWAP1 RETURN JUMPDEST PUSH1 0x0 DUP1 PUSH1 0x2 PUSH1 0x0 SLOAD PUSH2 0x89 SWAP2 SWAP1 PUSH2 0x189 JUMP JUMPDEST EQ PUSH2 0x95 JUMPI PUSH1 0x0 PUSH2 0x98 JUMP JUMPDEST PUSH1 0x1 JUMPDEST PUSH1 0x1 PUSH1 0x0 PUSH2 0x100 EXP DUP2 SLOAD DUP2 PUSH1 0xFF MUL NOT AND SWAP1 DUP4 ISZERO ISZERO MUL OR SWAP1 SSTORE POP PUSH1 0x1 PUSH1 0x0 SWAP1 SLOAD SWAP1 PUSH2 0x100 EXP SWAP1 DIV PUSH1 0xFF AND SWAP1 POP SWAP1 JUMP JUMPDEST PUSH1 0x0 DUP1 PUSH1 0xA SWAP1 POP PUSH1 0x0 PUSH1 0x32 SWAP1 POP DUP1 DUP3 PUSH2 0xDF SWAP2 SWAP1 PUSH2 0x1E9 JUMP JUMPDEST SWAP3 POP POP POP SWAP1 JUMP JUMPDEST PUSH1 0x0 DUP2 ISZERO ISZERO SWAP1 POP SWAP2 SWAP1 POP JUMP JUMPDEST PUSH2 0xFB DUP2 PUSH2 0xE6 JUMP JUMPDEST DUP3 MSTORE POP POP JUMP JUMPDEST PUSH1 0x0 PUSH1 0x20 DUP3 ADD SWAP1 POP PUSH2 0x116 PUSH1 0x0 DUP4 ADD DUP5 PUSH2 0xF2 JUMP JUMPDEST SWAP3 SWAP2 POP POP JUMP JUMPDEST PUSH1 0x0 DUP2 SWAP1 POP SWAP2 SWAP1 POP JUMP JUMPDEST PUSH2 0x12F DUP2 PUSH2 0x11C JUMP JUMPDEST DUP3 MSTORE POP POP JUMP JUMPDEST PUSH1 0x0 PUSH1 0x20 DUP3 ADD SWAP1 POP PUSH2 0x14A PUSH1 0x0 DUP4 ADD DUP5 PUSH2 0x126 JUMP JUMPDEST SWAP3 SWAP2 POP POP JUMP JUMPDEST PUSH1 0x0 DUP2 SWAP1 POP SWAP2 SWAP1 POP JUMP JUMPDEST PUSH32 0x4E487B7100000000000000000000000000000000000000000000000000000000 PUSH1 0x0 MSTORE PUSH1 0x12 PUSH1 0x4 MSTORE PUSH1 0x24 PUSH1 0x0 REVERT JUMPDEST PUSH1 0x0 PUSH2 0x194 DUP3 PUSH2 0x150 JUMP JUMPDEST SWAP2 POP PUSH2 0x19F DUP4 PUSH2 0x150 JUMP JUMPDEST SWAP3 POP DUP3 PUSH2 0x1AF JUMPI PUSH2 0x1AE PUSH2 0x15A JUMP JUMPDEST JUMPDEST DUP3 DUP3 SMOD SWAP1 POP SWAP3 SWAP2 POP POP JUMP JUMPDEST PUSH32 0x4E487B7100000000000000000000000000000000000000000000000000000000 PUSH1 0x0 MSTORE PUSH1 0x11 PUSH1 0x4 MSTORE PUSH1 0x24 PUSH1 0x0 REVERT JUMPDEST PUSH1 0x0 PUSH2 0x1F4 DUP3 PUSH2 0x11C JUMP JUMPDEST SWAP2 POP PUSH2 0x1FF DUP4 PUSH2 0x11C JUMP JUMPDEST SWAP3 POP DUP3 DUP3 ADD SWAP1 POP DUP1 DUP3 GT ISZERO PUSH2 0x217 JUMPI PUSH2 0x216 PUSH2 0x1BA JUMP JUMPDEST JUMPDEST SWAP3 SWAP2 POP POP JUMP INVALID LOG2 PUSH5 0x6970667358 0x22 SLT KECCAK256 PC 0xED CODESIZE PUSH24 0x5B0B3943CB76E4B210FF3FFF275AB28CD00DE9D4BE183D2B 0xC PUSH14 0xCFEE64736F6C6343000812003300 "
				},
				"gasEstimates": {
					"creation": {
						"codeDepositCost": "119000",
						"executionCost": "22271",
						"totalCost": "141271"
					},
					"external": {
						"getResult()": "infinite",
						"isEven()": "infinite"
					}
				},
				"methodIdentifiers": {
					"getResult()": "de292789",
					"isEven()": "36b166ba"
				}
			},
			"storageLayout": {
				"storage": [
					{
						"astId": 22,
						"contract": "addsmart.sol:solidityadd",
						"label": "num",
						"offset": 0,
						"slot": "0",
						"type": "t_int256"
					},
					{
						"astId": 24,
						"contract": "addsmart.sol:solidityadd",
						"label": "even",
						"offset": 0,
						"slot": "1",
						"type": "t_bool"
					}
				],
				"types": {
					"t_bool": {
						"encoding": "inplace",
						"label": "bool",
						"numberOfBytes": "1"
					},
					"t_int256": {
						"encoding": "inplace",
						"label": "int256",
						"numberOfBytes": "32"
					}
				}
			},
			"userdoc": {
				"kind": "user",
				"methods": {},
				"version": 1
			}
		}
	}
}