{
	"practical9a.sol": {
		"SolidityTest": {
			"abi": [
				{
					"inputs": [],
					"name": "getResult",
					"outputs": [
						{
							"internalType": "string",
							"name": "",
							"type": "string"
						}
					],
					"stateMutability": "pure",
					"type": "function"
				}
			],
			"devdoc": {
				"kind": "dev",
				"methods": {},
				"version": 1
			},
			"evm": {
				"assembly": "    /* \"practical9a.sol\":169:854  contract SolidityTest {... */\n  mstore(0x40, 0x80)\n  callvalue\n  dup1\n  iszero\n  tag_1\n  jumpi\n  0x00\n  dup1\n  revert\ntag_1:\n  pop\n  dataSize(sub_0)\n  dup1\n  dataOffset(sub_0)\n  0x00\n  codecopy\n  0x00\n  return\nstop\n\nsub_0: assembly {\n        /* \"practical9a.sol\":169:854  contract SolidityTest {... */\n      mstore(0x40, 0x80)\n      callvalue\n      dup1\n      iszero\n      tag_1\n      jumpi\n      0x00\n      dup1\n      revert\n    tag_1:\n      pop\n      jumpi(tag_2, lt(calldatasize, 0x04))\n      shr(0xe0, calldataload(0x00))\n      dup1\n      0xde292789\n      eq\n      tag_3\n      jumpi\n    tag_2:\n      0x00\n      dup1\n      revert\n        /* \"practical9a.sol\":197:372  function getResult() public pure returns (string memory) {... */\n    tag_3:\n      tag_4\n      tag_5\n      jump\t// in\n    tag_4:\n      mload(0x40)\n      tag_6\n      swap2\n      swap1\n      tag_7\n      jump\t// in\n    tag_6:\n      mload(0x40)\n      dup1\n      swap2\n      sub\n      swap1\n      return\n    tag_5:\n        /* \"practical9a.sol\":239:252  string memory */\n      0x60\n        /* \"practical9a.sol\":264:273  uint256 a */\n      0x00\n        /* \"practical9a.sol\":276:278  10 */\n      0x0a\n        /* \"practical9a.sol\":264:278  uint256 a = 10 */\n      swap1\n      pop\n        /* \"practical9a.sol\":288:297  uint256 b */\n      0x00\n        /* \"practical9a.sol\":300:303  113 */\n      0x71\n        /* \"practical9a.sol\":288:303  uint256 b = 113 */\n      swap1\n      pop\n        /* \"practical9a.sol\":313:322  uint256 c */\n      0x00\n        /* \"practical9a.sol\":329:330  b */\n      dup2\n        /* \"practical9a.sol\":325:326  a */\n      dup4\n        /* \"practical9a.sol\":325:330  a + b */\n      tag_9\n      swap2\n      swap1\n      tag_10\n      jump\t// in\n    tag_9:\n        /* \"practical9a.sol\":313:330  uint256 c = a + b */\n      swap1\n      pop\n        /* \"practical9a.sol\":347:365  integerToString(c) */\n      tag_11\n        /* \"practical9a.sol\":363:364  c */\n      dup2\n        /* \"practical9a.sol\":347:362  integerToString */\n      tag_12\n        /* \"practical9a.sol\":347:365  integerToString(c) */\n      jump\t// in\n    tag_11:\n        /* \"practical9a.sol\":340:365  return integerToString(c) */\n      swap4\n      pop\n      pop\n      pop\n      pop\n        /* \"practical9a.sol\":197:372  function getResult() public pure returns (string memory) {... */\n      swap1\n      jump\t// out\n        /* \"practical9a.sol\":378:852  function integerToString(uint256 i) private pure returns (string memory) {... */\n    tag_12:\n        /* \"practical9a.sol\":436:449  string memory */\n      0x60\n        /* \"practical9a.sol\":470:471  0 */\n      0x00\n        /* \"practical9a.sol\":465:466  i */\n      dup3\n        /* \"practical9a.sol\":465:471  i == 0 */\n      sub\n        /* \"practical9a.sol\":461:483  if (i == 0) return \"0\" */\n      tag_14\n      jumpi\n        /* \"practical9a.sol\":473:483  return \"0\" */\n      mload(0x40)\n      dup1\n      0x40\n      add\n      0x40\n      mstore\n      dup1\n      0x01\n      dup2\n      mstore\n      0x20\n      add\n      0x3000000000000000000000000000000000000000000000000000000000000000\n      dup2\n      mstore\n      pop\n      swap1\n      pop\n      jump(tag_13)\n        /* \"practical9a.sol\":461:483  if (i == 0) return \"0\" */\n    tag_14:\n        /* \"practical9a.sol\":493:502  uint256 j */\n      0x00\n        /* \"practical9a.sol\":505:506  i */\n      dup3\n        /* \"practical9a.sol\":493:506  uint256 j = i */\n      swap1\n      pop\n        /* \"practical9a.sol\":516:526  int256 len */\n      0x00\n        /* \"practical9a.sol\":540:617  while (j != 0) {... */\n    tag_15:\n        /* \"practical9a.sol\":552:553  0 */\n      0x00\n        /* \"practical9a.sol\":547:548  j */\n      dup3\n        /* \"practical9a.sol\":547:553  j != 0 */\n      eq\n        /* \"practical9a.sol\":540:617  while (j != 0) {... */\n      tag_16\n      jumpi\n        /* \"practical9a.sol\":577:579  10 */\n      0x0a\n        /* \"practical9a.sol\":573:574  j */\n      dup3\n        /* \"practical9a.sol\":573:579  j / 10 */\n      tag_17\n      swap2\n      swap1\n      tag_18\n      jump\t// in\n    tag_17:\n        /* \"practical9a.sol\":569:579  j = j / 10 */\n      swap2\n      pop\n        /* \"practical9a.sol\":605:606  1 */\n      0x01\n        /* \"practical9a.sol\":599:602  len */\n      dup2\n        /* \"practical9a.sol\":599:606  len + 1 */\n      tag_19\n      swap2\n      swap1\n      tag_20\n      jump\t// in\n    tag_19:\n        /* \"practical9a.sol\":593:606  len = len + 1 */\n      swap1\n      pop\n        /* \"practical9a.sol\":540:617  while (j != 0) {... */\n      jump(tag_15)\n    tag_16:\n        /* \"practical9a.sol\":626:634  int256 k */\n      0x00\n        /* \"practical9a.sol\":643:644  1 */\n      0x01\n        /* \"practical9a.sol\":637:640  len */\n      dup3\n        /* \"practical9a.sol\":637:644  len - 1 */\n      tag_21\n      swap2\n      swap1\n      tag_22\n      jump\t// in\n    tag_21:\n        /* \"practical9a.sol\":626:644  int256 k = len - 1 */\n      swap1\n      pop\n        /* \"practical9a.sol\":654:671  bytes memory bstr */\n      0x00\n        /* \"practical9a.sol\":692:695  len */\n      dup3\n        /* \"practical9a.sol\":674:697  new bytes(uint256(len)) */\n      0xffffffffffffffff\n      dup2\n      gt\n      iszero\n      tag_23\n      jumpi\n      tag_24\n      tag_25\n      jump\t// in\n    tag_24:\n    tag_23:\n      mload(0x40)\n      swap1\n      dup1\n      dup3\n      mstore\n      dup1\n      0x1f\n      add\n      not(0x1f)\n      and\n      0x20\n      add\n      dup3\n      add\n      0x40\n      mstore\n      dup1\n      iszero\n      tag_26\n      jumpi\n      dup2\n      0x20\n      add\n      0x01\n      dup3\n      mul\n      dup1\n      calldatasize\n      dup4\n      calldatacopy\n      dup1\n      dup3\n      add\n      swap2\n      pop\n      pop\n      swap1\n      pop\n    tag_26:\n      pop\n        /* \"practical9a.sol\":654:697  bytes memory bstr = new bytes(uint256(len)) */\n      swap1\n      pop\n        /* \"practical9a.sol\":707:817  while (i != 0) {... */\n    tag_27:\n        /* \"practical9a.sol\":719:720  0 */\n      0x00\n        /* \"practical9a.sol\":714:715  i */\n      dup7\n        /* \"practical9a.sol\":714:720  i != 0 */\n      eq\n        /* \"practical9a.sol\":707:817  while (i != 0) {... */\n      tag_28\n      jumpi\n        /* \"practical9a.sol\":780:782  10 */\n      0x0a\n        /* \"practical9a.sol\":776:777  i */\n      dup7\n        /* \"practical9a.sol\":776:782  i % 10 */\n      tag_29\n      swap2\n      swap1\n      tag_30\n      jump\t// in\n    tag_29:\n        /* \"practical9a.sol\":770:772  48 */\n      0x30\n        /* \"practical9a.sol\":770:783  48 + (i % 10) */\n      tag_31\n      swap2\n      swap1\n      tag_10\n      jump\t// in\n    tag_31:\n        /* \"practical9a.sol\":757:785  bytes1(uint8(48 + (i % 10))) */\n      0xf8\n      shl\n        /* \"practical9a.sol\":736:740  bstr */\n      dup2\n        /* \"practical9a.sol\":749:752  k-- */\n      dup4\n      dup1\n      tag_32\n      swap1\n      tag_33\n      jump\t// in\n    tag_32:\n      swap5\n      pop\n        /* \"practical9a.sol\":736:754  bstr[uint256(k--)] */\n      dup2\n      mload\n      dup2\n      lt\n      tag_34\n      jumpi\n      tag_35\n      tag_36\n      jump\t// in\n    tag_35:\n    tag_34:\n      0x20\n      add\n      add\n        /* \"practical9a.sol\":736:785  bstr[uint256(k--)] = bytes1(uint8(48 + (i % 10))) */\n      swap1\n      not(0xffffffffffffffffffffffffffffffffffffffffffffffffffffffffffffff)\n      and\n      swap1\n      dup2\n      0x00\n      byte\n      swap1\n      mstore8\n      pop\n        /* \"practical9a.sol\":804:806  10 */\n      0x0a\n        /* \"practical9a.sol\":799:806  i /= 10 */\n      dup7\n      tag_37\n      swap2\n      swap1\n      tag_18\n      jump\t// in\n    tag_37:\n      swap6\n      pop\n        /* \"practical9a.sol\":707:817  while (i != 0) {... */\n      jump(tag_27)\n    tag_28:\n        /* \"practical9a.sol\":840:844  bstr */\n      dup1\n        /* \"practical9a.sol\":826:845  return string(bstr) */\n      swap5\n      pop\n      pop\n      pop\n      pop\n      pop\n        /* \"practical9a.sol\":378:852  function integerToString(uint256 i) private pure returns (string memory) {... */\n    tag_13:\n      swap2\n      swap1\n      pop\n      jump\t// out\n        /* \"#utility.yul\":7:106   */\n    tag_38:\n        /* \"#utility.yul\":59:65   */\n      0x00\n        /* \"#utility.yul\":93:98   */\n      dup2\n        /* \"#utility.yul\":87:99   */\n      mload\n        /* \"#utility.yul\":77:99   */\n      swap1\n      pop\n        /* \"#utility.yul\":7:106   */\n      swap2\n      swap1\n      pop\n      jump\t// out\n        /* \"#utility.yul\":112:281   */\n    tag_39:\n        /* \"#utility.yul\":196:207   */\n      0x00\n        /* \"#utility.yul\":230:236   */\n      dup3\n        /* \"#utility.yul\":225:228   */\n      dup3\n        /* \"#utility.yul\":218:237   */\n      mstore\n        /* \"#utility.yul\":270:274   */\n      0x20\n        /* \"#utility.yul\":265:268   */\n      dup3\n        /* \"#utility.yul\":261:275   */\n      add\n        /* \"#utility.yul\":246:275   */\n      swap1\n      pop\n        /* \"#utility.yul\":112:281   */\n      swap3\n      swap2\n      pop\n      pop\n      jump\t// out\n        /* \"#utility.yul\":287:533   */\n    tag_40:\n        /* \"#utility.yul\":368:369   */\n      0x00\n        /* \"#utility.yul\":378:491   */\n    tag_51:\n        /* \"#utility.yul\":392:398   */\n      dup4\n        /* \"#utility.yul\":389:390   */\n      dup2\n        /* \"#utility.yul\":386:399   */\n      lt\n        /* \"#utility.yul\":378:491   */\n      iszero\n      tag_53\n      jumpi\n        /* \"#utility.yul\":477:478   */\n      dup1\n        /* \"#utility.yul\":472:475   */\n      dup3\n        /* \"#utility.yul\":468:479   */\n      add\n        /* \"#utility.yul\":462:480   */\n      mload\n        /* \"#utility.yul\":458:459   */\n      dup2\n        /* \"#utility.yul\":453:456   */\n      dup5\n        /* \"#utility.yul\":449:460   */\n      add\n        /* \"#utility.yul\":442:481   */\n      mstore\n        /* \"#utility.yul\":414:416   */\n      0x20\n        /* \"#utility.yul\":411:412   */\n      dup2\n        /* \"#utility.yul\":407:417   */\n      add\n        /* \"#utility.yul\":402:417   */\n      swap1\n      pop\n        /* \"#utility.yul\":378:491   */\n      jump(tag_51)\n    tag_53:\n        /* \"#utility.yul\":525:526   */\n      0x00\n        /* \"#utility.yul\":516:522   */\n      dup5\n        /* \"#utility.yul\":511:514   */\n      dup5\n        /* \"#utility.yul\":507:523   */\n      add\n        /* \"#utility.yul\":500:527   */\n      mstore\n        /* \"#utility.yul\":349:533   */\n      pop\n        /* \"#utility.yul\":287:533   */\n      pop\n      pop\n      pop\n      jump\t// out\n        /* \"#utility.yul\":539:641   */\n    tag_41:\n        /* \"#utility.yul\":580:586   */\n      0x00\n        /* \"#utility.yul\":631:633   */\n      0x1f\n        /* \"#utility.yul\":627:634   */\n      not\n        /* \"#utility.yul\":622:624   */\n      0x1f\n        /* \"#utility.yul\":615:620   */\n      dup4\n        /* \"#utility.yul\":611:625   */\n      add\n        /* \"#utility.yul\":607:635   */\n      and\n        /* \"#utility.yul\":597:635   */\n      swap1\n      pop\n        /* \"#utility.yul\":539:641   */\n      swap2\n      swap1\n      pop\n      jump\t// out\n        /* \"#utility.yul\":647:1024   */\n    tag_42:\n        /* \"#utility.yul\":735:738   */\n      0x00\n        /* \"#utility.yul\":763:802   */\n      tag_56\n        /* \"#utility.yul\":796:801   */\n      dup3\n        /* \"#utility.yul\":763:802   */\n      tag_38\n      jump\t// in\n    tag_56:\n        /* \"#utility.yul\":818:889   */\n      tag_57\n        /* \"#utility.yul\":882:888   */\n      dup2\n        /* \"#utility.yul\":877:880   */\n      dup6\n        /* \"#utility.yul\":818:889   */\n      tag_39\n      jump\t// in\n    tag_57:\n        /* \"#utility.yul\":811:889   */\n      swap4\n      pop\n        /* \"#utility.yul\":898:963   */\n      tag_58\n        /* \"#utility.yul\":956:962   */\n      dup2\n        /* \"#utility.yul\":951:954   */\n      dup6\n        /* \"#utility.yul\":944:948   */\n      0x20\n        /* \"#utility.yul\":937:942   */\n      dup7\n        /* \"#utility.yul\":933:949   */\n      add\n        /* \"#utility.yul\":898:963   */\n      tag_40\n      jump\t// in\n    tag_58:\n        /* \"#utility.yul\":988:1017   */\n      tag_59\n        /* \"#utility.yul\":1010:1016   */\n      dup2\n        /* \"#utility.yul\":988:1017   */\n      tag_41\n      jump\t// in\n    tag_59:\n        /* \"#utility.yul\":983:986   */\n      dup5\n        /* \"#utility.yul\":979:1018   */\n      add\n        /* \"#utility.yul\":972:1018   */\n      swap2\n      pop\n        /* \"#utility.yul\":739:1024   */\n      pop\n        /* \"#utility.yul\":647:1024   */\n      swap3\n      swap2\n      pop\n      pop\n      jump\t// out\n        /* \"#utility.yul\":1030:1343   */\n    tag_7:\n        /* \"#utility.yul\":1143:1147   */\n      0x00\n        /* \"#utility.yul\":1181:1183   */\n      0x20\n        /* \"#utility.yul\":1170:1179   */\n      dup3\n        /* \"#utility.yul\":1166:1184   */\n      add\n        /* \"#utility.yul\":1158:1184   */\n      swap1\n      pop\n        /* \"#utility.yul\":1230:1239   */\n      dup2\n        /* \"#utility.yul\":1224:1228   */\n      dup2\n        /* \"#utility.yul\":1220:1240   */\n      sub\n        /* \"#utility.yul\":1216:1217   */\n      0x00\n        /* \"#utility.yul\":1205:1214   */\n      dup4\n        /* \"#utility.yul\":1201:1218   */\n      add\n        /* \"#utility.yul\":1194:1241   */\n      mstore\n        /* \"#utility.yul\":1258:1336   */\n      tag_61\n        /* \"#utility.yul\":1331:1335   */\n      dup2\n        /* \"#utility.yul\":1322:1328   */\n      dup5\n        /* \"#utility.yul\":1258:1336   */\n      tag_42\n      jump\t// in\n    tag_61:\n        /* \"#utility.yul\":1250:1336   */\n      swap1\n      pop\n        /* \"#utility.yul\":1030:1343   */\n      swap3\n      swap2\n      pop\n      pop\n      jump\t// out\n        /* \"#utility.yul\":1349:1426   */\n    tag_43:\n        /* \"#utility.yul\":1386:1393   */\n      0x00\n        /* \"#utility.yul\":1415:1420   */\n      dup2\n        /* \"#utility.yul\":1404:1420   */\n      swap1\n      pop\n        /* \"#utility.yul\":1349:1426   */\n      swap2\n      swap1\n      pop\n      jump\t// out\n        /* \"#utility.yul\":1432:1612   */\n    tag_44:\n        /* \"#utility.yul\":1480:1557   */\n      0x4e487b7100000000000000000000000000000000000000000000000000000000\n        /* \"#utility.yul\":1477:1478   */\n      0x00\n        /* \"#utility.yul\":1470:1558   */\n      mstore\n        /* \"#utility.yul\":1577:1581   */\n      0x11\n        /* \"#utility.yul\":1574:1575   */\n      0x04\n        /* \"#utility.yul\":1567:1582   */\n      mstore\n        /* \"#utility.yul\":1601:1605   */\n      0x24\n        /* \"#utility.yul\":1598:1599   */\n      0x00\n        /* \"#utility.yul\":1591:1606   */\n      revert\n        /* \"#utility.yul\":1618:1809   */\n    tag_10:\n        /* \"#utility.yul\":1658:1661   */\n      0x00\n        /* \"#utility.yul\":1677:1697   */\n      tag_65\n        /* \"#utility.yul\":1695:1696   */\n      dup3\n        /* \"#utility.yul\":1677:1697   */\n      tag_43\n      jump\t// in\n    tag_65:\n        /* \"#utility.yul\":1672:1697   */\n      swap2\n      pop\n        /* \"#utility.yul\":1711:1731   */\n      tag_66\n        /* \"#utility.yul\":1729:1730   */\n      dup4\n        /* \"#utility.yul\":1711:1731   */\n      tag_43\n      jump\t// in\n    tag_66:\n        /* \"#utility.yul\":1706:1731   */\n      swap3\n      pop\n        /* \"#utility.yul\":1754:1755   */\n      dup3\n        /* \"#utility.yul\":1751:1752   */\n      dup3\n        /* \"#utility.yul\":1747:1756   */\n      add\n        /* \"#utility.yul\":1740:1756   */\n      swap1\n      pop\n        /* \"#utility.yul\":1775:1778   */\n      dup1\n        /* \"#utility.yul\":1772:1773   */\n      dup3\n        /* \"#utility.yul\":1769:1779   */\n      gt\n        /* \"#utility.yul\":1766:1802   */\n      iszero\n      tag_67\n      jumpi\n        /* \"#utility.yul\":1782:1800   */\n      tag_68\n      tag_44\n      jump\t// in\n    tag_68:\n        /* \"#utility.yul\":1766:1802   */\n    tag_67:\n        /* \"#utility.yul\":1618:1809   */\n      swap3\n      swap2\n      pop\n      pop\n      jump\t// out\n        /* \"#utility.yul\":1815:1995   */\n    tag_45:\n        /* \"#utility.yul\":1863:1940   */\n      0x4e487b7100000000000000000000000000000000000000000000000000000000\n        /* \"#utility.yul\":1860:1861   */\n      0x00\n        /* \"#utility.yul\":1853:1941   */\n      mstore\n        /* \"#utility.yul\":1960:1964   */\n      0x12\n        /* \"#utility.yul\":1957:1958   */\n      0x04\n        /* \"#utility.yul\":1950:1965   */\n      mstore\n        /* \"#utility.yul\":1984:1988   */\n      0x24\n        /* \"#utility.yul\":1981:1982   */\n      0x00\n        /* \"#utility.yul\":1974:1989   */\n      revert\n        /* \"#utility.yul\":2001:2186   */\n    tag_18:\n        /* \"#utility.yul\":2041:2042   */\n      0x00\n        /* \"#utility.yul\":2058:2078   */\n      tag_71\n        /* \"#utility.yul\":2076:2077   */\n      dup3\n        /* \"#utility.yul\":2058:2078   */\n      tag_43\n      jump\t// in\n    tag_71:\n        /* \"#utility.yul\":2053:2078   */\n      swap2\n      pop\n        /* \"#utility.yul\":2092:2112   */\n      tag_72\n        /* \"#utility.yul\":2110:2111   */\n      dup4\n        /* \"#utility.yul\":2092:2112   */\n      tag_43\n      jump\t// in\n    tag_72:\n        /* \"#utility.yul\":2087:2112   */\n      swap3\n      pop\n        /* \"#utility.yul\":2131:2132   */\n      dup3\n        /* \"#utility.yul\":2121:2156   */\n      tag_73\n      jumpi\n        /* \"#utility.yul\":2136:2154   */\n      tag_74\n      tag_45\n      jump\t// in\n    tag_74:\n        /* \"#utility.yul\":2121:2156   */\n    tag_73:\n        /* \"#utility.yul\":2178:2179   */\n      dup3\n        /* \"#utility.yul\":2175:2176   */\n      dup3\n        /* \"#utility.yul\":2171:2180   */\n      div\n        /* \"#utility.yul\":2166:2180   */\n      swap1\n      pop\n        /* \"#utility.yul\":2001:2186   */\n      swap3\n      swap2\n      pop\n      pop\n      jump\t// out\n        /* \"#utility.yul\":2192:2268   */\n    tag_46:\n        /* \"#utility.yul\":2228:2235   */\n      0x00\n        /* \"#utility.yul\":2257:2262   */\n      dup2\n        /* \"#utility.yul\":2246:2262   */\n      swap1\n      pop\n        /* \"#utility.yul\":2192:2268   */\n      swap2\n      swap1\n      pop\n      jump\t// out\n        /* \"#utility.yul\":2274:2649   */\n    tag_20:\n        /* \"#utility.yul\":2313:2316   */\n      0x00\n        /* \"#utility.yul\":2332:2351   */\n      tag_77\n        /* \"#utility.yul\":2349:2350   */\n      dup3\n        /* \"#utility.yul\":2332:2351   */\n      tag_46\n      jump\t// in\n    tag_77:\n        /* \"#utility.yul\":2327:2351   */\n      swap2\n      pop\n        /* \"#utility.yul\":2365:2384   */\n      tag_78\n        /* \"#utility.yul\":2382:2383   */\n      dup4\n        /* \"#utility.yul\":2365:2384   */\n      tag_46\n      jump\t// in\n    tag_78:\n        /* \"#utility.yul\":2360:2384   */\n      swap3\n      pop\n        /* \"#utility.yul\":2407:2408   */\n      dup3\n        /* \"#utility.yul\":2404:2405   */\n      dup3\n        /* \"#utility.yul\":2400:2409   */\n      add\n        /* \"#utility.yul\":2393:2409   */\n      swap1\n      pop\n        /* \"#utility.yul\":2605:2606   */\n      dup3\n        /* \"#utility.yul\":2600:2603   */\n      dup2\n        /* \"#utility.yul\":2596:2607   */\n      slt\n        /* \"#utility.yul\":2589:2608   */\n      iszero\n        /* \"#utility.yul\":2585:2586   */\n      0x00\n        /* \"#utility.yul\":2582:2583   */\n      dup4\n        /* \"#utility.yul\":2578:2587   */\n      slt\n        /* \"#utility.yul\":2574:2609   */\n      and\n        /* \"#utility.yul\":2557:2558   */\n      dup4\n        /* \"#utility.yul\":2552:2555   */\n      dup3\n        /* \"#utility.yul\":2548:2559   */\n      slt\n        /* \"#utility.yul\":2543:2544   */\n      0x00\n        /* \"#utility.yul\":2540:2541   */\n      dup5\n        /* \"#utility.yul\":2536:2545   */\n      slt\n        /* \"#utility.yul\":2529:2546   */\n      iszero\n        /* \"#utility.yul\":2525:2560   */\n      and\n        /* \"#utility.yul\":2509:2619   */\n      or\n        /* \"#utility.yul\":2506:2642   */\n      iszero\n      tag_79\n      jumpi\n        /* \"#utility.yul\":2622:2640   */\n      tag_80\n      tag_44\n      jump\t// in\n    tag_80:\n        /* \"#utility.yul\":2506:2642   */\n    tag_79:\n        /* \"#utility.yul\":2274:2649   */\n      swap3\n      swap2\n      pop\n      pop\n      jump\t// out\n        /* \"#utility.yul\":2655:3027   */\n    tag_22:\n        /* \"#utility.yul\":2694:2698   */\n      0x00\n        /* \"#utility.yul\":2714:2733   */\n      tag_82\n        /* \"#utility.yul\":2731:2732   */\n      dup3\n        /* \"#utility.yul\":2714:2733   */\n      tag_46\n      jump\t// in\n    tag_82:\n        /* \"#utility.yul\":2709:2733   */\n      swap2\n      pop\n        /* \"#utility.yul\":2747:2766   */\n      tag_83\n        /* \"#utility.yul\":2764:2765   */\n      dup4\n        /* \"#utility.yul\":2747:2766   */\n      tag_46\n      jump\t// in\n    tag_83:\n        /* \"#utility.yul\":2742:2766   */\n      swap3\n      pop\n        /* \"#utility.yul\":2790:2791   */\n      dup3\n        /* \"#utility.yul\":2787:2788   */\n      dup3\n        /* \"#utility.yul\":2783:2792   */\n      sub\n        /* \"#utility.yul\":2775:2792   */\n      swap1\n      pop\n        /* \"#utility.yul\":2984:2985   */\n      dup2\n        /* \"#utility.yul\":2978:2982   */\n      dup2\n        /* \"#utility.yul\":2974:2986   */\n      slt\n        /* \"#utility.yul\":2970:2971   */\n      0x00\n        /* \"#utility.yul\":2967:2968   */\n      dup5\n        /* \"#utility.yul\":2963:2972   */\n      slt\n        /* \"#utility.yul\":2959:2987   */\n      and\n        /* \"#utility.yul\":2942:2943   */\n      dup3\n        /* \"#utility.yul\":2936:2940   */\n      dup3\n        /* \"#utility.yul\":2932:2944   */\n      sgt\n        /* \"#utility.yul\":2927:2928   */\n      0x00\n        /* \"#utility.yul\":2924:2925   */\n      dup6\n        /* \"#utility.yul\":2920:2929   */\n      slt\n        /* \"#utility.yul\":2913:2930   */\n      iszero\n        /* \"#utility.yul\":2909:2945   */\n      and\n        /* \"#utility.yul\":2893:2997   */\n      or\n        /* \"#utility.yul\":2890:3020   */\n      iszero\n      tag_84\n      jumpi\n        /* \"#utility.yul\":3000:3018   */\n      tag_85\n      tag_44\n      jump\t// in\n    tag_85:\n        /* \"#utility.yul\":2890:3020   */\n    tag_84:\n        /* \"#utility.yul\":2655:3027   */\n      swap3\n      swap2\n      pop\n      pop\n      jump\t// out\n        /* \"#utility.yul\":3033:3213   */\n    tag_25:\n        /* \"#utility.yul\":3081:3158   */\n      0x4e487b7100000000000000000000000000000000000000000000000000000000\n        /* \"#utility.yul\":3078:3079   */\n      0x00\n        /* \"#utility.yul\":3071:3159   */\n      mstore\n        /* \"#utility.yul\":3178:3182   */\n      0x41\n        /* \"#utility.yul\":3175:3176   */\n      0x04\n        /* \"#utility.yul\":3168:3183   */\n      mstore\n        /* \"#utility.yul\":3202:3206   */\n      0x24\n        /* \"#utility.yul\":3199:3200   */\n      0x00\n        /* \"#utility.yul\":3192:3207   */\n      revert\n        /* \"#utility.yul\":3219:3395   */\n    tag_30:\n        /* \"#utility.yul\":3251:3252   */\n      0x00\n        /* \"#utility.yul\":3268:3288   */\n      tag_88\n        /* \"#utility.yul\":3286:3287   */\n      dup3\n        /* \"#utility.yul\":3268:3288   */\n      tag_43\n      jump\t// in\n    tag_88:\n        /* \"#utility.yul\":3263:3288   */\n      swap2\n      pop\n        /* \"#utility.yul\":3302:3322   */\n      tag_89\n        /* \"#utility.yul\":3320:3321   */\n      dup4\n        /* \"#utility.yul\":3302:3322   */\n      tag_43\n      jump\t// in\n    tag_89:\n        /* \"#utility.yul\":3297:3322   */\n      swap3\n      pop\n        /* \"#utility.yul\":3341:3342   */\n      dup3\n        /* \"#utility.yul\":3331:3366   */\n      tag_90\n      jumpi\n        /* \"#utility.yul\":3346:3364   */\n      tag_91\n      tag_45\n      jump\t// in\n    tag_91:\n        /* \"#utility.yul\":3331:3366   */\n    tag_90:\n        /* \"#utility.yul\":3387:3388   */\n      dup3\n        /* \"#utility.yul\":3384:3385   */\n      dup3\n        /* \"#utility.yul\":3380:3389   */\n      mod\n        /* \"#utility.yul\":3375:3389   */\n      swap1\n      pop\n        /* \"#utility.yul\":3219:3395   */\n      swap3\n      swap2\n      pop\n      pop\n      jump\t// out\n        /* \"#utility.yul\":3401:3632   */\n    tag_33:\n        /* \"#utility.yul\":3439:3442   */\n      0x00\n        /* \"#utility.yul\":3462:3485   */\n      tag_93\n        /* \"#utility.yul\":3479:3484   */\n      dup3\n        /* \"#utility.yul\":3462:3485   */\n      tag_46\n      jump\t// in\n    tag_93:\n        /* \"#utility.yul\":3453:3485   */\n      swap2\n      pop\n        /* \"#utility.yul\":3507:3573   */\n      0x8000000000000000000000000000000000000000000000000000000000000000\n        /* \"#utility.yul\":3500:3505   */\n      dup3\n        /* \"#utility.yul\":3497:3574   */\n      sub\n        /* \"#utility.yul\":3494:3597   */\n      tag_94\n      jumpi\n        /* \"#utility.yul\":3577:3595   */\n      tag_95\n      tag_44\n      jump\t// in\n    tag_95:\n        /* \"#utility.yul\":3494:3597   */\n    tag_94:\n        /* \"#utility.yul\":3624:3625   */\n      0x01\n        /* \"#utility.yul\":3617:3622   */\n      dup3\n        /* \"#utility.yul\":3613:3626   */\n      sub\n        /* \"#utility.yul\":3606:3626   */\n      swap1\n      pop\n        /* \"#utility.yul\":3401:3632   */\n      swap2\n      swap1\n      pop\n      jump\t// out\n        /* \"#utility.yul\":3638:3818   */\n    tag_36:\n        /* \"#utility.yul\":3686:3763   */\n      0x4e487b7100000000000000000000000000000000000000000000000000000000\n        /* \"#utility.yul\":3683:3684   */\n      0x00\n        /* \"#utility.yul\":3676:3764   */\n      mstore\n        /* \"#utility.yul\":3783:3787   */\n      0x32\n        /* \"#utility.yul\":3780:3781   */\n      0x04\n        /* \"#utility.yul\":3773:3788   */\n      mstore\n        /* \"#utility.yul\":3807:3811   */\n      0x24\n        /* \"#utility.yul\":3804:3805   */\n      0x00\n        /* \"#utility.yul\":3797:3812   */\n      revert\n\n    auxdata: 0xa26469706673582212201e5422ff39cecebc2df6e50b42b3920b107afb6ce9078cd379e3adbee18c293d64736f6c63430008120033\n}\n",
				"bytecode": {
					"linkReferences": {},
					"object": "608060405234801561001057600080fd5b5061050a806100206000396000f3fe608060405234801561001057600080fd5b506004361061002b5760003560e01c8063de29278914610030575b600080fd5b61003861004e565b604051610045919061027d565b60405180910390f35b60606000600a90506000607190506000818361006a91906102d8565b90506100758161007d565b935050505090565b6060600082036100c4576040518060400160405280600181526020017f300000000000000000000000000000000000000000000000000000000000000081525090506101e8565b600082905060005b600082146100f757600a826100e1919061033b565b91506001816100f09190610376565b90506100cc565b600060018261010691906103ba565b905060008267ffffffffffffffff811115610124576101236103fd565b5b6040519080825280601f01601f1916602001820160405280156101565781602001600182028036833780820191505090505b5090505b600086146101e057600a8661016f919061042c565b603061017b91906102d8565b60f81b81838061018a9061045d565b94508151811061019d5761019c6104a5565b5b60200101907effffffffffffffffffffffffffffffffffffffffffffffffffffffffffffff1916908160001a905350600a866101d9919061033b565b955061015a565b809450505050505b919050565b600081519050919050565b600082825260208201905092915050565b60005b8381101561022757808201518184015260208101905061020c565b60008484015250505050565b6000601f19601f8301169050919050565b600061024f826101ed565b61025981856101f8565b9350610269818560208601610209565b61027281610233565b840191505092915050565b600060208201905081810360008301526102978184610244565b905092915050565b6000819050919050565b7f4e487b7100000000000000000000000000000000000000000000000000000000600052601160045260246000fd5b60006102e38261029f565b91506102ee8361029f565b9250828201905080821115610306576103056102a9565b5b92915050565b7f4e487b7100000000000000000000000000000000000000000000000000000000600052601260045260246000fd5b60006103468261029f565b91506103518361029f565b9250826103615761036061030c565b5b828204905092915050565b6000819050919050565b60006103818261036c565b915061038c8361036c565b9250828201905082811215600083121683821260008412151617156103b4576103b36102a9565b5b92915050565b60006103c58261036c565b91506103d08361036c565b92508282039050818112600084121682821360008512151617156103f7576103f66102a9565b5b92915050565b7f4e487b7100000000000000000000000000000000000000000000000000000000600052604160045260246000fd5b60006104378261029f565b91506104428361029f565b9250826104525761045161030c565b5b828206905092915050565b60006104688261036c565b91507f8000000000000000000000000000000000000000000000000000000000000000820361049a576104996102a9565b5b600182039050919050565b7f4e487b7100000000000000000000000000000000000000000000000000000000600052603260045260246000fdfea26469706673582212201e5422ff39cecebc2df6e50b42b3920b107afb6ce9078cd379e3adbee18c293d64736f6c63430008120033",
					"opcodes": "PUSH1 0x80 PUSH1 0x40 MSTORE CALLVALUE DUP1 ISZERO PUSH2 0x10 JUMPI PUSH1 0x0 DUP1 REVERT JUMPDEST POP PUSH2 0x50A DUP1 PUSH2 0x20 PUSH1 0x0 CODECOPY PUSH1 0x0 RETURN INVALID PUSH1 0x80 PUSH1 0x40 MSTORE CALLVALUE DUP1 ISZERO PUSH2 0x10 JUMPI PUSH1 0x0 DUP1 REVERT JUMPDEST POP PUSH1 0x4 CALLDATASIZE LT PUSH2 0x2B JUMPI PUSH1 0x0 CALLDATALOAD PUSH1 0xE0 SHR DUP1 PUSH4 0xDE292789 EQ PUSH2 0x30 JUMPI JUMPDEST PUSH1 0x0 DUP1 REVERT JUMPDEST PUSH2 0x38 PUSH2 0x4E JUMP JUMPDEST PUSH1 0x40 MLOAD PUSH2 0x45 SWAP2 SWAP1 PUSH2 0x27D JUMP JUMPDEST PUSH1 0x40 MLOAD DUP1 SWAP2 SUB SWAP1 RETURN JUMPDEST PUSH1 0x60 PUSH1 0x0 PUSH1 0xA SWAP1 POP PUSH1 0x0 PUSH1 0x71 SWAP1 POP PUSH1 0x0 DUP2 DUP4 PUSH2 0x6A SWAP2 SWAP1 PUSH2 0x2D8 JUMP JUMPDEST SWAP1 POP PUSH2 0x75 DUP2 PUSH2 0x7D JUMP JUMPDEST SWAP4 POP POP POP POP SWAP1 JUMP JUMPDEST PUSH1 0x60 PUSH1 0x0 DUP3 SUB PUSH2 0xC4 JUMPI PUSH1 0x40 MLOAD DUP1 PUSH1 0x40 ADD PUSH1 0x40 MSTORE DUP1 PUSH1 0x1 DUP2 MSTORE PUSH1 0x20 ADD PUSH32 0x3000000000000000000000000000000000000000000000000000000000000000 DUP2 MSTORE POP SWAP1 POP PUSH2 0x1E8 JUMP JUMPDEST PUSH1 0x0 DUP3 SWAP1 POP PUSH1 0x0 JUMPDEST PUSH1 0x0 DUP3 EQ PUSH2 0xF7 JUMPI PUSH1 0xA DUP3 PUSH2 0xE1 SWAP2 SWAP1 PUSH2 0x33B JUMP JUMPDEST SWAP2 POP PUSH1 0x1 DUP2 PUSH2 0xF0 SWAP2 SWAP1 PUSH2 0x376 JUMP JUMPDEST SWAP1 POP PUSH2 0xCC JUMP JUMPDEST PUSH1 0x0 PUSH1 0x1 DUP3 PUSH2 0x106 SWAP2 SWAP1 PUSH2 0x3BA JUMP JUMPDEST SWAP1 POP PUSH1 0x0 DUP3 PUSH8 0xFFFFFFFFFFFFFFFF DUP2 GT ISZERO PUSH2 0x124 JUMPI PUSH2 0x123 PUSH2 0x3FD JUMP JUMPDEST JUMPDEST PUSH1 0x40 MLOAD SWAP1 DUP1 DUP3 MSTORE DUP1 PUSH1 0x1F ADD PUSH1 0x1F NOT AND PUSH1 0x20 ADD DUP3 ADD PUSH1 0x40 MSTORE DUP1 ISZERO PUSH2 0x156 JUMPI DUP2 PUSH1 0x20 ADD PUSH1 0x1 DUP3 MUL DUP1 CALLDATASIZE DUP4 CALLDATACOPY DUP1 DUP3 ADD SWAP2 POP POP SWAP1 POP JUMPDEST POP SWAP1 POP JUMPDEST PUSH1 0x0 DUP7 EQ PUSH2 0x1E0 JUMPI PUSH1 0xA DUP7 PUSH2 0x16F SWAP2 SWAP1 PUSH2 0x42C JUMP JUMPDEST PUSH1 0x30 PUSH2 0x17B SWAP2 SWAP1 PUSH2 0x2D8 JUMP JUMPDEST PUSH1 0xF8 SHL DUP2 DUP4 DUP1 PUSH2 0x18A SWAP1 PUSH2 0x45D JUMP JUMPDEST SWAP5 POP DUP2 MLOAD DUP2 LT PUSH2 0x19D JUMPI PUSH2 0x19C PUSH2 0x4A5 JUMP JUMPDEST JUMPDEST PUSH1 0x20 ADD ADD SWAP1 PUSH31 0xFFFFFFFFFFFFFFFFFFFFFFFFFFFFFFFFFFFFFFFFFFFFFFFFFFFFFFFFFFFFFF NOT AND SWAP1 DUP2 PUSH1 0x0 BYTE SWAP1 MSTORE8 POP PUSH1 0xA DUP7 PUSH2 0x1D9 SWAP2 SWAP1 PUSH2 0x33B JUMP JUMPDEST SWAP6 POP PUSH2 0x15A JUMP JUMPDEST DUP1 SWAP5 POP POP POP POP POP JUMPDEST SWAP2 SWAP1 POP JUMP JUMPDEST PUSH1 0x0 DUP2 MLOAD SWAP1 POP SWAP2 SWAP1 POP JUMP JUMPDEST PUSH1 0x0 DUP3 DUP3 MSTORE PUSH1 0x20 DUP3 ADD SWAP1 POP SWAP3 SWAP2 POP POP JUMP JUMPDEST PUSH1 0x0 JUMPDEST DUP4 DUP2 LT ISZERO PUSH2 0x227 JUMPI DUP1 DUP3 ADD MLOAD DUP2 DUP5 ADD MSTORE PUSH1 0x20 DUP2 ADD SWAP1 POP PUSH2 0x20C JUMP JUMPDEST PUSH1 0x0 DUP5 DUP5 ADD MSTORE POP POP POP POP JUMP JUMPDEST PUSH1 0x0 PUSH1 0x1F NOT PUSH1 0x1F DUP4 ADD AND SWAP1 POP SWAP2 SWAP1 POP JUMP JUMPDEST PUSH1 0x0 PUSH2 0x24F DUP3 PUSH2 0x1ED JUMP JUMPDEST PUSH2 0x259 DUP2 DUP6 PUSH2 0x1F8 JUMP JUMPDEST SWAP4 POP PUSH2 0x269 DUP2 DUP6 PUSH1 0x20 DUP7 ADD PUSH2 0x209 JUMP JUMPDEST PUSH2 0x272 DUP2 PUSH2 0x233 JUMP JUMPDEST DUP5 ADD SWAP2 POP POP SWAP3 SWAP2 POP POP JUMP JUMPDEST PUSH1 0x0 PUSH1 0x20 DUP3 ADD SWAP1 POP DUP2 DUP2 SUB PUSH1 0x0 DUP4 ADD MSTORE PUSH2 0x297 DUP2 DUP5 PUSH2 0x244 JUMP JUMPDEST SWAP1 POP SWAP3 SWAP2 POP POP JUMP JUMPDEST PUSH1 0x0 DUP2 SWAP1 POP SWAP2 SWAP1 POP JUMP JUMPDEST PUSH32 0x4E487B7100000000000000000000000000000000000000000000000000000000 PUSH1 0x0 MSTORE PUSH1 0x11 PUSH1 0x4 MSTORE PUSH1 0x24 PUSH1 0x0 REVERT JUMPDEST PUSH1 0x0 PUSH2 0x2E3 DUP3 PUSH2 0x29F JUMP JUMPDEST SWAP2 POP PUSH2 0x2EE DUP4 PUSH2 0x29F JUMP JUMPDEST SWAP3 POP DUP3 DUP3 ADD SWAP1 POP DUP1 DUP3 GT ISZERO PUSH2 0x306 JUMPI PUSH2 0x305 PUSH2 0x2A9 JUMP JUMPDEST JUMPDEST SWAP3 SWAP2 POP POP JUMP JUMPDEST PUSH32 0x4E487B7100000000000000000000000000000000000000000000000000000000 PUSH1 0x0 MSTORE PUSH1 0x12 PUSH1 0x4 MSTORE PUSH1 0x24 PUSH1 0x0 REVERT JUMPDEST PUSH1 0x0 PUSH2 0x346 DUP3 PUSH2 0x29F JUMP JUMPDEST SWAP2 POP PUSH2 0x351 DUP4 PUSH2 0x29F JUMP JUMPDEST SWAP3 POP DUP3 PUSH2 0x361 JUMPI PUSH2 0x360 PUSH2 0x30C JUMP JUMPDEST JUMPDEST DUP3 DUP3 DIV SWAP1 POP SWAP3 SWAP2 POP POP JUMP JUMPDEST PUSH1 0x0 DUP2 SWAP1 POP SWAP2 SWAP1 POP JUMP JUMPDEST PUSH1 0x0 PUSH2 0x381 DUP3 PUSH2 0x36C JUMP JUMPDEST SWAP2 POP PUSH2 0x38C DUP4 PUSH2 0x36C JUMP JUMPDEST SWAP3 POP DUP3 DUP3 ADD SWAP1 POP DUP3 DUP2 SLT ISZERO PUSH1 0x0 DUP4 SLT AND DUP4 DUP3 SLT PUSH1 0x0 DUP5 SLT ISZERO AND OR ISZERO PUSH2 0x3B4 JUMPI PUSH2 0x3B3 PUSH2 0x2A9 JUMP JUMPDEST JUMPDEST SWAP3 SWAP2 POP POP JUMP JUMPDEST PUSH1 0x0 PUSH2 0x3C5 DUP3 PUSH2 0x36C JUMP JUMPDEST SWAP2 POP PUSH2 0x3D0 DUP4 PUSH2 0x36C JUMP JUMPDEST SWAP3 POP DUP3 DUP3 SUB SWAP1 POP DUP2 DUP2 SLT PUSH1 0x0 DUP5 SLT AND DUP3 DUP3 SGT PUSH1 0x0 DUP6 SLT ISZERO AND OR ISZERO PUSH2 0x3F7 JUMPI PUSH2 0x3F6 PUSH2 0x2A9 JUMP JUMPDEST JUMPDEST SWAP3 SWAP2 POP POP JUMP JUMPDEST PUSH32 0x4E487B7100000000000000000000000000000000000000000000000000000000 PUSH1 0x0 MSTORE PUSH1 0x41 PUSH1 0x4 MSTORE PUSH1 0x24 PUSH1 0x0 REVERT JUMPDEST PUSH1 0x0 PUSH2 0x437 DUP3 PUSH2 0x29F JUMP JUMPDEST SWAP2 POP PUSH2 0x442 DUP4 PUSH2 0x29F JUMP JUMPDEST SWAP3 POP DUP3 PUSH2 0x452 JUMPI PUSH2 0x451 PUSH2 0x30C JUMP JUMPDEST JUMPDEST DUP3 DUP3 MOD SWAP1 POP SWAP3 SWAP2 POP POP JUMP JUMPDEST PUSH1 0x0 PUSH2 0x468 DUP3 PUSH2 0x36C JUMP JUMPDEST SWAP2 POP PUSH32 0x8000000000000000000000000000000000000000000000000000000000000000 DUP3 SUB PUSH2 0x49A JUMPI PUSH2 0x499 PUSH2 0x2A9 JUMP JUMPDEST JUMPDEST PUSH1 0x1 DUP3 SUB SWAP1 POP SWAP2 SWAP1 POP JUMP JUMPDEST PUSH32 0x4E487B7100000000000000000000000000000000000000000000000000000000 PUSH1 0x0 MSTORE PUSH1 0x32 PUSH1 0x4 MSTORE PUSH1 0x24 PUSH1 0x0 REVERT INVALID LOG2 PUSH5 0x6970667358 0x22 SLT KECCAK256 0x1E SLOAD 0x22 SELFDESTRUCT CODECOPY 0xCE 0xCE 0xBC 0x2D 0xF6 0xE5 SIGNEXTEND TIMESTAMP 0xB3 SWAP3 SIGNEXTEND LT PUSH27 0xFB6CE9078CD379E3ADBEE18C293D64736F6C634300081200330000 "
				},
				"gasEstimates": {
					"creation": {
						"codeDepositCost": "258000",
						"executionCost": "300",
						"totalCost": "258300"
					},
					"external": {
						"getResult()": "infinite"
					},
					"internal": {
						"integerToString(uint256)": "infinite"
					}
				},
				"methodIdentifiers": {
					"getResult()": "de292789"
				}
			},
			"storageLayout": {
				"storage": [],
				"types": null
			},
			"userdoc": {
				"kind": "user",
				"methods": {},
				"version": 1
			}
		}
	}
}