{
	"practical3a.sol": {
		"SolidityTest": {
			"abi": [
				{
					"inputs": [],
					"name": "getResult",
					"outputs": [
						{
							"internalType": "string",
							"name": "",
							"type": "string"
						}
					],
					"stateMutability": "nonpayable",
					"type": "function"
				},
				{
					"inputs": [
						{
							"internalType": "uint256",
							"name": "i",
							"type": "uint256"
						}
					],
					"name": "integerToString",
					"outputs": [
						{
							"internalType": "string",
							"name": "",
							"type": "string"
						}
					],
					"stateMutability": "payable",
					"type": "function"
				}
			],
			"devdoc": {
				"kind": "dev",
				"methods": {},
				"version": 1
			},
			"evm": {
				"assembly": "    /* \"practical3a.sol\":128:810  contract SolidityTest {... */\n  mstore(0x40, 0x80)\n  callvalue\n  dup1\n  iszero\n  tag_1\n  jumpi\n  0x00\n  dup1\n  revert\ntag_1:\n  pop\n  dataSize(sub_0)\n  dup1\n  dataOffset(sub_0)\n  0x00\n  codecopy\n  0x00\n  return\nstop\n\nsub_0: assembly {\n        /* \"practical3a.sol\":128:810  contract SolidityTest {... */\n      mstore(0x40, 0x80)\n      jumpi(tag_1, lt(calldatasize, 0x04))\n      shr(0xe0, calldataload(0x00))\n      dup1\n      0xc88a3710\n      eq\n      tag_2\n      jumpi\n      dup1\n      0xde292789\n      eq\n      tag_3\n      jumpi\n    tag_1:\n      0x00\n      dup1\n      revert\n        /* \"practical3a.sol\":332:808  function integerToString(uint256 i) public payable returns (string memory) {... */\n    tag_2:\n      tag_4\n      0x04\n      dup1\n      calldatasize\n      sub\n      dup2\n      add\n      swap1\n      tag_5\n      swap2\n      swap1\n      tag_6\n      jump\t// in\n    tag_5:\n      tag_7\n      jump\t// in\n    tag_4:\n      mload(0x40)\n      tag_8\n      swap2\n      swap1\n      tag_9\n      jump\t// in\n    tag_8:\n      mload(0x40)\n      dup1\n      swap2\n      sub\n      swap1\n      return\n        /* \"practical3a.sol\":156:326  function getResult() public returns (string memory) {... */\n    tag_3:\n      callvalue\n      dup1\n      iszero\n      tag_10\n      jumpi\n      0x00\n      dup1\n      revert\n    tag_10:\n      pop\n      tag_11\n      tag_12\n      jump\t// in\n    tag_11:\n      mload(0x40)\n      tag_13\n      swap2\n      swap1\n      tag_9\n      jump\t// in\n    tag_13:\n      mload(0x40)\n      dup1\n      swap2\n      sub\n      swap1\n      return\n        /* \"practical3a.sol\":332:808  function integerToString(uint256 i) public payable returns (string memory) {... */\n    tag_7:\n        /* \"practical3a.sol\":392:405  string memory */\n      0x60\n        /* \"practical3a.sol\":426:427  0 */\n      0x00\n        /* \"practical3a.sol\":421:422  i */\n      dup3\n        /* \"practical3a.sol\":421:427  i == 0 */\n      sub\n        /* \"practical3a.sol\":417:439  if (i == 0) return \"0\" */\n      tag_15\n      jumpi\n        /* \"practical3a.sol\":429:439  return \"0\" */\n      mload(0x40)\n      dup1\n      0x40\n      add\n      0x40\n      mstore\n      dup1\n      0x01\n      dup2\n      mstore\n      0x20\n      add\n      0x3000000000000000000000000000000000000000000000000000000000000000\n      dup2\n      mstore\n      pop\n      swap1\n      pop\n      jump(tag_14)\n        /* \"practical3a.sol\":417:439  if (i == 0) return \"0\" */\n    tag_15:\n        /* \"practical3a.sol\":449:458  uint256 j */\n      0x00\n        /* \"practical3a.sol\":461:462  i */\n      dup3\n        /* \"practical3a.sol\":449:462  uint256 j = i */\n      swap1\n      pop\n        /* \"practical3a.sol\":472:482  int256 len */\n      0x00\n        /* \"practical3a.sol\":496:573  while (j != 0) {... */\n    tag_16:\n        /* \"practical3a.sol\":508:509  0 */\n      0x00\n        /* \"practical3a.sol\":503:504  j */\n      dup3\n        /* \"practical3a.sol\":503:509  j != 0 */\n      eq\n        /* \"practical3a.sol\":496:573  while (j != 0) {... */\n      tag_17\n      jumpi\n        /* \"practical3a.sol\":533:535  10 */\n      0x0a\n        /* \"practical3a.sol\":529:530  j */\n      dup3\n        /* \"practical3a.sol\":529:535  j / 10 */\n      tag_18\n      swap2\n      swap1\n      tag_19\n      jump\t// in\n    tag_18:\n        /* \"practical3a.sol\":525:535  j = j / 10 */\n      swap2\n      pop\n        /* \"practical3a.sol\":561:562  1 */\n      0x01\n        /* \"practical3a.sol\":555:558  len */\n      dup2\n        /* \"practical3a.sol\":555:562  len + 1 */\n      tag_20\n      swap2\n      swap1\n      tag_21\n      jump\t// in\n    tag_20:\n        /* \"practical3a.sol\":549:562  len = len + 1 */\n      swap1\n      pop\n        /* \"practical3a.sol\":496:573  while (j != 0) {... */\n      jump(tag_16)\n    tag_17:\n        /* \"practical3a.sol\":582:590  int256 k */\n      0x00\n        /* \"practical3a.sol\":599:600  1 */\n      0x01\n        /* \"practical3a.sol\":593:596  len */\n      dup3\n        /* \"practical3a.sol\":593:600  len - 1 */\n      tag_22\n      swap2\n      swap1\n      tag_23\n      jump\t// in\n    tag_22:\n        /* \"practical3a.sol\":582:600  int256 k = len - 1 */\n      swap1\n      pop\n        /* \"practical3a.sol\":610:627  bytes memory bstr */\n      0x00\n        /* \"practical3a.sol\":648:651  len */\n      dup3\n        /* \"practical3a.sol\":630:653  new bytes(uint256(len)) */\n      0xffffffffffffffff\n      dup2\n      gt\n      iszero\n      tag_24\n      jumpi\n      tag_25\n      tag_26\n      jump\t// in\n    tag_25:\n    tag_24:\n      mload(0x40)\n      swap1\n      dup1\n      dup3\n      mstore\n      dup1\n      0x1f\n      add\n      not(0x1f)\n      and\n      0x20\n      add\n      dup3\n      add\n      0x40\n      mstore\n      dup1\n      iszero\n      tag_27\n      jumpi\n      dup2\n      0x20\n      add\n      0x01\n      dup3\n      mul\n      dup1\n      calldatasize\n      dup4\n      calldatacopy\n      dup1\n      dup3\n      add\n      swap2\n      pop\n      pop\n      swap1\n      pop\n    tag_27:\n      pop\n        /* \"practical3a.sol\":610:653  bytes memory bstr = new bytes(uint256(len)) */\n      swap1\n      pop\n        /* \"practical3a.sol\":663:773  while (i != 0) {... */\n    tag_28:\n        /* \"practical3a.sol\":675:676  0 */\n      0x00\n        /* \"practical3a.sol\":670:671  i */\n      dup7\n        /* \"practical3a.sol\":670:676  i != 0 */\n      eq\n        /* \"practical3a.sol\":663:773  while (i != 0) {... */\n      tag_29\n      jumpi\n        /* \"practical3a.sol\":736:738  10 */\n      0x0a\n        /* \"practical3a.sol\":732:733  i */\n      dup7\n        /* \"practical3a.sol\":732:738  i % 10 */\n      tag_30\n      swap2\n      swap1\n      tag_31\n      jump\t// in\n    tag_30:\n        /* \"practical3a.sol\":726:728  48 */\n      0x30\n        /* \"practical3a.sol\":726:739  48 + (i % 10) */\n      tag_32\n      swap2\n      swap1\n      tag_33\n      jump\t// in\n    tag_32:\n        /* \"practical3a.sol\":713:741  bytes1(uint8(48 + (i % 10))) */\n      0xf8\n      shl\n        /* \"practical3a.sol\":692:696  bstr */\n      dup2\n        /* \"practical3a.sol\":705:708  k-- */\n      dup4\n      dup1\n      tag_34\n      swap1\n      tag_35\n      jump\t// in\n    tag_34:\n      swap5\n      pop\n        /* \"practical3a.sol\":692:710  bstr[uint256(k--)] */\n      dup2\n      mload\n      dup2\n      lt\n      tag_36\n      jumpi\n      tag_37\n      tag_38\n      jump\t// in\n    tag_37:\n    tag_36:\n      0x20\n      add\n      add\n        /* \"practical3a.sol\":692:741  bstr[uint256(k--)] = bytes1(uint8(48 + (i % 10))) */\n      swap1\n      not(0xffffffffffffffffffffffffffffffffffffffffffffffffffffffffffffff)\n      and\n      swap1\n      dup2\n      0x00\n      byte\n      swap1\n      mstore8\n      pop\n        /* \"practical3a.sol\":760:762  10 */\n      0x0a\n        /* \"practical3a.sol\":755:762  i /= 10 */\n      dup7\n      tag_39\n      swap2\n      swap1\n      tag_19\n      jump\t// in\n    tag_39:\n      swap6\n      pop\n        /* \"practical3a.sol\":663:773  while (i != 0) {... */\n      jump(tag_28)\n    tag_29:\n        /* \"practical3a.sol\":796:800  bstr */\n      dup1\n        /* \"practical3a.sol\":782:801  return string(bstr) */\n      swap5\n      pop\n      pop\n      pop\n      pop\n      pop\n        /* \"practical3a.sol\":332:808  function integerToString(uint256 i) public payable returns (string memory) {... */\n    tag_14:\n      swap2\n      swap1\n      pop\n      jump\t// out\n        /* \"practical3a.sol\":156:326  function getResult() public returns (string memory) {... */\n    tag_12:\n        /* \"practical3a.sol\":193:206  string memory */\n      0x60\n        /* \"practical3a.sol\":218:227  uint256 a */\n      0x00\n        /* \"practical3a.sol\":230:232  10 */\n      0x0a\n        /* \"practical3a.sol\":218:232  uint256 a = 10 */\n      swap1\n      pop\n        /* \"practical3a.sol\":242:251  uint256 b */\n      0x00\n        /* \"practical3a.sol\":254:257  113 */\n      0x71\n        /* \"practical3a.sol\":242:257  uint256 b = 113 */\n      swap1\n      pop\n        /* \"practical3a.sol\":267:276  uint256 c */\n      0x00\n        /* \"practical3a.sol\":283:284  b */\n      dup2\n        /* \"practical3a.sol\":279:280  a */\n      dup4\n        /* \"practical3a.sol\":279:284  a + b */\n      tag_41\n      swap2\n      swap1\n      tag_33\n      jump\t// in\n    tag_41:\n        /* \"practical3a.sol\":267:284  uint256 c = a + b */\n      swap1\n      pop\n        /* \"practical3a.sol\":301:319  integerToString(c) */\n      tag_42\n        /* \"practical3a.sol\":317:318  c */\n      dup2\n        /* \"practical3a.sol\":301:316  integerToString */\n      tag_7\n        /* \"practical3a.sol\":301:319  integerToString(c) */\n      jump\t// in\n    tag_42:\n        /* \"practical3a.sol\":294:319  return integerToString(c) */\n      swap4\n      pop\n      pop\n      pop\n      pop\n        /* \"practical3a.sol\":156:326  function getResult() public returns (string memory) {... */\n      swap1\n      jump\t// out\n        /* \"#utility.yul\":88:205   */\n    tag_44:\n        /* \"#utility.yul\":197:198   */\n      0x00\n        /* \"#utility.yul\":194:195   */\n      dup1\n        /* \"#utility.yul\":187:199   */\n      revert\n        /* \"#utility.yul\":334:411   */\n    tag_46:\n        /* \"#utility.yul\":371:378   */\n      0x00\n        /* \"#utility.yul\":400:405   */\n      dup2\n        /* \"#utility.yul\":389:405   */\n      swap1\n      pop\n        /* \"#utility.yul\":334:411   */\n      swap2\n      swap1\n      pop\n      jump\t// out\n        /* \"#utility.yul\":417:539   */\n    tag_47:\n        /* \"#utility.yul\":490:514   */\n      tag_63\n        /* \"#utility.yul\":508:513   */\n      dup2\n        /* \"#utility.yul\":490:514   */\n      tag_46\n      jump\t// in\n    tag_63:\n        /* \"#utility.yul\":483:488   */\n      dup2\n        /* \"#utility.yul\":480:515   */\n      eq\n        /* \"#utility.yul\":470:533   */\n      tag_64\n      jumpi\n        /* \"#utility.yul\":529:530   */\n      0x00\n        /* \"#utility.yul\":526:527   */\n      dup1\n        /* \"#utility.yul\":519:531   */\n      revert\n        /* \"#utility.yul\":470:533   */\n    tag_64:\n        /* \"#utility.yul\":417:539   */\n      pop\n      jump\t// out\n        /* \"#utility.yul\":545:684   */\n    tag_48:\n        /* \"#utility.yul\":591:596   */\n      0x00\n        /* \"#utility.yul\":629:635   */\n      dup2\n        /* \"#utility.yul\":616:636   */\n      calldataload\n        /* \"#utility.yul\":607:636   */\n      swap1\n      pop\n        /* \"#utility.yul\":645:678   */\n      tag_66\n        /* \"#utility.yul\":672:677   */\n      dup2\n        /* \"#utility.yul\":645:678   */\n      tag_47\n      jump\t// in\n    tag_66:\n        /* \"#utility.yul\":545:684   */\n      swap3\n      swap2\n      pop\n      pop\n      jump\t// out\n        /* \"#utility.yul\":690:1019   */\n    tag_6:\n        /* \"#utility.yul\":749:755   */\n      0x00\n        /* \"#utility.yul\":798:800   */\n      0x20\n        /* \"#utility.yul\":786:795   */\n      dup3\n        /* \"#utility.yul\":777:784   */\n      dup5\n        /* \"#utility.yul\":773:796   */\n      sub\n        /* \"#utility.yul\":769:801   */\n      slt\n        /* \"#utility.yul\":766:885   */\n      iszero\n      tag_68\n      jumpi\n        /* \"#utility.yul\":804:883   */\n      tag_69\n      tag_44\n      jump\t// in\n    tag_69:\n        /* \"#utility.yul\":766:885   */\n    tag_68:\n        /* \"#utility.yul\":924:925   */\n      0x00\n        /* \"#utility.yul\":949:1002   */\n      tag_70\n        /* \"#utility.yul\":994:1001   */\n      dup5\n        /* \"#utility.yul\":985:991   */\n      dup3\n        /* \"#utility.yul\":974:983   */\n      dup6\n        /* \"#utility.yul\":970:992   */\n      add\n        /* \"#utility.yul\":949:1002   */\n      tag_48\n      jump\t// in\n    tag_70:\n        /* \"#utility.yul\":939:1002   */\n      swap2\n      pop\n        /* \"#utility.yul\":895:1012   */\n      pop\n        /* \"#utility.yul\":690:1019   */\n      swap3\n      swap2\n      pop\n      pop\n      jump\t// out\n        /* \"#utility.yul\":1025:1124   */\n    tag_49:\n        /* \"#utility.yul\":1077:1083   */\n      0x00\n        /* \"#utility.yul\":1111:1116   */\n      dup2\n        /* \"#utility.yul\":1105:1117   */\n      mload\n        /* \"#utility.yul\":1095:1117   */\n      swap1\n      pop\n        /* \"#utility.yul\":1025:1124   */\n      swap2\n      swap1\n      pop\n      jump\t// out\n        /* \"#utility.yul\":1130:1299   */\n    tag_50:\n        /* \"#utility.yul\":1214:1225   */\n      0x00\n        /* \"#utility.yul\":1248:1254   */\n      dup3\n        /* \"#utility.yul\":1243:1246   */\n      dup3\n        /* \"#utility.yul\":1236:1255   */\n      mstore\n        /* \"#utility.yul\":1288:1292   */\n      0x20\n        /* \"#utility.yul\":1283:1286   */\n      dup3\n        /* \"#utility.yul\":1279:1293   */\n      add\n        /* \"#utility.yul\":1264:1293   */\n      swap1\n      pop\n        /* \"#utility.yul\":1130:1299   */\n      swap3\n      swap2\n      pop\n      pop\n      jump\t// out\n        /* \"#utility.yul\":1305:1551   */\n    tag_51:\n        /* \"#utility.yul\":1386:1387   */\n      0x00\n        /* \"#utility.yul\":1396:1509   */\n    tag_74:\n        /* \"#utility.yul\":1410:1416   */\n      dup4\n        /* \"#utility.yul\":1407:1408   */\n      dup2\n        /* \"#utility.yul\":1404:1417   */\n      lt\n        /* \"#utility.yul\":1396:1509   */\n      iszero\n      tag_76\n      jumpi\n        /* \"#utility.yul\":1495:1496   */\n      dup1\n        /* \"#utility.yul\":1490:1493   */\n      dup3\n        /* \"#utility.yul\":1486:1497   */\n      add\n        /* \"#utility.yul\":1480:1498   */\n      mload\n        /* \"#utility.yul\":1476:1477   */\n      dup2\n        /* \"#utility.yul\":1471:1474   */\n      dup5\n        /* \"#utility.yul\":1467:1478   */\n      add\n        /* \"#utility.yul\":1460:1499   */\n      mstore\n        /* \"#utility.yul\":1432:1434   */\n      0x20\n        /* \"#utility.yul\":1429:1430   */\n      dup2\n        /* \"#utility.yul\":1425:1435   */\n      add\n        /* \"#utility.yul\":1420:1435   */\n      swap1\n      pop\n        /* \"#utility.yul\":1396:1509   */\n      jump(tag_74)\n    tag_76:\n        /* \"#utility.yul\":1543:1544   */\n      0x00\n        /* \"#utility.yul\":1534:1540   */\n      dup5\n        /* \"#utility.yul\":1529:1532   */\n      dup5\n        /* \"#utility.yul\":1525:1541   */\n      add\n        /* \"#utility.yul\":1518:1545   */\n      mstore\n        /* \"#utility.yul\":1367:1551   */\n      pop\n        /* \"#utility.yul\":1305:1551   */\n      pop\n      pop\n      pop\n      jump\t// out\n        /* \"#utility.yul\":1557:1659   */\n    tag_52:\n        /* \"#utility.yul\":1598:1604   */\n      0x00\n        /* \"#utility.yul\":1649:1651   */\n      0x1f\n        /* \"#utility.yul\":1645:1652   */\n      not\n        /* \"#utility.yul\":1640:1642   */\n      0x1f\n        /* \"#utility.yul\":1633:1638   */\n      dup4\n        /* \"#utility.yul\":1629:1643   */\n      add\n        /* \"#utility.yul\":1625:1653   */\n      and\n        /* \"#utility.yul\":1615:1653   */\n      swap1\n      pop\n        /* \"#utility.yul\":1557:1659   */\n      swap2\n      swap1\n      pop\n      jump\t// out\n        /* \"#utility.yul\":1665:2042   */\n    tag_53:\n        /* \"#utility.yul\":1753:1756   */\n      0x00\n        /* \"#utility.yul\":1781:1820   */\n      tag_79\n        /* \"#utility.yul\":1814:1819   */\n      dup3\n        /* \"#utility.yul\":1781:1820   */\n      tag_49\n      jump\t// in\n    tag_79:\n        /* \"#utility.yul\":1836:1907   */\n      tag_80\n        /* \"#utility.yul\":1900:1906   */\n      dup2\n        /* \"#utility.yul\":1895:1898   */\n      dup6\n        /* \"#utility.yul\":1836:1907   */\n      tag_50\n      jump\t// in\n    tag_80:\n        /* \"#utility.yul\":1829:1907   */\n      swap4\n      pop\n        /* \"#utility.yul\":1916:1981   */\n      tag_81\n        /* \"#utility.yul\":1974:1980   */\n      dup2\n        /* \"#utility.yul\":1969:1972   */\n      dup6\n        /* \"#utility.yul\":1962:1966   */\n      0x20\n        /* \"#utility.yul\":1955:1960   */\n      dup7\n        /* \"#utility.yul\":1951:1967   */\n      add\n        /* \"#utility.yul\":1916:1981   */\n      tag_51\n      jump\t// in\n    tag_81:\n        /* \"#utility.yul\":2006:2035   */\n      tag_82\n        /* \"#utility.yul\":2028:2034   */\n      dup2\n        /* \"#utility.yul\":2006:2035   */\n      tag_52\n      jump\t// in\n    tag_82:\n        /* \"#utility.yul\":2001:2004   */\n      dup5\n        /* \"#utility.yul\":1997:2036   */\n      add\n        /* \"#utility.yul\":1990:2036   */\n      swap2\n      pop\n        /* \"#utility.yul\":1757:2042   */\n      pop\n        /* \"#utility.yul\":1665:2042   */\n      swap3\n      swap2\n      pop\n      pop\n      jump\t// out\n        /* \"#utility.yul\":2048:2361   */\n    tag_9:\n        /* \"#utility.yul\":2161:2165   */\n      0x00\n        /* \"#utility.yul\":2199:2201   */\n      0x20\n        /* \"#utility.yul\":2188:2197   */\n      dup3\n        /* \"#utility.yul\":2184:2202   */\n      add\n        /* \"#utility.yul\":2176:2202   */\n      swap1\n      pop\n        /* \"#utility.yul\":2248:2257   */\n      dup2\n        /* \"#utility.yul\":2242:2246   */\n      dup2\n        /* \"#utility.yul\":2238:2258   */\n      sub\n        /* \"#utility.yul\":2234:2235   */\n      0x00\n        /* \"#utility.yul\":2223:2232   */\n      dup4\n        /* \"#utility.yul\":2219:2236   */\n      add\n        /* \"#utility.yul\":2212:2259   */\n      mstore\n        /* \"#utility.yul\":2276:2354   */\n      tag_84\n        /* \"#utility.yul\":2349:2353   */\n      dup2\n        /* \"#utility.yul\":2340:2346   */\n      dup5\n        /* \"#utility.yul\":2276:2354   */\n      tag_53\n      jump\t// in\n    tag_84:\n        /* \"#utility.yul\":2268:2354   */\n      swap1\n      pop\n        /* \"#utility.yul\":2048:2361   */\n      swap3\n      swap2\n      pop\n      pop\n      jump\t// out\n        /* \"#utility.yul\":2367:2547   */\n    tag_54:\n        /* \"#utility.yul\":2415:2492   */\n      0x4e487b7100000000000000000000000000000000000000000000000000000000\n        /* \"#utility.yul\":2412:2413   */\n      0x00\n        /* \"#utility.yul\":2405:2493   */\n      mstore\n        /* \"#utility.yul\":2512:2516   */\n      0x12\n        /* \"#utility.yul\":2509:2510   */\n      0x04\n        /* \"#utility.yul\":2502:2517   */\n      mstore\n        /* \"#utility.yul\":2536:2540   */\n      0x24\n        /* \"#utility.yul\":2533:2534   */\n      0x00\n        /* \"#utility.yul\":2526:2541   */\n      revert\n        /* \"#utility.yul\":2553:2733   */\n    tag_55:\n        /* \"#utility.yul\":2601:2678   */\n      0x4e487b7100000000000000000000000000000000000000000000000000000000\n        /* \"#utility.yul\":2598:2599   */\n      0x00\n        /* \"#utility.yul\":2591:2679   */\n      mstore\n        /* \"#utility.yul\":2698:2702   */\n      0x11\n        /* \"#utility.yul\":2695:2696   */\n      0x04\n        /* \"#utility.yul\":2688:2703   */\n      mstore\n        /* \"#utility.yul\":2722:2726   */\n      0x24\n        /* \"#utility.yul\":2719:2720   */\n      0x00\n        /* \"#utility.yul\":2712:2727   */\n      revert\n        /* \"#utility.yul\":2739:2924   */\n    tag_19:\n        /* \"#utility.yul\":2779:2780   */\n      0x00\n        /* \"#utility.yul\":2796:2816   */\n      tag_88\n        /* \"#utility.yul\":2814:2815   */\n      dup3\n        /* \"#utility.yul\":2796:2816   */\n      tag_46\n      jump\t// in\n    tag_88:\n        /* \"#utility.yul\":2791:2816   */\n      swap2\n      pop\n        /* \"#utility.yul\":2830:2850   */\n      tag_89\n        /* \"#utility.yul\":2848:2849   */\n      dup4\n        /* \"#utility.yul\":2830:2850   */\n      tag_46\n      jump\t// in\n    tag_89:\n        /* \"#utility.yul\":2825:2850   */\n      swap3\n      pop\n        /* \"#utility.yul\":2869:2870   */\n      dup3\n        /* \"#utility.yul\":2859:2894   */\n      tag_90\n      jumpi\n        /* \"#utility.yul\":2874:2892   */\n      tag_91\n      tag_54\n      jump\t// in\n    tag_91:\n        /* \"#utility.yul\":2859:2894   */\n    tag_90:\n        /* \"#utility.yul\":2916:2917   */\n      dup3\n        /* \"#utility.yul\":2913:2914   */\n      dup3\n        /* \"#utility.yul\":2909:2918   */\n      div\n        /* \"#utility.yul\":2904:2918   */\n      swap1\n      pop\n        /* \"#utility.yul\":2739:2924   */\n      swap3\n      swap2\n      pop\n      pop\n      jump\t// out\n        /* \"#utility.yul\":2930:3006   */\n    tag_56:\n        /* \"#utility.yul\":2966:2973   */\n      0x00\n        /* \"#utility.yul\":2995:3000   */\n      dup2\n        /* \"#utility.yul\":2984:3000   */\n      swap1\n      pop\n        /* \"#utility.yul\":2930:3006   */\n      swap2\n      swap1\n      pop\n      jump\t// out\n        /* \"#utility.yul\":3012:3387   */\n    tag_21:\n        /* \"#utility.yul\":3051:3054   */\n      0x00\n        /* \"#utility.yul\":3070:3089   */\n      tag_94\n        /* \"#utility.yul\":3087:3088   */\n      dup3\n        /* \"#utility.yul\":3070:3089   */\n      tag_56\n      jump\t// in\n    tag_94:\n        /* \"#utility.yul\":3065:3089   */\n      swap2\n      pop\n        /* \"#utility.yul\":3103:3122   */\n      tag_95\n        /* \"#utility.yul\":3120:3121   */\n      dup4\n        /* \"#utility.yul\":3103:3122   */\n      tag_56\n      jump\t// in\n    tag_95:\n        /* \"#utility.yul\":3098:3122   */\n      swap3\n      pop\n        /* \"#utility.yul\":3145:3146   */\n      dup3\n        /* \"#utility.yul\":3142:3143   */\n      dup3\n        /* \"#utility.yul\":3138:3147   */\n      add\n        /* \"#utility.yul\":3131:3147   */\n      swap1\n      pop\n        /* \"#utility.yul\":3343:3344   */\n      dup3\n        /* \"#utility.yul\":3338:3341   */\n      dup2\n        /* \"#utility.yul\":3334:3345   */\n      slt\n        /* \"#utility.yul\":3327:3346   */\n      iszero\n        /* \"#utility.yul\":3323:3324   */\n      0x00\n        /* \"#utility.yul\":3320:3321   */\n      dup4\n        /* \"#utility.yul\":3316:3325   */\n      slt\n        /* \"#utility.yul\":3312:3347   */\n      and\n        /* \"#utility.yul\":3295:3296   */\n      dup4\n        /* \"#utility.yul\":3290:3293   */\n      dup3\n        /* \"#utility.yul\":3286:3297   */\n      slt\n        /* \"#utility.yul\":3281:3282   */\n      0x00\n        /* \"#utility.yul\":3278:3279   */\n      dup5\n        /* \"#utility.yul\":3274:3283   */\n      slt\n        /* \"#utility.yul\":3267:3284   */\n      iszero\n        /* \"#utility.yul\":3263:3298   */\n      and\n        /* \"#utility.yul\":3247:3357   */\n      or\n        /* \"#utility.yul\":3244:3380   */\n      iszero\n      tag_96\n      jumpi\n        /* \"#utility.yul\":3360:3378   */\n      tag_97\n      tag_55\n      jump\t// in\n    tag_97:\n        /* \"#utility.yul\":3244:3380   */\n    tag_96:\n        /* \"#utility.yul\":3012:3387   */\n      swap3\n      swap2\n      pop\n      pop\n      jump\t// out\n        /* \"#utility.yul\":3393:3765   */\n    tag_23:\n        /* \"#utility.yul\":3432:3436   */\n      0x00\n        /* \"#utility.yul\":3452:3471   */\n      tag_99\n        /* \"#utility.yul\":3469:3470   */\n      dup3\n        /* \"#utility.yul\":3452:3471   */\n      tag_56\n      jump\t// in\n    tag_99:\n        /* \"#utility.yul\":3447:3471   */\n      swap2\n      pop\n        /* \"#utility.yul\":3485:3504   */\n      tag_100\n        /* \"#utility.yul\":3502:3503   */\n      dup4\n        /* \"#utility.yul\":3485:3504   */\n      tag_56\n      jump\t// in\n    tag_100:\n        /* \"#utility.yul\":3480:3504   */\n      swap3\n      pop\n        /* \"#utility.yul\":3528:3529   */\n      dup3\n        /* \"#utility.yul\":3525:3526   */\n      dup3\n        /* \"#utility.yul\":3521:3530   */\n      sub\n        /* \"#utility.yul\":3513:3530   */\n      swap1\n      pop\n        /* \"#utility.yul\":3722:3723   */\n      dup2\n        /* \"#utility.yul\":3716:3720   */\n      dup2\n        /* \"#utility.yul\":3712:3724   */\n      slt\n        /* \"#utility.yul\":3708:3709   */\n      0x00\n        /* \"#utility.yul\":3705:3706   */\n      dup5\n        /* \"#utility.yul\":3701:3710   */\n      slt\n        /* \"#utility.yul\":3697:3725   */\n      and\n        /* \"#utility.yul\":3680:3681   */\n      dup3\n        /* \"#utility.yul\":3674:3678   */\n      dup3\n        /* \"#utility.yul\":3670:3682   */\n      sgt\n        /* \"#utility.yul\":3665:3666   */\n      0x00\n        /* \"#utility.yul\":3662:3663   */\n      dup6\n        /* \"#utility.yul\":3658:3667   */\n      slt\n        /* \"#utility.yul\":3651:3668   */\n      iszero\n        /* \"#utility.yul\":3647:3683   */\n      and\n        /* \"#utility.yul\":3631:3735   */\n      or\n        /* \"#utility.yul\":3628:3758   */\n      iszero\n      tag_101\n      jumpi\n        /* \"#utility.yul\":3738:3756   */\n      tag_102\n      tag_55\n      jump\t// in\n    tag_102:\n        /* \"#utility.yul\":3628:3758   */\n    tag_101:\n        /* \"#utility.yul\":3393:3765   */\n      swap3\n      swap2\n      pop\n      pop\n      jump\t// out\n        /* \"#utility.yul\":3771:3951   */\n    tag_26:\n        /* \"#utility.yul\":3819:3896   */\n      0x4e487b7100000000000000000000000000000000000000000000000000000000\n        /* \"#utility.yul\":3816:3817   */\n      0x00\n        /* \"#utility.yul\":3809:3897   */\n      mstore\n        /* \"#utility.yul\":3916:3920   */\n      0x41\n        /* \"#utility.yul\":3913:3914   */\n      0x04\n        /* \"#utility.yul\":3906:3921   */\n      mstore\n        /* \"#utility.yul\":3940:3944   */\n      0x24\n        /* \"#utility.yul\":3937:3938   */\n      0x00\n        /* \"#utility.yul\":3930:3945   */\n      revert\n        /* \"#utility.yul\":3957:4133   */\n    tag_31:\n        /* \"#utility.yul\":3989:3990   */\n      0x00\n        /* \"#utility.yul\":4006:4026   */\n      tag_105\n        /* \"#utility.yul\":4024:4025   */\n      dup3\n        /* \"#utility.yul\":4006:4026   */\n      tag_46\n      jump\t// in\n    tag_105:\n        /* \"#utility.yul\":4001:4026   */\n      swap2\n      pop\n        /* \"#utility.yul\":4040:4060   */\n      tag_106\n        /* \"#utility.yul\":4058:4059   */\n      dup4\n        /* \"#utility.yul\":4040:4060   */\n      tag_46\n      jump\t// in\n    tag_106:\n        /* \"#utility.yul\":4035:4060   */\n      swap3\n      pop\n        /* \"#utility.yul\":4079:4080   */\n      dup3\n        /* \"#utility.yul\":4069:4104   */\n      tag_107\n      jumpi\n        /* \"#utility.yul\":4084:4102   */\n      tag_108\n      tag_54\n      jump\t// in\n    tag_108:\n        /* \"#utility.yul\":4069:4104   */\n    tag_107:\n        /* \"#utility.yul\":4125:4126   */\n      dup3\n        /* \"#utility.yul\":4122:4123   */\n      dup3\n        /* \"#utility.yul\":4118:4127   */\n      mod\n        /* \"#utility.yul\":4113:4127   */\n      swap1\n      pop\n        /* \"#utility.yul\":3957:4133   */\n      swap3\n      swap2\n      pop\n      pop\n      jump\t// out\n        /* \"#utility.yul\":4139:4330   */\n    tag_33:\n        /* \"#utility.yul\":4179:4182   */\n      0x00\n        /* \"#utility.yul\":4198:4218   */\n      tag_110\n        /* \"#utility.yul\":4216:4217   */\n      dup3\n        /* \"#utility.yul\":4198:4218   */\n      tag_46\n      jump\t// in\n    tag_110:\n        /* \"#utility.yul\":4193:4218   */\n      swap2\n      pop\n        /* \"#utility.yul\":4232:4252   */\n      tag_111\n        /* \"#utility.yul\":4250:4251   */\n      dup4\n        /* \"#utility.yul\":4232:4252   */\n      tag_46\n      jump\t// in\n    tag_111:\n        /* \"#utility.yul\":4227:4252   */\n      swap3\n      pop\n        /* \"#utility.yul\":4275:4276   */\n      dup3\n        /* \"#utility.yul\":4272:4273   */\n      dup3\n        /* \"#utility.yul\":4268:4277   */\n      add\n        /* \"#utility.yul\":4261:4277   */\n      swap1\n      pop\n        /* \"#utility.yul\":4296:4299   */\n      dup1\n        /* \"#utility.yul\":4293:4294   */\n      dup3\n        /* \"#utility.yul\":4290:4300   */\n      gt\n        /* \"#utility.yul\":4287:4323   */\n      iszero\n      tag_112\n      jumpi\n        /* \"#utility.yul\":4303:4321   */\n      tag_113\n      tag_55\n      jump\t// in\n    tag_113:\n        /* \"#utility.yul\":4287:4323   */\n    tag_112:\n        /* \"#utility.yul\":4139:4330   */\n      swap3\n      swap2\n      pop\n      pop\n      jump\t// out\n        /* \"#utility.yul\":4336:4567   */\n    tag_35:\n        /* \"#utility.yul\":4374:4377   */\n      0x00\n        /* \"#utility.yul\":4397:4420   */\n      tag_115\n        /* \"#utility.yul\":4414:4419   */\n      dup3\n        /* \"#utility.yul\":4397:4420   */\n      tag_56\n      jump\t// in\n    tag_115:\n        /* \"#utility.yul\":4388:4420   */\n      swap2\n      pop\n        /* \"#utility.yul\":4442:4508   */\n      0x8000000000000000000000000000000000000000000000000000000000000000\n        /* \"#utility.yul\":4435:4440   */\n      dup3\n        /* \"#utility.yul\":4432:4509   */\n      sub\n        /* \"#utility.yul\":4429:4532   */\n      tag_116\n      jumpi\n        /* \"#utility.yul\":4512:4530   */\n      tag_117\n      tag_55\n      jump\t// in\n    tag_117:\n        /* \"#utility.yul\":4429:4532   */\n    tag_116:\n        /* \"#utility.yul\":4559:4560   */\n      0x01\n        /* \"#utility.yul\":4552:4557   */\n      dup3\n        /* \"#utility.yul\":4548:4561   */\n      sub\n        /* \"#utility.yul\":4541:4561   */\n      swap1\n      pop\n        /* \"#utility.yul\":4336:4567   */\n      swap2\n      swap1\n      pop\n      jump\t// out\n        /* \"#utility.yul\":4573:4753   */\n    tag_38:\n        /* \"#utility.yul\":4621:4698   */\n      0x4e487b7100000000000000000000000000000000000000000000000000000000\n        /* \"#utility.yul\":4618:4619   */\n      0x00\n        /* \"#utility.yul\":4611:4699   */\n      mstore\n        /* \"#utility.yul\":4718:4722   */\n      0x32\n        /* \"#utility.yul\":4715:4716   */\n      0x04\n        /* \"#utility.yul\":4708:4723   */\n      mstore\n        /* \"#utility.yul\":4742:4746   */\n      0x24\n        /* \"#utility.yul\":4739:4740   */\n      0x00\n        /* \"#utility.yul\":4732:4747   */\n      revert\n\n    auxdata: 0xa26469706673582212200ae1d2a738a110e24f7fd23a04d5e8d49d1afba19ef4e342df55c38cc38f57c664736f6c63430008120033\n}\n",
				"bytecode": {
					"linkReferences": {},
					"object": "608060405234801561001057600080fd5b506105a3806100206000396000f3fe6080604052600436106100295760003560e01c8063c88a37101461002e578063de2927891461005e575b600080fd5b61004860048036038101906100439190610263565b610089565b6040516100559190610320565b60405180910390f35b34801561006a57600080fd5b506100736101f9565b6040516100809190610320565b60405180910390f35b6060600082036100d0576040518060400160405280600181526020017f300000000000000000000000000000000000000000000000000000000000000081525090506101f4565b600082905060005b6000821461010357600a826100ed91906103a0565b91506001816100fc91906103db565b90506100d8565b6000600182610112919061041f565b905060008267ffffffffffffffff8111156101305761012f610462565b5b6040519080825280601f01601f1916602001820160405280156101625781602001600182028036833780820191505090505b5090505b600086146101ec57600a8661017b9190610491565b603061018791906104c2565b60f81b818380610196906104f6565b9450815181106101a9576101a861053e565b5b60200101907effffffffffffffffffffffffffffffffffffffffffffffffffffffffffffff1916908160001a905350600a866101e591906103a0565b9550610166565b809450505050505b919050565b60606000600a90506000607190506000818361021591906104c2565b905061022081610089565b935050505090565b600080fd5b6000819050919050565b6102408161022d565b811461024b57600080fd5b50565b60008135905061025d81610237565b92915050565b60006020828403121561027957610278610228565b5b60006102878482850161024e565b91505092915050565b600081519050919050565b600082825260208201905092915050565b60005b838110156102ca5780820151818401526020810190506102af565b60008484015250505050565b6000601f19601f8301169050919050565b60006102f282610290565b6102fc818561029b565b935061030c8185602086016102ac565b610315816102d6565b840191505092915050565b6000602082019050818103600083015261033a81846102e7565b905092915050565b7f4e487b7100000000000000000000000000000000000000000000000000000000600052601260045260246000fd5b7f4e487b7100000000000000000000000000000000000000000000000000000000600052601160045260246000fd5b60006103ab8261022d565b91506103b68361022d565b9250826103c6576103c5610342565b5b828204905092915050565b6000819050919050565b60006103e6826103d1565b91506103f1836103d1565b92508282019050828112156000831216838212600084121516171561041957610418610371565b5b92915050565b600061042a826103d1565b9150610435836103d1565b925082820390508181126000841216828213600085121516171561045c5761045b610371565b5b92915050565b7f4e487b7100000000000000000000000000000000000000000000000000000000600052604160045260246000fd5b600061049c8261022d565b91506104a78361022d565b9250826104b7576104b6610342565b5b828206905092915050565b60006104cd8261022d565b91506104d88361022d565b92508282019050808211156104f0576104ef610371565b5b92915050565b6000610501826103d1565b91507f8000000000000000000000000000000000000000000000000000000000000000820361053357610532610371565b5b600182039050919050565b7f4e487b7100000000000000000000000000000000000000000000000000000000600052603260045260246000fdfea26469706673582212200ae1d2a738a110e24f7fd23a04d5e8d49d1afba19ef4e342df55c38cc38f57c664736f6c63430008120033",
					"opcodes": "PUSH1 0x80 PUSH1 0x40 MSTORE CALLVALUE DUP1 ISZERO PUSH2 0x10 JUMPI PUSH1 0x0 DUP1 REVERT JUMPDEST POP PUSH2 0x5A3 DUP1 PUSH2 0x20 PUSH1 0x0 CODECOPY PUSH1 0x0 RETURN INVALID PUSH1 0x80 PUSH1 0x40 MSTORE PUSH1 0x4 CALLDATASIZE LT PUSH2 0x29 JUMPI PUSH1 0x0 CALLDATALOAD PUSH1 0xE0 SHR DUP1 PUSH4 0xC88A3710 EQ PUSH2 0x2E JUMPI DUP1 PUSH4 0xDE292789 EQ PUSH2 0x5E JUMPI JUMPDEST PUSH1 0x0 DUP1 REVERT JUMPDEST PUSH2 0x48 PUSH1 0x4 DUP1 CALLDATASIZE SUB DUP2 ADD SWAP1 PUSH2 0x43 SWAP2 SWAP1 PUSH2 0x263 JUMP JUMPDEST PUSH2 0x89 JUMP JUMPDEST PUSH1 0x40 MLOAD PUSH2 0x55 SWAP2 SWAP1 PUSH2 0x320 JUMP JUMPDEST PUSH1 0x40 MLOAD DUP1 SWAP2 SUB SWAP1 RETURN JUMPDEST CALLVALUE DUP1 ISZERO PUSH2 0x6A JUMPI PUSH1 0x0 DUP1 REVERT JUMPDEST POP PUSH2 0x73 PUSH2 0x1F9 JUMP JUMPDEST PUSH1 0x40 MLOAD PUSH2 0x80 SWAP2 SWAP1 PUSH2 0x320 JUMP JUMPDEST PUSH1 0x40 MLOAD DUP1 SWAP2 SUB SWAP1 RETURN JUMPDEST PUSH1 0x60 PUSH1 0x0 DUP3 SUB PUSH2 0xD0 JUMPI PUSH1 0x40 MLOAD DUP1 PUSH1 0x40 ADD PUSH1 0x40 MSTORE DUP1 PUSH1 0x1 DUP2 MSTORE PUSH1 0x20 ADD PUSH32 0x3000000000000000000000000000000000000000000000000000000000000000 DUP2 MSTORE POP SWAP1 POP PUSH2 0x1F4 JUMP JUMPDEST PUSH1 0x0 DUP3 SWAP1 POP PUSH1 0x0 JUMPDEST PUSH1 0x0 DUP3 EQ PUSH2 0x103 JUMPI PUSH1 0xA DUP3 PUSH2 0xED SWAP2 SWAP1 PUSH2 0x3A0 JUMP JUMPDEST SWAP2 POP PUSH1 0x1 DUP2 PUSH2 0xFC SWAP2 SWAP1 PUSH2 0x3DB JUMP JUMPDEST SWAP1 POP PUSH2 0xD8 JUMP JUMPDEST PUSH1 0x0 PUSH1 0x1 DUP3 PUSH2 0x112 SWAP2 SWAP1 PUSH2 0x41F JUMP JUMPDEST SWAP1 POP PUSH1 0x0 DUP3 PUSH8 0xFFFFFFFFFFFFFFFF DUP2 GT ISZERO PUSH2 0x130 JUMPI PUSH2 0x12F PUSH2 0x462 JUMP JUMPDEST JUMPDEST PUSH1 0x40 MLOAD SWAP1 DUP1 DUP3 MSTORE DUP1 PUSH1 0x1F ADD PUSH1 0x1F NOT AND PUSH1 0x20 ADD DUP3 ADD PUSH1 0x40 MSTORE DUP1 ISZERO PUSH2 0x162 JUMPI DUP2 PUSH1 0x20 ADD PUSH1 0x1 DUP3 MUL DUP1 CALLDATASIZE DUP4 CALLDATACOPY DUP1 DUP3 ADD SWAP2 POP POP SWAP1 POP JUMPDEST POP SWAP1 POP JUMPDEST PUSH1 0x0 DUP7 EQ PUSH2 0x1EC JUMPI PUSH1 0xA DUP7 PUSH2 0x17B SWAP2 SWAP1 PUSH2 0x491 JUMP JUMPDEST PUSH1 0x30 PUSH2 0x187 SWAP2 SWAP1 PUSH2 0x4C2 JUMP JUMPDEST PUSH1 0xF8 SHL DUP2 DUP4 DUP1 PUSH2 0x196 SWAP1 PUSH2 0x4F6 JUMP JUMPDEST SWAP5 POP DUP2 MLOAD DUP2 LT PUSH2 0x1A9 JUMPI PUSH2 0x1A8 PUSH2 0x53E JUMP JUMPDEST JUMPDEST PUSH1 0x20 ADD ADD SWAP1 PUSH31 0xFFFFFFFFFFFFFFFFFFFFFFFFFFFFFFFFFFFFFFFFFFFFFFFFFFFFFFFFFFFFFF NOT AND SWAP1 DUP2 PUSH1 0x0 BYTE SWAP1 MSTORE8 POP PUSH1 0xA DUP7 PUSH2 0x1E5 SWAP2 SWAP1 PUSH2 0x3A0 JUMP JUMPDEST SWAP6 POP PUSH2 0x166 JUMP JUMPDEST DUP1 SWAP5 POP POP POP POP POP JUMPDEST SWAP2 SWAP1 POP JUMP JUMPDEST PUSH1 0x60 PUSH1 0x0 PUSH1 0xA SWAP1 POP PUSH1 0x0 PUSH1 0x71 SWAP1 POP PUSH1 0x0 DUP2 DUP4 PUSH2 0x215 SWAP2 SWAP1 PUSH2 0x4C2 JUMP JUMPDEST SWAP1 POP PUSH2 0x220 DUP2 PUSH2 0x89 JUMP JUMPDEST SWAP4 POP POP POP POP SWAP1 JUMP JUMPDEST PUSH1 0x0 DUP1 REVERT JUMPDEST PUSH1 0x0 DUP2 SWAP1 POP SWAP2 SWAP1 POP JUMP JUMPDEST PUSH2 0x240 DUP2 PUSH2 0x22D JUMP JUMPDEST DUP2 EQ PUSH2 0x24B JUMPI PUSH1 0x0 DUP1 REVERT JUMPDEST POP JUMP JUMPDEST PUSH1 0x0 DUP2 CALLDATALOAD SWAP1 POP PUSH2 0x25D DUP2 PUSH2 0x237 JUMP JUMPDEST SWAP3 SWAP2 POP POP JUMP JUMPDEST PUSH1 0x0 PUSH1 0x20 DUP3 DUP5 SUB SLT ISZERO PUSH2 0x279 JUMPI PUSH2 0x278 PUSH2 0x228 JUMP JUMPDEST JUMPDEST PUSH1 0x0 PUSH2 0x287 DUP5 DUP3 DUP6 ADD PUSH2 0x24E JUMP JUMPDEST SWAP2 POP POP SWAP3 SWAP2 POP POP JUMP JUMPDEST PUSH1 0x0 DUP2 MLOAD SWAP1 POP SWAP2 SWAP1 POP JUMP JUMPDEST PUSH1 0x0 DUP3 DUP3 MSTORE PUSH1 0x20 DUP3 ADD SWAP1 POP SWAP3 SWAP2 POP POP JUMP JUMPDEST PUSH1 0x0 JUMPDEST DUP4 DUP2 LT ISZERO PUSH2 0x2CA JUMPI DUP1 DUP3 ADD MLOAD DUP2 DUP5 ADD MSTORE PUSH1 0x20 DUP2 ADD SWAP1 POP PUSH2 0x2AF JUMP JUMPDEST PUSH1 0x0 DUP5 DUP5 ADD MSTORE POP POP POP POP JUMP JUMPDEST PUSH1 0x0 PUSH1 0x1F NOT PUSH1 0x1F DUP4 ADD AND SWAP1 POP SWAP2 SWAP1 POP JUMP JUMPDEST PUSH1 0x0 PUSH2 0x2F2 DUP3 PUSH2 0x290 JUMP JUMPDEST PUSH2 0x2FC DUP2 DUP6 PUSH2 0x29B JUMP JUMPDEST SWAP4 POP PUSH2 0x30C DUP2 DUP6 PUSH1 0x20 DUP7 ADD PUSH2 0x2AC JUMP JUMPDEST PUSH2 0x315 DUP2 PUSH2 0x2D6 JUMP JUMPDEST DUP5 ADD SWAP2 POP POP SWAP3 SWAP2 POP POP JUMP JUMPDEST PUSH1 0x0 PUSH1 0x20 DUP3 ADD SWAP1 POP DUP2 DUP2 SUB PUSH1 0x0 DUP4 ADD MSTORE PUSH2 0x33A DUP2 DUP5 PUSH2 0x2E7 JUMP JUMPDEST SWAP1 POP SWAP3 SWAP2 POP POP JUMP JUMPDEST PUSH32 0x4E487B7100000000000000000000000000000000000000000000000000000000 PUSH1 0x0 MSTORE PUSH1 0x12 PUSH1 0x4 MSTORE PUSH1 0x24 PUSH1 0x0 REVERT JUMPDEST PUSH32 0x4E487B7100000000000000000000000000000000000000000000000000000000 PUSH1 0x0 MSTORE PUSH1 0x11 PUSH1 0x4 MSTORE PUSH1 0x24 PUSH1 0x0 REVERT JUMPDEST PUSH1 0x0 PUSH2 0x3AB DUP3 PUSH2 0x22D JUMP JUMPDEST SWAP2 POP PUSH2 0x3B6 DUP4 PUSH2 0x22D JUMP JUMPDEST SWAP3 POP DUP3 PUSH2 0x3C6 JUMPI PUSH2 0x3C5 PUSH2 0x342 JUMP JUMPDEST JUMPDEST DUP3 DUP3 DIV SWAP1 POP SWAP3 SWAP2 POP POP JUMP JUMPDEST PUSH1 0x0 DUP2 SWAP1 POP SWAP2 SWAP1 POP JUMP JUMPDEST PUSH1 0x0 PUSH2 0x3E6 DUP3 PUSH2 0x3D1 JUMP JUMPDEST SWAP2 POP PUSH2 0x3F1 DUP4 PUSH2 0x3D1 JUMP JUMPDEST SWAP3 POP DUP3 DUP3 ADD SWAP1 POP DUP3 DUP2 SLT ISZERO PUSH1 0x0 DUP4 SLT AND DUP4 DUP3 SLT PUSH1 0x0 DUP5 SLT ISZERO AND OR ISZERO PUSH2 0x419 JUMPI PUSH2 0x418 PUSH2 0x371 JUMP JUMPDEST JUMPDEST SWAP3 SWAP2 POP POP JUMP JUMPDEST PUSH1 0x0 PUSH2 0x42A DUP3 PUSH2 0x3D1 JUMP JUMPDEST SWAP2 POP PUSH2 0x435 DUP4 PUSH2 0x3D1 JUMP JUMPDEST SWAP3 POP DUP3 DUP3 SUB SWAP1 POP DUP2 DUP2 SLT PUSH1 0x0 DUP5 SLT AND DUP3 DUP3 SGT PUSH1 0x0 DUP6 SLT ISZERO AND OR ISZERO PUSH2 0x45C JUMPI PUSH2 0x45B PUSH2 0x371 JUMP JUMPDEST JUMPDEST SWAP3 SWAP2 POP POP JUMP JUMPDEST PUSH32 0x4E487B7100000000000000000000000000000000000000000000000000000000 PUSH1 0x0 MSTORE PUSH1 0x41 PUSH1 0x4 MSTORE PUSH1 0x24 PUSH1 0x0 REVERT JUMPDEST PUSH1 0x0 PUSH2 0x49C DUP3 PUSH2 0x22D JUMP JUMPDEST SWAP2 POP PUSH2 0x4A7 DUP4 PUSH2 0x22D JUMP JUMPDEST SWAP3 POP DUP3 PUSH2 0x4B7 JUMPI PUSH2 0x4B6 PUSH2 0x342 JUMP JUMPDEST JUMPDEST DUP3 DUP3 MOD SWAP1 POP SWAP3 SWAP2 POP POP JUMP JUMPDEST PUSH1 0x0 PUSH2 0x4CD DUP3 PUSH2 0x22D JUMP JUMPDEST SWAP2 POP PUSH2 0x4D8 DUP4 PUSH2 0x22D JUMP JUMPDEST SWAP3 POP DUP3 DUP3 ADD SWAP1 POP DUP1 DUP3 GT ISZERO PUSH2 0x4F0 JUMPI PUSH2 0x4EF PUSH2 0x371 JUMP JUMPDEST JUMPDEST SWAP3 SWAP2 POP POP JUMP JUMPDEST PUSH1 0x0 PUSH2 0x501 DUP3 PUSH2 0x3D1 JUMP JUMPDEST SWAP2 POP PUSH32 0x8000000000000000000000000000000000000000000000000000000000000000 DUP3 SUB PUSH2 0x533 JUMPI PUSH2 0x532 PUSH2 0x371 JUMP JUMPDEST JUMPDEST PUSH1 0x1 DUP3 SUB SWAP1 POP SWAP2 SWAP1 POP JUMP JUMPDEST PUSH32 0x4E487B7100000000000000000000000000000000000000000000000000000000 PUSH1 0x0 MSTORE PUSH1 0x32 PUSH1 0x4 MSTORE PUSH1 0x24 PUSH1 0x0 REVERT INVALID LOG2 PUSH5 0x6970667358 0x22 SLT KECCAK256 EXP 0xE1 0xD2 0xA7 CODESIZE LOG1 LT 0xE2 0x4F PUSH32 0xD23A04D5E8D49D1AFBA19EF4E342DF55C38CC38F57C664736F6C634300081200 CALLER "
				},
				"gasEstimates": {
					"creation": {
						"codeDepositCost": "288600",
						"executionCost": "331",
						"totalCost": "288931"
					},
					"external": {
						"getResult()": "infinite",
						"integerToString(uint256)": "infinite"
					}
				},
				"methodIdentifiers": {
					"getResult()": "de292789",
					"integerToString(uint256)": "c88a3710"
				}
			},
			"storageLayout": {
				"storage": [],
				"types": null
			},
			"userdoc": {
				"kind": "user",
				"methods": {},
				"version": 1
			}
		}
	}
}