{
	"practical11a.sol": {
		"E": {
			"abi": [
				{
					"inputs": [],
					"stateMutability": "nonpayable",
					"type": "constructor"
				},
				{
					"inputs": [],
					"name": "getComputedResult",
					"outputs": [
						{
							"internalType": "uint256",
							"name": "",
							"type": "uint256"
						}
					],
					"stateMutability": "nonpayable",
					"type": "function"
				},
				{
					"inputs": [],
					"name": "getInfo",
					"outputs": [
						{
							"internalType": "uint256",
							"name": "",
							"type": "uint256"
						}
					],
					"stateMutability": "view",
					"type": "function"
				},
				{
					"inputs": [],
					"name": "getResult",
					"outputs": [
						{
							"internalType": "uint256",
							"name": "",
							"type": "uint256"
						}
					],
					"stateMutability": "view",
					"type": "function"
				}
			],
			"devdoc": {
				"kind": "dev",
				"methods": {},
				"version": 1
			},
			"evm": {
				"assembly": "    /* \"practical11a.sol\":633:1030  contract E {... */\n  mstore(0x40, 0x80)\n    /* \"practical11a.sol\":688:730  constructor() {... */\n  callvalue\n  dup1\n  iszero\n  tag_1\n  jumpi\n  0x00\n  dup1\n  revert\ntag_1:\n  pop\n    /* \"practical11a.sol\":716:723  new C() */\n  mload(0x40)\n  tag_4\n  swap1\n  tag_5\n  jump\t// in\ntag_4:\n  mload(0x40)\n  dup1\n  swap2\n  sub\n  swap1\n  0x00\n  create\n  dup1\n  iszero\n  dup1\n  iszero\n  tag_6\n  jumpi\n  returndatasize\n  0x00\n  dup1\n  returndatacopy\n  revert(0x00, returndatasize)\ntag_6:\n  pop\n    /* \"practical11a.sol\":712:713  c */\n  0x00\n  dup1\n    /* \"practical11a.sol\":712:723  c = new C() */\n  0x0100\n  exp\n  dup2\n  sload\n  dup2\n  0xffffffffffffffffffffffffffffffffffffffff\n  mul\n  not\n  and\n  swap1\n  dup4\n  0xffffffffffffffffffffffffffffffffffffffff\n  and\n  mul\n  or\n  swap1\n  sstore\n  pop\n    /* \"practical11a.sol\":633:1030  contract E {... */\n  jump(tag_7)\ntag_5:\n  dataSize(sub_1)\n  dup1\n  dataOffset(sub_1)\n  dup4\n  codecopy\n  add\n  swap1\n  jump\t// out\ntag_7:\n  dataSize(sub_0)\n  dup1\n  dataOffset(sub_0)\n  0x00\n  codecopy\n  0x00\n  return\nstop\n\nsub_0: assembly {\n        /* \"practical11a.sol\":633:1030  contract E {... */\n      mstore(0x40, 0x80)\n      callvalue\n      dup1\n      iszero\n      tag_1\n      jumpi\n      0x00\n      dup1\n      revert\n    tag_1:\n      pop\n      jumpi(tag_2, lt(calldatasize, 0x04))\n      shr(0xe0, calldataload(0x00))\n      dup1\n      0x43eea6e9\n      eq\n      tag_3\n      jumpi\n      dup1\n      0x5a9b0b89\n      eq\n      tag_4\n      jumpi\n      dup1\n      0xde292789\n      eq\n      tag_5\n      jumpi\n    tag_2:\n      0x00\n      dup1\n      revert\n        /* \"practical11a.sol\":736:854  function getComputedResult() public returns (uint256) {... */\n    tag_3:\n      tag_6\n      tag_7\n      jump\t// in\n    tag_6:\n      mload(0x40)\n      tag_8\n      swap2\n      swap1\n      tag_9\n      jump\t// in\n    tag_8:\n      mload(0x40)\n      dup1\n      swap2\n      sub\n      swap1\n      return\n        /* \"practical11a.sol\":947:1028  function getInfo() view public returns (uint256) {... */\n    tag_4:\n      tag_10\n      tag_11\n      jump\t// in\n    tag_10:\n      mload(0x40)\n      tag_12\n      swap2\n      swap1\n      tag_9\n      jump\t// in\n    tag_12:\n      mload(0x40)\n      dup1\n      swap2\n      sub\n      swap1\n      return\n        /* \"practical11a.sol\":860:941  function getResult() public view returns (uint256) {... */\n    tag_5:\n      tag_13\n      tag_14\n      jump\t// in\n    tag_13:\n      mload(0x40)\n      tag_15\n      swap2\n      swap1\n      tag_9\n      jump\t// in\n    tag_15:\n      mload(0x40)\n      dup1\n      swap2\n      sub\n      swap1\n      return\n        /* \"practical11a.sol\":736:854  function getComputedResult() public returns (uint256) {... */\n    tag_7:\n        /* \"practical11a.sol\":781:788  uint256 */\n      0x00\n        /* \"practical11a.sol\":809:810  c */\n      dup1\n      0x00\n      swap1\n      sload\n      swap1\n      0x0100\n      exp\n      swap1\n      div\n      0xffffffffffffffffffffffffffffffffffffffff\n      and\n        /* \"practical11a.sol\":809:818  c.compute */\n      0xffffffffffffffffffffffffffffffffffffffff\n      and\n      0x7a85644b\n        /* \"practical11a.sol\":819:820  5 */\n      0x05\n        /* \"practical11a.sol\":822:823  3 */\n      0x03\n        /* \"practical11a.sol\":809:824  c.compute(5, 3) */\n      mload(0x40)\n      dup4\n      0xffffffff\n      and\n      0xe0\n      shl\n      dup2\n      mstore\n      0x04\n      add\n      tag_17\n      swap3\n      swap2\n      swap1\n      tag_18\n      jump\t// in\n    tag_17:\n      0x20\n      mload(0x40)\n      dup1\n      dup4\n      sub\n      dup2\n      dup7\n      gas\n      staticcall\n      iszero\n      dup1\n      iszero\n      tag_20\n      jumpi\n      returndatasize\n      0x00\n      dup1\n      returndatacopy\n      revert(0x00, returndatasize)\n    tag_20:\n      pop\n      pop\n      pop\n      pop\n      mload(0x40)\n      returndatasize\n      not(0x1f)\n      0x1f\n      dup3\n      add\n      and\n      dup3\n      add\n      dup1\n      0x40\n      mstore\n      pop\n      dup2\n      add\n      swap1\n      tag_21\n      swap2\n      swap1\n      tag_22\n      jump\t// in\n    tag_21:\n        /* \"practical11a.sol\":800:806  result */\n      0x01\n        /* \"practical11a.sol\":800:824  result = c.compute(5, 3) */\n      dup2\n      swap1\n      sstore\n      pop\n        /* \"practical11a.sol\":841:847  result */\n      sload(0x01)\n        /* \"practical11a.sol\":834:847  return result */\n      swap1\n      pop\n        /* \"practical11a.sol\":736:854  function getComputedResult() public returns (uint256) {... */\n      swap1\n      jump\t// out\n        /* \"practical11a.sol\":947:1028  function getInfo() view public returns (uint256) {... */\n    tag_11:\n        /* \"practical11a.sol\":987:994  uint256 */\n      0x00\n        /* \"practical11a.sol\":1013:1014  c */\n      dup1\n      0x00\n      swap1\n      sload\n      swap1\n      0x0100\n      exp\n      swap1\n      div\n      0xffffffffffffffffffffffffffffffffffffffff\n      and\n        /* \"practical11a.sol\":1013:1019  c.info */\n      0xffffffffffffffffffffffffffffffffffffffff\n      and\n      0x370158ea\n        /* \"practical11a.sol\":1013:1021  c.info() */\n      mload(0x40)\n      dup2\n      0xffffffff\n      and\n      0xe0\n      shl\n      dup2\n      mstore\n      0x04\n      add\n      0x20\n      mload(0x40)\n      dup1\n      dup4\n      sub\n      dup2\n      dup7\n      gas\n      staticcall\n      iszero\n      dup1\n      iszero\n      tag_25\n      jumpi\n      returndatasize\n      0x00\n      dup1\n      returndatacopy\n      revert(0x00, returndatasize)\n    tag_25:\n      pop\n      pop\n      pop\n      pop\n      mload(0x40)\n      returndatasize\n      not(0x1f)\n      0x1f\n      dup3\n      add\n      and\n      dup3\n      add\n      dup1\n      0x40\n      mstore\n      pop\n      dup2\n      add\n      swap1\n      tag_26\n      swap2\n      swap1\n      tag_22\n      jump\t// in\n    tag_26:\n        /* \"practical11a.sol\":1006:1021  return c.info() */\n      swap1\n      pop\n        /* \"practical11a.sol\":947:1028  function getInfo() view public returns (uint256) {... */\n      swap1\n      jump\t// out\n        /* \"practical11a.sol\":860:941  function getResult() public view returns (uint256) {... */\n    tag_14:\n        /* \"practical11a.sol\":902:909  uint256 */\n      0x00\n        /* \"practical11a.sol\":928:934  result */\n      sload(0x01)\n        /* \"practical11a.sol\":921:934  return result */\n      swap1\n      pop\n        /* \"practical11a.sol\":860:941  function getResult() public view returns (uint256) {... */\n      swap1\n      jump\t// out\n        /* \"#utility.yul\":7:84   */\n    tag_28:\n        /* \"#utility.yul\":44:51   */\n      0x00\n        /* \"#utility.yul\":73:78   */\n      dup2\n        /* \"#utility.yul\":62:78   */\n      swap1\n      pop\n        /* \"#utility.yul\":7:84   */\n      swap2\n      swap1\n      pop\n      jump\t// out\n        /* \"#utility.yul\":90:208   */\n    tag_29:\n        /* \"#utility.yul\":177:201   */\n      tag_45\n        /* \"#utility.yul\":195:200   */\n      dup2\n        /* \"#utility.yul\":177:201   */\n      tag_28\n      jump\t// in\n    tag_45:\n        /* \"#utility.yul\":172:175   */\n      dup3\n        /* \"#utility.yul\":165:202   */\n      mstore\n        /* \"#utility.yul\":90:208   */\n      pop\n      pop\n      jump\t// out\n        /* \"#utility.yul\":214:436   */\n    tag_9:\n        /* \"#utility.yul\":307:311   */\n      0x00\n        /* \"#utility.yul\":345:347   */\n      0x20\n        /* \"#utility.yul\":334:343   */\n      dup3\n        /* \"#utility.yul\":330:348   */\n      add\n        /* \"#utility.yul\":322:348   */\n      swap1\n      pop\n        /* \"#utility.yul\":358:429   */\n      tag_47\n        /* \"#utility.yul\":426:427   */\n      0x00\n        /* \"#utility.yul\":415:424   */\n      dup4\n        /* \"#utility.yul\":411:428   */\n      add\n        /* \"#utility.yul\":402:408   */\n      dup5\n        /* \"#utility.yul\":358:429   */\n      tag_29\n      jump\t// in\n    tag_47:\n        /* \"#utility.yul\":214:436   */\n      swap3\n      swap2\n      pop\n      pop\n      jump\t// out\n        /* \"#utility.yul\":442:527   */\n    tag_30:\n        /* \"#utility.yul\":487:494   */\n      0x00\n        /* \"#utility.yul\":516:521   */\n      dup2\n        /* \"#utility.yul\":505:521   */\n      swap1\n      pop\n        /* \"#utility.yul\":442:527   */\n      swap2\n      swap1\n      pop\n      jump\t// out\n        /* \"#utility.yul\":533:593   */\n    tag_31:\n        /* \"#utility.yul\":561:564   */\n      0x00\n        /* \"#utility.yul\":582:587   */\n      dup2\n        /* \"#utility.yul\":575:587   */\n      swap1\n      pop\n        /* \"#utility.yul\":533:593   */\n      swap2\n      swap1\n      pop\n      jump\t// out\n        /* \"#utility.yul\":599:757   */\n    tag_32:\n        /* \"#utility.yul\":657:666   */\n      0x00\n        /* \"#utility.yul\":690:751   */\n      tag_51\n        /* \"#utility.yul\":708:750   */\n      tag_52\n        /* \"#utility.yul\":717:749   */\n      tag_53\n        /* \"#utility.yul\":743:748   */\n      dup5\n        /* \"#utility.yul\":717:749   */\n      tag_30\n      jump\t// in\n    tag_53:\n        /* \"#utility.yul\":708:750   */\n      tag_31\n      jump\t// in\n    tag_52:\n        /* \"#utility.yul\":690:751   */\n      tag_28\n      jump\t// in\n    tag_51:\n        /* \"#utility.yul\":677:751   */\n      swap1\n      pop\n        /* \"#utility.yul\":599:757   */\n      swap2\n      swap1\n      pop\n      jump\t// out\n        /* \"#utility.yul\":763:910   */\n    tag_33:\n        /* \"#utility.yul\":858:903   */\n      tag_55\n        /* \"#utility.yul\":897:902   */\n      dup2\n        /* \"#utility.yul\":858:903   */\n      tag_32\n      jump\t// in\n    tag_55:\n        /* \"#utility.yul\":853:856   */\n      dup3\n        /* \"#utility.yul\":846:904   */\n      mstore\n        /* \"#utility.yul\":763:910   */\n      pop\n      pop\n      jump\t// out\n        /* \"#utility.yul\":916:1001   */\n    tag_34:\n        /* \"#utility.yul\":961:968   */\n      0x00\n        /* \"#utility.yul\":990:995   */\n      dup2\n        /* \"#utility.yul\":979:995   */\n      swap1\n      pop\n        /* \"#utility.yul\":916:1001   */\n      swap2\n      swap1\n      pop\n      jump\t// out\n        /* \"#utility.yul\":1007:1165   */\n    tag_35:\n        /* \"#utility.yul\":1065:1074   */\n      0x00\n        /* \"#utility.yul\":1098:1159   */\n      tag_58\n        /* \"#utility.yul\":1116:1158   */\n      tag_59\n        /* \"#utility.yul\":1125:1157   */\n      tag_60\n        /* \"#utility.yul\":1151:1156   */\n      dup5\n        /* \"#utility.yul\":1125:1157   */\n      tag_34\n      jump\t// in\n    tag_60:\n        /* \"#utility.yul\":1116:1158   */\n      tag_31\n      jump\t// in\n    tag_59:\n        /* \"#utility.yul\":1098:1159   */\n      tag_28\n      jump\t// in\n    tag_58:\n        /* \"#utility.yul\":1085:1159   */\n      swap1\n      pop\n        /* \"#utility.yul\":1007:1165   */\n      swap2\n      swap1\n      pop\n      jump\t// out\n        /* \"#utility.yul\":1171:1318   */\n    tag_36:\n        /* \"#utility.yul\":1266:1311   */\n      tag_62\n        /* \"#utility.yul\":1305:1310   */\n      dup2\n        /* \"#utility.yul\":1266:1311   */\n      tag_35\n      jump\t// in\n    tag_62:\n        /* \"#utility.yul\":1261:1264   */\n      dup3\n        /* \"#utility.yul\":1254:1312   */\n      mstore\n        /* \"#utility.yul\":1171:1318   */\n      pop\n      pop\n      jump\t// out\n        /* \"#utility.yul\":1324:1688   */\n    tag_18:\n        /* \"#utility.yul\":1461:1465   */\n      0x00\n        /* \"#utility.yul\":1499:1501   */\n      0x40\n        /* \"#utility.yul\":1488:1497   */\n      dup3\n        /* \"#utility.yul\":1484:1502   */\n      add\n        /* \"#utility.yul\":1476:1502   */\n      swap1\n      pop\n        /* \"#utility.yul\":1512:1591   */\n      tag_64\n        /* \"#utility.yul\":1588:1589   */\n      0x00\n        /* \"#utility.yul\":1577:1586   */\n      dup4\n        /* \"#utility.yul\":1573:1590   */\n      add\n        /* \"#utility.yul\":1564:1570   */\n      dup6\n        /* \"#utility.yul\":1512:1591   */\n      tag_33\n      jump\t// in\n    tag_64:\n        /* \"#utility.yul\":1601:1681   */\n      tag_65\n        /* \"#utility.yul\":1677:1679   */\n      0x20\n        /* \"#utility.yul\":1666:1675   */\n      dup4\n        /* \"#utility.yul\":1662:1680   */\n      add\n        /* \"#utility.yul\":1653:1659   */\n      dup5\n        /* \"#utility.yul\":1601:1681   */\n      tag_36\n      jump\t// in\n    tag_65:\n        /* \"#utility.yul\":1324:1688   */\n      swap4\n      swap3\n      pop\n      pop\n      pop\n      jump\t// out\n        /* \"#utility.yul\":1775:1892   */\n    tag_38:\n        /* \"#utility.yul\":1884:1885   */\n      0x00\n        /* \"#utility.yul\":1881:1882   */\n      dup1\n        /* \"#utility.yul\":1874:1886   */\n      revert\n        /* \"#utility.yul\":2021:2143   */\n    tag_40:\n        /* \"#utility.yul\":2094:2118   */\n      tag_70\n        /* \"#utility.yul\":2112:2117   */\n      dup2\n        /* \"#utility.yul\":2094:2118   */\n      tag_28\n      jump\t// in\n    tag_70:\n        /* \"#utility.yul\":2087:2092   */\n      dup2\n        /* \"#utility.yul\":2084:2119   */\n      eq\n        /* \"#utility.yul\":2074:2137   */\n      tag_71\n      jumpi\n        /* \"#utility.yul\":2133:2134   */\n      0x00\n        /* \"#utility.yul\":2130:2131   */\n      dup1\n        /* \"#utility.yul\":2123:2135   */\n      revert\n        /* \"#utility.yul\":2074:2137   */\n    tag_71:\n        /* \"#utility.yul\":2021:2143   */\n      pop\n      jump\t// out\n        /* \"#utility.yul\":2149:2292   */\n    tag_41:\n        /* \"#utility.yul\":2206:2211   */\n      0x00\n        /* \"#utility.yul\":2237:2243   */\n      dup2\n        /* \"#utility.yul\":2231:2244   */\n      mload\n        /* \"#utility.yul\":2222:2244   */\n      swap1\n      pop\n        /* \"#utility.yul\":2253:2286   */\n      tag_73\n        /* \"#utility.yul\":2280:2285   */\n      dup2\n        /* \"#utility.yul\":2253:2286   */\n      tag_40\n      jump\t// in\n    tag_73:\n        /* \"#utility.yul\":2149:2292   */\n      swap3\n      swap2\n      pop\n      pop\n      jump\t// out\n        /* \"#utility.yul\":2298:2649   */\n    tag_22:\n        /* \"#utility.yul\":2368:2374   */\n      0x00\n        /* \"#utility.yul\":2417:2419   */\n      0x20\n        /* \"#utility.yul\":2405:2414   */\n      dup3\n        /* \"#utility.yul\":2396:2403   */\n      dup5\n        /* \"#utility.yul\":2392:2415   */\n      sub\n        /* \"#utility.yul\":2388:2420   */\n      slt\n        /* \"#utility.yul\":2385:2504   */\n      iszero\n      tag_75\n      jumpi\n        /* \"#utility.yul\":2423:2502   */\n      tag_76\n      tag_38\n      jump\t// in\n    tag_76:\n        /* \"#utility.yul\":2385:2504   */\n    tag_75:\n        /* \"#utility.yul\":2543:2544   */\n      0x00\n        /* \"#utility.yul\":2568:2632   */\n      tag_77\n        /* \"#utility.yul\":2624:2631   */\n      dup5\n        /* \"#utility.yul\":2615:2621   */\n      dup3\n        /* \"#utility.yul\":2604:2613   */\n      dup6\n        /* \"#utility.yul\":2600:2622   */\n      add\n        /* \"#utility.yul\":2568:2632   */\n      tag_41\n      jump\t// in\n    tag_77:\n        /* \"#utility.yul\":2558:2632   */\n      swap2\n      pop\n        /* \"#utility.yul\":2514:2642   */\n      pop\n        /* \"#utility.yul\":2298:2649   */\n      swap3\n      swap2\n      pop\n      pop\n      jump\t// out\n\n    auxdata: 0xa2646970667358221220f847f82f64160d324839c5c1d1a01b525b732b65dd1c45d3f68c06df2af4466f64736f6c63430008120033\n}\n\nsub_1: assembly {\n        /* \"practical11a.sol\":171:631  contract C {... */\n      mstore(0x40, 0x80)\n        /* \"practical11a.sol\":240:280  constructor() {... */\n      callvalue\n      dup1\n      iszero\n      tag_1\n      jumpi\n      0x00\n      dup1\n      revert\n    tag_1:\n      pop\n        /* \"practical11a.sol\":271:273  10 */\n      0x0a\n        /* \"practical11a.sol\":264:268  info */\n      0x01\n        /* \"practical11a.sol\":264:273  info = 10 */\n      dup2\n      swap1\n      sstore\n      pop\n        /* \"practical11a.sol\":171:631  contract C {... */\n      dataSize(sub_0)\n      dup1\n      dataOffset(sub_0)\n      0x00\n      codecopy\n      0x00\n      return\n    stop\n\n    sub_0: assembly {\n            /* \"practical11a.sol\":171:631  contract C {... */\n          mstore(0x40, 0x80)\n          callvalue\n          dup1\n          iszero\n          tag_1\n          jumpi\n          0x00\n          dup1\n          revert\n        tag_1:\n          pop\n          jumpi(tag_2, lt(calldatasize, 0x04))\n          shr(0xe0, calldataload(0x00))\n          dup1\n          0x370158ea\n          eq\n          tag_3\n          jumpi\n          dup1\n          0x3bc5de30\n          eq\n          tag_4\n          jumpi\n          dup1\n          0x5b4b73a9\n          eq\n          tag_5\n          jumpi\n          dup1\n          0x7a85644b\n          eq\n          tag_6\n          jumpi\n          dup1\n          0x7cf5dab0\n          eq\n          tag_7\n          jumpi\n        tag_2:\n          0x00\n          dup1\n          revert\n            /* \"practical11a.sol\":214:233  uint256 public info */\n        tag_3:\n          tag_8\n          tag_9\n          jump\t// in\n        tag_8:\n          mload(0x40)\n          tag_10\n          swap2\n          swap1\n          tag_11\n          jump\t// in\n        tag_10:\n          mload(0x40)\n          dup1\n          swap2\n          sub\n          swap1\n          return\n            /* \"practical11a.sol\":381:459  function getData() virtual public returns(uint256){... */\n        tag_4:\n          tag_12\n          tag_13\n          jump\t// in\n        tag_12:\n          mload(0x40)\n          tag_14\n          swap2\n          swap1\n          tag_11\n          jump\t// in\n        tag_14:\n          mload(0x40)\n          dup1\n          swap2\n          sub\n          swap1\n          return\n            /* \"practical11a.sol\":465:525  function setData(uint256 a) public {... */\n        tag_5:\n          tag_15\n          0x04\n          dup1\n          calldatasize\n          sub\n          dup2\n          add\n          swap1\n          tag_16\n          swap2\n          swap1\n          tag_17\n          jump\t// in\n        tag_16:\n          tag_18\n          jump\t// in\n        tag_15:\n          stop\n            /* \"practical11a.sol\":531:629  function compute(uint256 a, uint256 b) pure public returns (uint256) {... */\n        tag_6:\n          tag_19\n          0x04\n          dup1\n          calldatasize\n          sub\n          dup2\n          add\n          swap1\n          tag_20\n          swap2\n          swap1\n          tag_21\n          jump\t// in\n        tag_20:\n          tag_22\n          jump\t// in\n        tag_19:\n          mload(0x40)\n          tag_23\n          swap2\n          swap1\n          tag_11\n          jump\t// in\n        tag_23:\n          mload(0x40)\n          dup1\n          swap2\n          sub\n          swap1\n          return\n            /* \"practical11a.sol\":286:375  function increment(uint256 a) public pure returns (uint256) {... */\n        tag_7:\n          tag_24\n          0x04\n          dup1\n          calldatasize\n          sub\n          dup2\n          add\n          swap1\n          tag_25\n          swap2\n          swap1\n          tag_17\n          jump\t// in\n        tag_25:\n          tag_26\n          jump\t// in\n        tag_24:\n          mload(0x40)\n          tag_27\n          swap2\n          swap1\n          tag_11\n          jump\t// in\n        tag_27:\n          mload(0x40)\n          dup1\n          swap2\n          sub\n          swap1\n          return\n            /* \"practical11a.sol\":214:233  uint256 public info */\n        tag_9:\n          sload(0x01)\n          dup2\n          jump\t// out\n            /* \"practical11a.sol\":381:459  function getData() virtual public returns(uint256){... */\n        tag_13:\n            /* \"practical11a.sol\":423:430  uint256 */\n          0x00\n            /* \"practical11a.sol\":448:452  data */\n          dup1\n          sload\n            /* \"practical11a.sol\":441:452  return data */\n          swap1\n          pop\n            /* \"practical11a.sol\":381:459  function getData() virtual public returns(uint256){... */\n          swap1\n          jump\t// out\n            /* \"practical11a.sol\":465:525  function setData(uint256 a) public {... */\n        tag_18:\n            /* \"practical11a.sol\":517:518  a */\n          dup1\n            /* \"practical11a.sol\":510:514  data */\n          0x00\n            /* \"practical11a.sol\":510:518  data = a */\n          dup2\n          swap1\n          sstore\n          pop\n            /* \"practical11a.sol\":465:525  function setData(uint256 a) public {... */\n          pop\n          jump\t// out\n            /* \"practical11a.sol\":531:629  function compute(uint256 a, uint256 b) pure public returns (uint256) {... */\n        tag_22:\n            /* \"practical11a.sol\":591:598  uint256 */\n          0x00\n            /* \"practical11a.sol\":621:622  b */\n          dup2\n            /* \"practical11a.sol\":617:618  a */\n          dup4\n            /* \"practical11a.sol\":617:622  a + b */\n          tag_31\n          swap2\n          swap1\n          tag_32\n          jump\t// in\n        tag_31:\n            /* \"practical11a.sol\":610:622  return a + b */\n          swap1\n          pop\n            /* \"practical11a.sol\":531:629  function compute(uint256 a, uint256 b) pure public returns (uint256) {... */\n          swap3\n          swap2\n          pop\n          pop\n          jump\t// out\n            /* \"practical11a.sol\":286:375  function increment(uint256 a) public pure returns (uint256) {... */\n        tag_26:\n            /* \"practical11a.sol\":337:344  uint256 */\n          0x00\n            /* \"practical11a.sol\":367:368  1 */\n          0x01\n            /* \"practical11a.sol\":363:364  a */\n          dup3\n            /* \"practical11a.sol\":363:368  a + 1 */\n          tag_34\n          swap2\n          swap1\n          tag_32\n          jump\t// in\n        tag_34:\n            /* \"practical11a.sol\":356:368  return a + 1 */\n          swap1\n          pop\n            /* \"practical11a.sol\":286:375  function increment(uint256 a) public pure returns (uint256) {... */\n          swap2\n          swap1\n          pop\n          jump\t// out\n            /* \"#utility.yul\":7:84   */\n        tag_35:\n            /* \"#utility.yul\":44:51   */\n          0x00\n            /* \"#utility.yul\":73:78   */\n          dup2\n            /* \"#utility.yul\":62:78   */\n          swap1\n          pop\n            /* \"#utility.yul\":7:84   */\n          swap2\n          swap1\n          pop\n          jump\t// out\n            /* \"#utility.yul\":90:208   */\n        tag_36:\n            /* \"#utility.yul\":177:201   */\n          tag_46\n            /* \"#utility.yul\":195:200   */\n          dup2\n            /* \"#utility.yul\":177:201   */\n          tag_35\n          jump\t// in\n        tag_46:\n            /* \"#utility.yul\":172:175   */\n          dup3\n            /* \"#utility.yul\":165:202   */\n          mstore\n            /* \"#utility.yul\":90:208   */\n          pop\n          pop\n          jump\t// out\n            /* \"#utility.yul\":214:436   */\n        tag_11:\n            /* \"#utility.yul\":307:311   */\n          0x00\n            /* \"#utility.yul\":345:347   */\n          0x20\n            /* \"#utility.yul\":334:343   */\n          dup3\n            /* \"#utility.yul\":330:348   */\n          add\n            /* \"#utility.yul\":322:348   */\n          swap1\n          pop\n            /* \"#utility.yul\":358:429   */\n          tag_48\n            /* \"#utility.yul\":426:427   */\n          0x00\n            /* \"#utility.yul\":415:424   */\n          dup4\n            /* \"#utility.yul\":411:428   */\n          add\n            /* \"#utility.yul\":402:408   */\n          dup5\n            /* \"#utility.yul\":358:429   */\n          tag_36\n          jump\t// in\n        tag_48:\n            /* \"#utility.yul\":214:436   */\n          swap3\n          swap2\n          pop\n          pop\n          jump\t// out\n            /* \"#utility.yul\":523:640   */\n        tag_38:\n            /* \"#utility.yul\":632:633   */\n          0x00\n            /* \"#utility.yul\":629:630   */\n          dup1\n            /* \"#utility.yul\":622:634   */\n          revert\n            /* \"#utility.yul\":769:891   */\n        tag_40:\n            /* \"#utility.yul\":842:866   */\n          tag_53\n            /* \"#utility.yul\":860:865   */\n          dup2\n            /* \"#utility.yul\":842:866   */\n          tag_35\n          jump\t// in\n        tag_53:\n            /* \"#utility.yul\":835:840   */\n          dup2\n            /* \"#utility.yul\":832:867   */\n          eq\n            /* \"#utility.yul\":822:885   */\n          tag_54\n          jumpi\n            /* \"#utility.yul\":881:882   */\n          0x00\n            /* \"#utility.yul\":878:879   */\n          dup1\n            /* \"#utility.yul\":871:883   */\n          revert\n            /* \"#utility.yul\":822:885   */\n        tag_54:\n            /* \"#utility.yul\":769:891   */\n          pop\n          jump\t// out\n            /* \"#utility.yul\":897:1036   */\n        tag_41:\n            /* \"#utility.yul\":943:948   */\n          0x00\n            /* \"#utility.yul\":981:987   */\n          dup2\n            /* \"#utility.yul\":968:988   */\n          calldataload\n            /* \"#utility.yul\":959:988   */\n          swap1\n          pop\n            /* \"#utility.yul\":997:1030   */\n          tag_56\n            /* \"#utility.yul\":1024:1029   */\n          dup2\n            /* \"#utility.yul\":997:1030   */\n          tag_40\n          jump\t// in\n        tag_56:\n            /* \"#utility.yul\":897:1036   */\n          swap3\n          swap2\n          pop\n          pop\n          jump\t// out\n            /* \"#utility.yul\":1042:1371   */\n        tag_17:\n            /* \"#utility.yul\":1101:1107   */\n          0x00\n            /* \"#utility.yul\":1150:1152   */\n          0x20\n            /* \"#utility.yul\":1138:1147   */\n          dup3\n            /* \"#utility.yul\":1129:1136   */\n          dup5\n            /* \"#utility.yul\":1125:1148   */\n          sub\n            /* \"#utility.yul\":1121:1153   */\n          slt\n            /* \"#utility.yul\":1118:1237   */\n          iszero\n          tag_58\n          jumpi\n            /* \"#utility.yul\":1156:1235   */\n          tag_59\n          tag_38\n          jump\t// in\n        tag_59:\n            /* \"#utility.yul\":1118:1237   */\n        tag_58:\n            /* \"#utility.yul\":1276:1277   */\n          0x00\n            /* \"#utility.yul\":1301:1354   */\n          tag_60\n            /* \"#utility.yul\":1346:1353   */\n          dup5\n            /* \"#utility.yul\":1337:1343   */\n          dup3\n            /* \"#utility.yul\":1326:1335   */\n          dup6\n            /* \"#utility.yul\":1322:1344   */\n          add\n            /* \"#utility.yul\":1301:1354   */\n          tag_41\n          jump\t// in\n        tag_60:\n            /* \"#utility.yul\":1291:1354   */\n          swap2\n          pop\n            /* \"#utility.yul\":1247:1364   */\n          pop\n            /* \"#utility.yul\":1042:1371   */\n          swap3\n          swap2\n          pop\n          pop\n          jump\t// out\n            /* \"#utility.yul\":1377:1851   */\n        tag_21:\n            /* \"#utility.yul\":1445:1451   */\n          0x00\n            /* \"#utility.yul\":1453:1459   */\n          dup1\n            /* \"#utility.yul\":1502:1504   */\n          0x40\n            /* \"#utility.yul\":1490:1499   */\n          dup4\n            /* \"#utility.yul\":1481:1488   */\n          dup6\n            /* \"#utility.yul\":1477:1500   */\n          sub\n            /* \"#utility.yul\":1473:1505   */\n          slt\n            /* \"#utility.yul\":1470:1589   */\n          iszero\n          tag_62\n          jumpi\n            /* \"#utility.yul\":1508:1587   */\n          tag_63\n          tag_38\n          jump\t// in\n        tag_63:\n            /* \"#utility.yul\":1470:1589   */\n        tag_62:\n            /* \"#utility.yul\":1628:1629   */\n          0x00\n            /* \"#utility.yul\":1653:1706   */\n          tag_64\n            /* \"#utility.yul\":1698:1705   */\n          dup6\n            /* \"#utility.yul\":1689:1695   */\n          dup3\n            /* \"#utility.yul\":1678:1687   */\n          dup7\n            /* \"#utility.yul\":1674:1696   */\n          add\n            /* \"#utility.yul\":1653:1706   */\n          tag_41\n          jump\t// in\n        tag_64:\n            /* \"#utility.yul\":1643:1706   */\n          swap3\n          pop\n            /* \"#utility.yul\":1599:1716   */\n          pop\n            /* \"#utility.yul\":1755:1757   */\n          0x20\n            /* \"#utility.yul\":1781:1834   */\n          tag_65\n            /* \"#utility.yul\":1826:1833   */\n          dup6\n            /* \"#utility.yul\":1817:1823   */\n          dup3\n            /* \"#utility.yul\":1806:1815   */\n          dup7\n            /* \"#utility.yul\":1802:1824   */\n          add\n            /* \"#utility.yul\":1781:1834   */\n          tag_41\n          jump\t// in\n        tag_65:\n            /* \"#utility.yul\":1771:1834   */\n          swap2\n          pop\n            /* \"#utility.yul\":1726:1844   */\n          pop\n            /* \"#utility.yul\":1377:1851   */\n          swap3\n          pop\n          swap3\n          swap1\n          pop\n          jump\t// out\n            /* \"#utility.yul\":1857:2037   */\n        tag_42:\n            /* \"#utility.yul\":1905:1982   */\n          0x4e487b7100000000000000000000000000000000000000000000000000000000\n            /* \"#utility.yul\":1902:1903   */\n          0x00\n            /* \"#utility.yul\":1895:1983   */\n          mstore\n            /* \"#utility.yul\":2002:2006   */\n          0x11\n            /* \"#utility.yul\":1999:2000   */\n          0x04\n            /* \"#utility.yul\":1992:2007   */\n          mstore\n            /* \"#utility.yul\":2026:2030   */\n          0x24\n            /* \"#utility.yul\":2023:2024   */\n          0x00\n            /* \"#utility.yul\":2016:2031   */\n          revert\n            /* \"#utility.yul\":2043:2234   */\n        tag_32:\n            /* \"#utility.yul\":2083:2086   */\n          0x00\n            /* \"#utility.yul\":2102:2122   */\n          tag_68\n            /* \"#utility.yul\":2120:2121   */\n          dup3\n            /* \"#utility.yul\":2102:2122   */\n          tag_35\n          jump\t// in\n        tag_68:\n            /* \"#utility.yul\":2097:2122   */\n          swap2\n          pop\n            /* \"#utility.yul\":2136:2156   */\n          tag_69\n            /* \"#utility.yul\":2154:2155   */\n          dup4\n            /* \"#utility.yul\":2136:2156   */\n          tag_35\n          jump\t// in\n        tag_69:\n            /* \"#utility.yul\":2131:2156   */\n          swap3\n          pop\n            /* \"#utility.yul\":2179:2180   */\n          dup3\n            /* \"#utility.yul\":2176:2177   */\n          dup3\n            /* \"#utility.yul\":2172:2181   */\n          add\n            /* \"#utility.yul\":2165:2181   */\n          swap1\n          pop\n            /* \"#utility.yul\":2200:2203   */\n          dup1\n            /* \"#utility.yul\":2197:2198   */\n          dup3\n            /* \"#utility.yul\":2194:2204   */\n          gt\n            /* \"#utility.yul\":2191:2227   */\n          iszero\n          tag_70\n          jumpi\n            /* \"#utility.yul\":2207:2225   */\n          tag_71\n          tag_42\n          jump\t// in\n        tag_71:\n            /* \"#utility.yul\":2191:2227   */\n        tag_70:\n            /* \"#utility.yul\":2043:2234   */\n          swap3\n          swap2\n          pop\n          pop\n          jump\t// out\n\n        auxdata: 0xa264697066735822122040fa0726042878fcfa8596f7a9afac29298bd0ff740f7aeac949d6df0f9e851164736f6c63430008120033\n    }\n}\n",
				"bytecode": {
					"linkReferences": {},
					"object": "608060405234801561001057600080fd5b5060405161001d9061007e565b604051809103906000f080158015610039573d6000803e3d6000fd5b506000806101000a81548173ffffffffffffffffffffffffffffffffffffffff021916908373ffffffffffffffffffffffffffffffffffffffff16021790555061008b565b6102ec806103fb83390190565b6103618061009a6000396000f3fe608060405234801561001057600080fd5b50600436106100415760003560e01c806343eea6e9146100465780635a9b0b8914610064578063de29278914610082575b600080fd5b61004e6100a0565b60405161005b9190610209565b60405180910390f35b61006c61014f565b6040516100799190610209565b60405180910390f35b61008a6101e6565b6040516100979190610209565b60405180910390f35b60008060009054906101000a900473ffffffffffffffffffffffffffffffffffffffff1673ffffffffffffffffffffffffffffffffffffffff16637a85644b600560036040518363ffffffff1660e01b81526004016101009291906102a4565b602060405180830381865afa15801561011d573d6000803e3d6000fd5b505050506040513d601f19601f8201168201806040525081019061014191906102fe565b600181905550600154905090565b60008060009054906101000a900473ffffffffffffffffffffffffffffffffffffffff1673ffffffffffffffffffffffffffffffffffffffff1663370158ea6040518163ffffffff1660e01b8152600401602060405180830381865afa1580156101bd573d6000803e3d6000fd5b505050506040513d601f19601f820116820180604052508101906101e191906102fe565b905090565b6000600154905090565b6000819050919050565b610203816101f0565b82525050565b600060208201905061021e60008301846101fa565b92915050565b6000819050919050565b6000819050919050565b600061025361024e61024984610224565b61022e565b6101f0565b9050919050565b61026381610238565b82525050565b6000819050919050565b600061028e61028961028484610269565b61022e565b6101f0565b9050919050565b61029e81610273565b82525050565b60006040820190506102b9600083018561025a565b6102c66020830184610295565b9392505050565b600080fd5b6102db816101f0565b81146102e657600080fd5b50565b6000815190506102f8816102d2565b92915050565b600060208284031215610314576103136102cd565b5b6000610322848285016102e9565b9150509291505056fea2646970667358221220f847f82f64160d324839c5c1d1a01b525b732b65dd1c45d3f68c06df2af4466f64736f6c63430008120033608060405234801561001057600080fd5b50600a6001819055506102c4806100286000396000f3fe608060405234801561001057600080fd5b50600436106100575760003560e01c8063370158ea1461005c5780633bc5de301461007a5780635b4b73a9146100985780637a85644b146100b45780637cf5dab0146100e4575b600080fd5b610064610114565b6040516100719190610172565b60405180910390f35b61008261011a565b60405161008f9190610172565b60405180910390f35b6100b260048036038101906100ad91906101be565b610123565b005b6100ce60048036038101906100c991906101eb565b61012d565b6040516100db9190610172565b60405180910390f35b6100fe60048036038101906100f991906101be565b610143565b60405161010b9190610172565b60405180910390f35b60015481565b60008054905090565b8060008190555050565b6000818361013b919061025a565b905092915050565b6000600182610152919061025a565b9050919050565b6000819050919050565b61016c81610159565b82525050565b60006020820190506101876000830184610163565b92915050565b600080fd5b61019b81610159565b81146101a657600080fd5b50565b6000813590506101b881610192565b92915050565b6000602082840312156101d4576101d361018d565b5b60006101e2848285016101a9565b91505092915050565b600080604083850312156102025761020161018d565b5b6000610210858286016101a9565b9250506020610221858286016101a9565b9150509250929050565b7f4e487b7100000000000000000000000000000000000000000000000000000000600052601160045260246000fd5b600061026582610159565b915061027083610159565b92508282019050808211156102885761028761022b565b5b9291505056fea264697066735822122040fa0726042878fcfa8596f7a9afac29298bd0ff740f7aeac949d6df0f9e851164736f6c63430008120033",
					"opcodes": "PUSH1 0x80 PUSH1 0x40 MSTORE CALLVALUE DUP1 ISZERO PUSH2 0x10 JUMPI PUSH1 0x0 DUP1 REVERT JUMPDEST POP PUSH1 0x40 MLOAD PUSH2 0x1D SWAP1 PUSH2 0x7E JUMP JUMPDEST PUSH1 0x40 MLOAD DUP1 SWAP2 SUB SWAP1 PUSH1 0x0 CREATE DUP1 ISZERO DUP1 ISZERO PUSH2 0x39 JUMPI RETURNDATASIZE PUSH1 0x0 DUP1 RETURNDATACOPY RETURNDATASIZE PUSH1 0x0 REVERT JUMPDEST POP PUSH1 0x0 DUP1 PUSH2 0x100 EXP DUP2 SLOAD DUP2 PUSH20 0xFFFFFFFFFFFFFFFFFFFFFFFFFFFFFFFFFFFFFFFF MUL NOT AND SWAP1 DUP4 PUSH20 0xFFFFFFFFFFFFFFFFFFFFFFFFFFFFFFFFFFFFFFFF AND MUL OR SWAP1 SSTORE POP PUSH2 0x8B JUMP JUMPDEST PUSH2 0x2EC DUP1 PUSH2 0x3FB DUP4 CODECOPY ADD SWAP1 JUMP JUMPDEST PUSH2 0x361 DUP1 PUSH2 0x9A PUSH1 0x0 CODECOPY PUSH1 0x0 RETURN INVALID PUSH1 0x80 PUSH1 0x40 MSTORE CALLVALUE DUP1 ISZERO PUSH2 0x10 JUMPI PUSH1 0x0 DUP1 REVERT JUMPDEST POP PUSH1 0x4 CALLDATASIZE LT PUSH2 0x41 JUMPI PUSH1 0x0 CALLDATALOAD PUSH1 0xE0 SHR DUP1 PUSH4 0x43EEA6E9 EQ PUSH2 0x46 JUMPI DUP1 PUSH4 0x5A9B0B89 EQ PUSH2 0x64 JUMPI DUP1 PUSH4 0xDE292789 EQ PUSH2 0x82 JUMPI JUMPDEST PUSH1 0x0 DUP1 REVERT JUMPDEST PUSH2 0x4E PUSH2 0xA0 JUMP JUMPDEST PUSH1 0x40 MLOAD PUSH2 0x5B SWAP2 SWAP1 PUSH2 0x209 JUMP JUMPDEST PUSH1 0x40 MLOAD DUP1 SWAP2 SUB SWAP1 RETURN JUMPDEST PUSH2 0x6C PUSH2 0x14F JUMP JUMPDEST PUSH1 0x40 MLOAD PUSH2 0x79 SWAP2 SWAP1 PUSH2 0x209 JUMP JUMPDEST PUSH1 0x40 MLOAD DUP1 SWAP2 SUB SWAP1 RETURN JUMPDEST PUSH2 0x8A PUSH2 0x1E6 JUMP JUMPDEST PUSH1 0x40 MLOAD PUSH2 0x97 SWAP2 SWAP1 PUSH2 0x209 JUMP JUMPDEST PUSH1 0x40 MLOAD DUP1 SWAP2 SUB SWAP1 RETURN JUMPDEST PUSH1 0x0 DUP1 PUSH1 0x0 SWAP1 SLOAD SWAP1 PUSH2 0x100 EXP SWAP1 DIV PUSH20 0xFFFFFFFFFFFFFFFFFFFFFFFFFFFFFFFFFFFFFFFF AND PUSH20 0xFFFFFFFFFFFFFFFFFFFFFFFFFFFFFFFFFFFFFFFF AND PUSH4 0x7A85644B PUSH1 0x5 PUSH1 0x3 PUSH1 0x40 MLOAD DUP4 PUSH4 0xFFFFFFFF AND PUSH1 0xE0 SHL DUP2 MSTORE PUSH1 0x4 ADD PUSH2 0x100 SWAP3 SWAP2 SWAP1 PUSH2 0x2A4 JUMP JUMPDEST PUSH1 0x20 PUSH1 0x40 MLOAD DUP1 DUP4 SUB DUP2 DUP7 GAS STATICCALL ISZERO DUP1 ISZERO PUSH2 0x11D JUMPI RETURNDATASIZE PUSH1 0x0 DUP1 RETURNDATACOPY RETURNDATASIZE PUSH1 0x0 REVERT JUMPDEST POP POP POP POP PUSH1 0x40 MLOAD RETURNDATASIZE PUSH1 0x1F NOT PUSH1 0x1F DUP3 ADD AND DUP3 ADD DUP1 PUSH1 0x40 MSTORE POP DUP2 ADD SWAP1 PUSH2 0x141 SWAP2 SWAP1 PUSH2 0x2FE JUMP JUMPDEST PUSH1 0x1 DUP2 SWAP1 SSTORE POP PUSH1 0x1 SLOAD SWAP1 POP SWAP1 JUMP JUMPDEST PUSH1 0x0 DUP1 PUSH1 0x0 SWAP1 SLOAD SWAP1 PUSH2 0x100 EXP SWAP1 DIV PUSH20 0xFFFFFFFFFFFFFFFFFFFFFFFFFFFFFFFFFFFFFFFF AND PUSH20 0xFFFFFFFFFFFFFFFFFFFFFFFFFFFFFFFFFFFFFFFF AND PUSH4 0x370158EA PUSH1 0x40 MLOAD DUP2 PUSH4 0xFFFFFFFF AND PUSH1 0xE0 SHL DUP2 MSTORE PUSH1 0x4 ADD PUSH1 0x20 PUSH1 0x40 MLOAD DUP1 DUP4 SUB DUP2 DUP7 GAS STATICCALL ISZERO DUP1 ISZERO PUSH2 0x1BD JUMPI RETURNDATASIZE PUSH1 0x0 DUP1 RETURNDATACOPY RETURNDATASIZE PUSH1 0x0 REVERT JUMPDEST POP POP POP POP PUSH1 0x40 MLOAD RETURNDATASIZE PUSH1 0x1F NOT PUSH1 0x1F DUP3 ADD AND DUP3 ADD DUP1 PUSH1 0x40 MSTORE POP DUP2 ADD SWAP1 PUSH2 0x1E1 SWAP2 SWAP1 PUSH2 0x2FE JUMP JUMPDEST SWAP1 POP SWAP1 JUMP JUMPDEST PUSH1 0x0 PUSH1 0x1 SLOAD SWAP1 POP SWAP1 JUMP JUMPDEST PUSH1 0x0 DUP2 SWAP1 POP SWAP2 SWAP1 POP JUMP JUMPDEST PUSH2 0x203 DUP2 PUSH2 0x1F0 JUMP JUMPDEST DUP3 MSTORE POP POP JUMP JUMPDEST PUSH1 0x0 PUSH1 0x20 DUP3 ADD SWAP1 POP PUSH2 0x21E PUSH1 0x0 DUP4 ADD DUP5 PUSH2 0x1FA JUMP JUMPDEST SWAP3 SWAP2 POP POP JUMP JUMPDEST PUSH1 0x0 DUP2 SWAP1 POP SWAP2 SWAP1 POP JUMP JUMPDEST PUSH1 0x0 DUP2 SWAP1 POP SWAP2 SWAP1 POP JUMP JUMPDEST PUSH1 0x0 PUSH2 0x253 PUSH2 0x24E PUSH2 0x249 DUP5 PUSH2 0x224 JUMP JUMPDEST PUSH2 0x22E JUMP JUMPDEST PUSH2 0x1F0 JUMP JUMPDEST SWAP1 POP SWAP2 SWAP1 POP JUMP JUMPDEST PUSH2 0x263 DUP2 PUSH2 0x238 JUMP JUMPDEST DUP3 MSTORE POP POP JUMP JUMPDEST PUSH1 0x0 DUP2 SWAP1 POP SWAP2 SWAP1 POP JUMP JUMPDEST PUSH1 0x0 PUSH2 0x28E PUSH2 0x289 PUSH2 0x284 DUP5 PUSH2 0x269 JUMP JUMPDEST PUSH2 0x22E JUMP JUMPDEST PUSH2 0x1F0 JUMP JUMPDEST SWAP1 POP SWAP2 SWAP1 POP JUMP JUMPDEST PUSH2 0x29E DUP2 PUSH2 0x273 JUMP JUMPDEST DUP3 MSTORE POP POP JUMP JUMPDEST PUSH1 0x0 PUSH1 0x40 DUP3 ADD SWAP1 POP PUSH2 0x2B9 PUSH1 0x0 DUP4 ADD DUP6 PUSH2 0x25A JUMP JUMPDEST PUSH2 0x2C6 PUSH1 0x20 DUP4 ADD DUP5 PUSH2 0x295 JUMP JUMPDEST SWAP4 SWAP3 POP POP POP JUMP JUMPDEST PUSH1 0x0 DUP1 REVERT JUMPDEST PUSH2 0x2DB DUP2 PUSH2 0x1F0 JUMP JUMPDEST DUP2 EQ PUSH2 0x2E6 JUMPI PUSH1 0x0 DUP1 REVERT JUMPDEST POP JUMP JUMPDEST PUSH1 0x0 DUP2 MLOAD SWAP1 POP PUSH2 0x2F8 DUP2 PUSH2 0x2D2 JUMP JUMPDEST SWAP3 SWAP2 POP POP JUMP JUMPDEST PUSH1 0x0 PUSH1 0x20 DUP3 DUP5 SUB SLT ISZERO PUSH2 0x314 JUMPI PUSH2 0x313 PUSH2 0x2CD JUMP JUMPDEST JUMPDEST PUSH1 0x0 PUSH2 0x322 DUP5 DUP3 DUP6 ADD PUSH2 0x2E9 JUMP JUMPDEST SWAP2 POP POP SWAP3 SWAP2 POP POP JUMP INVALID LOG2 PUSH5 0x6970667358 0x22 SLT KECCAK256 0xF8 SELFBALANCE 0xF8 0x2F PUSH5 0x160D324839 0xC5 0xC1 0xD1 LOG0 SHL MSTORE JUMPDEST PUSH20 0x2B65DD1C45D3F68C06DF2AF4466F64736F6C6343 STOP ADDMOD SLT STOP CALLER PUSH1 0x80 PUSH1 0x40 MSTORE CALLVALUE DUP1 ISZERO PUSH2 0x10 JUMPI PUSH1 0x0 DUP1 REVERT JUMPDEST POP PUSH1 0xA PUSH1 0x1 DUP2 SWAP1 SSTORE POP PUSH2 0x2C4 DUP1 PUSH2 0x28 PUSH1 0x0 CODECOPY PUSH1 0x0 RETURN INVALID PUSH1 0x80 PUSH1 0x40 MSTORE CALLVALUE DUP1 ISZERO PUSH2 0x10 JUMPI PUSH1 0x0 DUP1 REVERT JUMPDEST POP PUSH1 0x4 CALLDATASIZE LT PUSH2 0x57 JUMPI PUSH1 0x0 CALLDATALOAD PUSH1 0xE0 SHR DUP1 PUSH4 0x370158EA EQ PUSH2 0x5C JUMPI DUP1 PUSH4 0x3BC5DE30 EQ PUSH2 0x7A JUMPI DUP1 PUSH4 0x5B4B73A9 EQ PUSH2 0x98 JUMPI DUP1 PUSH4 0x7A85644B EQ PUSH2 0xB4 JUMPI DUP1 PUSH4 0x7CF5DAB0 EQ PUSH2 0xE4 JUMPI JUMPDEST PUSH1 0x0 DUP1 REVERT JUMPDEST PUSH2 0x64 PUSH2 0x114 JUMP JUMPDEST PUSH1 0x40 MLOAD PUSH2 0x71 SWAP2 SWAP1 PUSH2 0x172 JUMP JUMPDEST PUSH1 0x40 MLOAD DUP1 SWAP2 SUB SWAP1 RETURN JUMPDEST PUSH2 0x82 PUSH2 0x11A JUMP JUMPDEST PUSH1 0x40 MLOAD PUSH2 0x8F SWAP2 SWAP1 PUSH2 0x172 JUMP JUMPDEST PUSH1 0x40 MLOAD DUP1 SWAP2 SUB SWAP1 RETURN JUMPDEST PUSH2 0xB2 PUSH1 0x4 DUP1 CALLDATASIZE SUB DUP2 ADD SWAP1 PUSH2 0xAD SWAP2 SWAP1 PUSH2 0x1BE JUMP JUMPDEST PUSH2 0x123 JUMP JUMPDEST STOP JUMPDEST PUSH2 0xCE PUSH1 0x4 DUP1 CALLDATASIZE SUB DUP2 ADD SWAP1 PUSH2 0xC9 SWAP2 SWAP1 PUSH2 0x1EB JUMP JUMPDEST PUSH2 0x12D JUMP JUMPDEST PUSH1 0x40 MLOAD PUSH2 0xDB SWAP2 SWAP1 PUSH2 0x172 JUMP JUMPDEST PUSH1 0x40 MLOAD DUP1 SWAP2 SUB SWAP1 RETURN JUMPDEST PUSH2 0xFE PUSH1 0x4 DUP1 CALLDATASIZE SUB DUP2 ADD SWAP1 PUSH2 0xF9 SWAP2 SWAP1 PUSH2 0x1BE JUMP JUMPDEST PUSH2 0x143 JUMP JUMPDEST PUSH1 0x40 MLOAD PUSH2 0x10B SWAP2 SWAP1 PUSH2 0x172 JUMP JUMPDEST PUSH1 0x40 MLOAD DUP1 SWAP2 SUB SWAP1 RETURN JUMPDEST PUSH1 0x1 SLOAD DUP2 JUMP JUMPDEST PUSH1 0x0 DUP1 SLOAD SWAP1 POP SWAP1 JUMP JUMPDEST DUP1 PUSH1 0x0 DUP2 SWAP1 SSTORE POP POP JUMP JUMPDEST PUSH1 0x0 DUP2 DUP4 PUSH2 0x13B SWAP2 SWAP1 PUSH2 0x25A JUMP JUMPDEST SWAP1 POP SWAP3 SWAP2 POP POP JUMP JUMPDEST PUSH1 0x0 PUSH1 0x1 DUP3 PUSH2 0x152 SWAP2 SWAP1 PUSH2 0x25A JUMP JUMPDEST SWAP1 POP SWAP2 SWAP1 POP JUMP JUMPDEST PUSH1 0x0 DUP2 SWAP1 POP SWAP2 SWAP1 POP JUMP JUMPDEST PUSH2 0x16C DUP2 PUSH2 0x159 JUMP JUMPDEST DUP3 MSTORE POP POP JUMP JUMPDEST PUSH1 0x0 PUSH1 0x20 DUP3 ADD SWAP1 POP PUSH2 0x187 PUSH1 0x0 DUP4 ADD DUP5 PUSH2 0x163 JUMP JUMPDEST SWAP3 SWAP2 POP POP JUMP JUMPDEST PUSH1 0x0 DUP1 REVERT JUMPDEST PUSH2 0x19B DUP2 PUSH2 0x159 JUMP JUMPDEST DUP2 EQ PUSH2 0x1A6 JUMPI PUSH1 0x0 DUP1 REVERT JUMPDEST POP JUMP JUMPDEST PUSH1 0x0 DUP2 CALLDATALOAD SWAP1 POP PUSH2 0x1B8 DUP2 PUSH2 0x192 JUMP JUMPDEST SWAP3 SWAP2 POP POP JUMP JUMPDEST PUSH1 0x0 PUSH1 0x20 DUP3 DUP5 SUB SLT ISZERO PUSH2 0x1D4 JUMPI PUSH2 0x1D3 PUSH2 0x18D JUMP JUMPDEST JUMPDEST PUSH1 0x0 PUSH2 0x1E2 DUP5 DUP3 DUP6 ADD PUSH2 0x1A9 JUMP JUMPDEST SWAP2 POP POP SWAP3 SWAP2 POP POP JUMP JUMPDEST PUSH1 0x0 DUP1 PUSH1 0x40 DUP4 DUP6 SUB SLT ISZERO PUSH2 0x202 JUMPI PUSH2 0x201 PUSH2 0x18D JUMP JUMPDEST JUMPDEST PUSH1 0x0 PUSH2 0x210 DUP6 DUP3 DUP7 ADD PUSH2 0x1A9 JUMP JUMPDEST SWAP3 POP POP PUSH1 0x20 PUSH2 0x221 DUP6 DUP3 DUP7 ADD PUSH2 0x1A9 JUMP JUMPDEST SWAP2 POP POP SWAP3 POP SWAP3 SWAP1 POP JUMP JUMPDEST PUSH32 0x4E487B7100000000000000000000000000000000000000000000000000000000 PUSH1 0x0 MSTORE PUSH1 0x11 PUSH1 0x4 MSTORE PUSH1 0x24 PUSH1 0x0 REVERT JUMPDEST PUSH1 0x0 PUSH2 0x265 DUP3 PUSH2 0x159 JUMP JUMPDEST SWAP2 POP PUSH2 0x270 DUP4 PUSH2 0x159 JUMP JUMPDEST SWAP3 POP DUP3 DUP3 ADD SWAP1 POP DUP1 DUP3 GT ISZERO PUSH2 0x288 JUMPI PUSH2 0x287 PUSH2 0x22B JUMP JUMPDEST JUMPDEST SWAP3 SWAP2 POP POP JUMP INVALID LOG2 PUSH5 0x6970667358 0x22 SLT KECCAK256 BLOCKHASH STATICCALL SMOD 0x26 DIV 0x28 PUSH25 0xFCFA8596F7A9AFAC29298BD0FF740F7AEAC949D6DF0F9E8511 PUSH5 0x736F6C6343 STOP ADDMOD SLT STOP CALLER "
				},
				"gasEstimates": {
					"creation": {
						"codeDepositCost": "173000",
						"executionCost": "infinite",
						"totalCost": "infinite"
					},
					"external": {
						"getComputedResult()": "infinite",
						"getInfo()": "infinite",
						"getResult()": "2459"
					}
				},
				"methodIdentifiers": {
					"getComputedResult()": "43eea6e9",
					"getInfo()": "5a9b0b89",
					"getResult()": "de292789"
				}
			},
			"storageLayout": {
				"storage": [
					{
						"astId": 61,
						"contract": "practical11a.sol:E",
						"label": "c",
						"offset": 0,
						"slot": "0",
						"type": "t_contract(C)58"
					},
					{
						"astId": 63,
						"contract": "practical11a.sol:E",
						"label": "result",
						"offset": 0,
						"slot": "1",
						"type": "t_uint256"
					}
				],
				"types": {
					"t_contract(C)58": {
						"encoding": "inplace",
						"label": "contract C",
						"numberOfBytes": "20"
					},
					"t_uint256": {
						"encoding": "inplace",
						"label": "uint256",
						"numberOfBytes": "32"
					}
				}
			},
			"userdoc": {
				"kind": "user",
				"methods": {},
				"version": 1
			}
		}
	}
}