{
	"practical6.sol": {
		"SolidityTest": {
			"abi": [
				{
					"inputs": [],
					"name": "get_choice",
					"outputs": [
						{
							"internalType": "enum SolidityTest.weekday",
							"name": "",
							"type": "uint8"
						}
					],
					"stateMutability": "view",
					"type": "function"
				},
				{
					"inputs": [],
					"name": "getdefaultvalue",
					"outputs": [
						{
							"internalType": "enum SolidityTest.weekday",
							"name": "",
							"type": "uint8"
						}
					],
					"stateMutability": "pure",
					"type": "function"
				},
				{
					"inputs": [],
					"name": "setValue",
					"outputs": [],
					"stateMutability": "nonpayable",
					"type": "function"
				}
			],
			"devdoc": {
				"kind": "dev",
				"methods": {},
				"version": 1
			},
			"evm": {
				"assembly": "    /* \"practical6.sol\":111:636  contract SolidityTest {... */\n  mstore(0x40, 0x80)\n  callvalue\n  dup1\n  iszero\n  tag_1\n  jumpi\n  0x00\n  dup1\n  revert\ntag_1:\n  pop\n  dataSize(sub_0)\n  dup1\n  dataOffset(sub_0)\n  0x00\n  codecopy\n  0x00\n  return\nstop\n\nsub_0: assembly {\n        /* \"practical6.sol\":111:636  contract SolidityTest {... */\n      mstore(0x40, 0x80)\n      callvalue\n      dup1\n      iszero\n      tag_1\n      jumpi\n      0x00\n      dup1\n      revert\n    tag_1:\n      pop\n      jumpi(tag_2, lt(calldatasize, 0x04))\n      shr(0xe0, calldataload(0x00))\n      dup1\n      0x4fa519fa\n      eq\n      tag_3\n      jumpi\n      dup1\n      0x630f7035\n      eq\n      tag_4\n      jumpi\n      dup1\n      0xbd72e4fc\n      eq\n      tag_5\n      jumpi\n    tag_2:\n      0x00\n      dup1\n      revert\n        /* \"practical6.sol\":377:446  function setValue() public {... */\n    tag_3:\n      tag_6\n      tag_7\n      jump\t// in\n    tag_6:\n      stop\n        /* \"practical6.sol\":452:534  function get_choice() public view returns (weekday) {... */\n    tag_4:\n      tag_8\n      tag_9\n      jump\t// in\n    tag_8:\n      mload(0x40)\n      tag_10\n      swap2\n      swap1\n      tag_11\n      jump\t// in\n    tag_10:\n      mload(0x40)\n      dup1\n      swap2\n      sub\n      swap1\n      return\n        /* \"practical6.sol\":540:634  function getdefaultvalue() public pure returns (weekday) {... */\n    tag_5:\n      tag_12\n      tag_13\n      jump\t// in\n    tag_12:\n      mload(0x40)\n      tag_14\n      swap2\n      swap1\n      tag_11\n      jump\t// in\n    tag_14:\n      mload(0x40)\n      dup1\n      swap2\n      sub\n      swap1\n      return\n        /* \"practical6.sol\":377:446  function setValue() public {... */\n    tag_7:\n        /* \"practical6.sol\":423:439  weekday.thursday */\n      0x03\n        /* \"practical6.sol\":414:420  choice */\n      0x00\n      0x01\n        /* \"practical6.sol\":414:439  choice = weekday.thursday */\n      0x0100\n      exp\n      dup2\n      sload\n      dup2\n      0xff\n      mul\n      not\n      and\n      swap1\n      dup4\n      0x06\n      dup2\n      gt\n      iszero\n      tag_16\n      jumpi\n      tag_17\n      tag_18\n      jump\t// in\n    tag_17:\n    tag_16:\n      mul\n      or\n      swap1\n      sstore\n      pop\n        /* \"practical6.sol\":377:446  function setValue() public {... */\n      jump\t// out\n        /* \"practical6.sol\":452:534  function get_choice() public view returns (weekday) {... */\n    tag_9:\n        /* \"practical6.sol\":495:502  weekday */\n      0x00\n        /* \"practical6.sol\":521:527  choice */\n      dup1\n      0x01\n      swap1\n      sload\n      swap1\n      0x0100\n      exp\n      swap1\n      div\n      0xff\n      and\n        /* \"practical6.sol\":514:527  return choice */\n      swap1\n      pop\n        /* \"practical6.sol\":452:534  function get_choice() public view returns (weekday) {... */\n      swap1\n      jump\t// out\n        /* \"practical6.sol\":540:634  function getdefaultvalue() public pure returns (weekday) {... */\n    tag_13:\n        /* \"practical6.sol\":588:595  weekday */\n      0x00\n        /* \"practical6.sol\":356:370  weekday.sunday */\n      0x06\n        /* \"practical6.sol\":607:627  return default_value */\n      swap1\n      pop\n        /* \"practical6.sol\":540:634  function getdefaultvalue() public pure returns (weekday) {... */\n      swap1\n      jump\t// out\n        /* \"#utility.yul\":7:187   */\n    tag_18:\n        /* \"#utility.yul\":55:132   */\n      0x4e487b7100000000000000000000000000000000000000000000000000000000\n        /* \"#utility.yul\":52:53   */\n      0x00\n        /* \"#utility.yul\":45:133   */\n      mstore\n        /* \"#utility.yul\":152:156   */\n      0x21\n        /* \"#utility.yul\":149:150   */\n      0x04\n        /* \"#utility.yul\":142:157   */\n      mstore\n        /* \"#utility.yul\":176:180   */\n      0x24\n        /* \"#utility.yul\":173:174   */\n      0x00\n        /* \"#utility.yul\":166:181   */\n      revert\n        /* \"#utility.yul\":193:307   */\n    tag_21:\n        /* \"#utility.yul\":275:276   */\n      0x07\n        /* \"#utility.yul\":268:273   */\n      dup2\n        /* \"#utility.yul\":265:277   */\n      lt\n        /* \"#utility.yul\":255:301   */\n      tag_28\n      jumpi\n        /* \"#utility.yul\":281:299   */\n      tag_29\n      tag_18\n      jump\t// in\n    tag_29:\n        /* \"#utility.yul\":255:301   */\n    tag_28:\n        /* \"#utility.yul\":193:307   */\n      pop\n      jump\t// out\n        /* \"#utility.yul\":313:442   */\n    tag_22:\n        /* \"#utility.yul\":359:366   */\n      0x00\n        /* \"#utility.yul\":388:393   */\n      dup2\n        /* \"#utility.yul\":377:393   */\n      swap1\n      pop\n        /* \"#utility.yul\":394:436   */\n      tag_31\n        /* \"#utility.yul\":430:435   */\n      dup3\n        /* \"#utility.yul\":394:436   */\n      tag_21\n      jump\t// in\n    tag_31:\n        /* \"#utility.yul\":313:442   */\n      swap2\n      swap1\n      pop\n      jump\t// out\n        /* \"#utility.yul\":448:577   */\n    tag_23:\n        /* \"#utility.yul\":505:514   */\n      0x00\n        /* \"#utility.yul\":538:571   */\n      tag_33\n        /* \"#utility.yul\":565:570   */\n      dup3\n        /* \"#utility.yul\":538:571   */\n      tag_22\n      jump\t// in\n    tag_33:\n        /* \"#utility.yul\":525:571   */\n      swap1\n      pop\n        /* \"#utility.yul\":448:577   */\n      swap2\n      swap1\n      pop\n      jump\t// out\n        /* \"#utility.yul\":583:728   */\n    tag_24:\n        /* \"#utility.yul\":677:721   */\n      tag_35\n        /* \"#utility.yul\":715:720   */\n      dup2\n        /* \"#utility.yul\":677:721   */\n      tag_23\n      jump\t// in\n    tag_35:\n        /* \"#utility.yul\":672:675   */\n      dup3\n        /* \"#utility.yul\":665:722   */\n      mstore\n        /* \"#utility.yul\":583:728   */\n      pop\n      pop\n      jump\t// out\n        /* \"#utility.yul\":734:970   */\n    tag_11:\n        /* \"#utility.yul\":834:838   */\n      0x00\n        /* \"#utility.yul\":872:874   */\n      0x20\n        /* \"#utility.yul\":861:870   */\n      dup3\n        /* \"#utility.yul\":857:875   */\n      add\n        /* \"#utility.yul\":849:875   */\n      swap1\n      pop\n        /* \"#utility.yul\":885:963   */\n      tag_37\n        /* \"#utility.yul\":960:961   */\n      0x00\n        /* \"#utility.yul\":949:958   */\n      dup4\n        /* \"#utility.yul\":945:962   */\n      add\n        /* \"#utility.yul\":936:942   */\n      dup5\n        /* \"#utility.yul\":885:963   */\n      tag_24\n      jump\t// in\n    tag_37:\n        /* \"#utility.yul\":734:970   */\n      swap3\n      swap2\n      pop\n      pop\n      jump\t// out\n\n    auxdata: 0xa26469706673582212208f12a8f685b3987944baa41f3d9efb06510ca0d370c3b08c1f63ab8628aa876a64736f6c63430008120033\n}\n",
				"bytecode": {
					"linkReferences": {},
					"object": "608060405234801561001057600080fd5b506101a0806100206000396000f3fe608060405234801561001057600080fd5b50600436106100415760003560e01c80634fa519fa14610046578063630f703514610050578063bd72e4fc1461006e575b600080fd5b61004e61008c565b005b6100586100b9565b604051610065919061014f565b60405180910390f35b6100766100cf565b604051610083919061014f565b60405180910390f35b6003600060016101000a81548160ff021916908360068111156100b2576100b16100d8565b5b0217905550565b60008060019054906101000a900460ff16905090565b60006006905090565b7f4e487b7100000000000000000000000000000000000000000000000000000000600052602160045260246000fd5b60078110610118576101176100d8565b5b50565b600081905061012982610107565b919050565b60006101398261011b565b9050919050565b6101498161012e565b82525050565b60006020820190506101646000830184610140565b9291505056fea26469706673582212208f12a8f685b3987944baa41f3d9efb06510ca0d370c3b08c1f63ab8628aa876a64736f6c63430008120033",
					"opcodes": "PUSH1 0x80 PUSH1 0x40 MSTORE CALLVALUE DUP1 ISZERO PUSH2 0x10 JUMPI PUSH1 0x0 DUP1 REVERT JUMPDEST POP PUSH2 0x1A0 DUP1 PUSH2 0x20 PUSH1 0x0 CODECOPY PUSH1 0x0 RETURN INVALID PUSH1 0x80 PUSH1 0x40 MSTORE CALLVALUE DUP1 ISZERO PUSH2 0x10 JUMPI PUSH1 0x0 DUP1 REVERT JUMPDEST POP PUSH1 0x4 CALLDATASIZE LT PUSH2 0x41 JUMPI PUSH1 0x0 CALLDATALOAD PUSH1 0xE0 SHR DUP1 PUSH4 0x4FA519FA EQ PUSH2 0x46 JUMPI DUP1 PUSH4 0x630F7035 EQ PUSH2 0x50 JUMPI DUP1 PUSH4 0xBD72E4FC EQ PUSH2 0x6E JUMPI JUMPDEST PUSH1 0x0 DUP1 REVERT JUMPDEST PUSH2 0x4E PUSH2 0x8C JUMP JUMPDEST STOP JUMPDEST PUSH2 0x58 PUSH2 0xB9 JUMP JUMPDEST PUSH1 0x40 MLOAD PUSH2 0x65 SWAP2 SWAP1 PUSH2 0x14F JUMP JUMPDEST PUSH1 0x40 MLOAD DUP1 SWAP2 SUB SWAP1 RETURN JUMPDEST PUSH2 0x76 PUSH2 0xCF JUMP JUMPDEST PUSH1 0x40 MLOAD PUSH2 0x83 SWAP2 SWAP1 PUSH2 0x14F JUMP JUMPDEST PUSH1 0x40 MLOAD DUP1 SWAP2 SUB SWAP1 RETURN JUMPDEST PUSH1 0x3 PUSH1 0x0 PUSH1 0x1 PUSH2 0x100 EXP DUP2 SLOAD DUP2 PUSH1 0xFF MUL NOT AND SWAP1 DUP4 PUSH1 0x6 DUP2 GT ISZERO PUSH2 0xB2 JUMPI PUSH2 0xB1 PUSH2 0xD8 JUMP JUMPDEST JUMPDEST MUL OR SWAP1 SSTORE POP JUMP JUMPDEST PUSH1 0x0 DUP1 PUSH1 0x1 SWAP1 SLOAD SWAP1 PUSH2 0x100 EXP SWAP1 DIV PUSH1 0xFF AND SWAP1 POP SWAP1 JUMP JUMPDEST PUSH1 0x0 PUSH1 0x6 SWAP1 POP SWAP1 JUMP JUMPDEST PUSH32 0x4E487B7100000000000000000000000000000000000000000000000000000000 PUSH1 0x0 MSTORE PUSH1 0x21 PUSH1 0x4 MSTORE PUSH1 0x24 PUSH1 0x0 REVERT JUMPDEST PUSH1 0x7 DUP2 LT PUSH2 0x118 JUMPI PUSH2 0x117 PUSH2 0xD8 JUMP JUMPDEST JUMPDEST POP JUMP JUMPDEST PUSH1 0x0 DUP2 SWAP1 POP PUSH2 0x129 DUP3 PUSH2 0x107 JUMP JUMPDEST SWAP2 SWAP1 POP JUMP JUMPDEST PUSH1 0x0 PUSH2 0x139 DUP3 PUSH2 0x11B JUMP JUMPDEST SWAP1 POP SWAP2 SWAP1 POP JUMP JUMPDEST PUSH2 0x149 DUP2 PUSH2 0x12E JUMP JUMPDEST DUP3 MSTORE POP POP JUMP JUMPDEST PUSH1 0x0 PUSH1 0x20 DUP3 ADD SWAP1 POP PUSH2 0x164 PUSH1 0x0 DUP4 ADD DUP5 PUSH2 0x140 JUMP JUMPDEST SWAP3 SWAP2 POP POP JUMP INVALID LOG2 PUSH5 0x6970667358 0x22 SLT KECCAK256 DUP16 SLT 0xA8 0xF6 DUP6 0xB3 SWAP9 PUSH26 0x44BAA41F3D9EFB06510CA0D370C3B08C1F63AB8628AA876A6473 PUSH16 0x6C634300081200330000000000000000 "
				},
				"gasEstimates": {
					"creation": {
						"codeDepositCost": "83200",
						"executionCost": "129",
						"totalCost": "83329"
					},
					"external": {
						"get_choice()": "2618",
						"getdefaultvalue()": "454",
						"setValue()": "24459"
					}
				},
				"methodIdentifiers": {
					"get_choice()": "630f7035",
					"getdefaultvalue()": "bd72e4fc",
					"setValue()": "4fa519fa"
				}
			},
			"storageLayout": {
				"storage": [
					{
						"astId": 12,
						"contract": "practical6.sol:SolidityTest",
						"label": "week",
						"offset": 0,
						"slot": "0",
						"type": "t_enum(weekday)9"
					},
					{
						"astId": 15,
						"contract": "practical6.sol:SolidityTest",
						"label": "choice",
						"offset": 1,
						"slot": "0",
						"type": "t_enum(weekday)9"
					}
				],
				"types": {
					"t_enum(weekday)9": {
						"encoding": "inplace",
						"label": "enum SolidityTest.weekday",
						"numberOfBytes": "1"
					}
				}
			},
			"userdoc": {
				"kind": "user",
				"methods": {},
				"version": 1
			}
		}
	}
}