{
	"practical10a.sol": {
		"SolidityTest": {
			"abi": [
				{
					"inputs": [],
					"name": "callSumWithThreeArguments",
					"outputs": [
						{
							"internalType": "uint256",
							"name": "",
							"type": "uint256"
						}
					],
					"stateMutability": "pure",
					"type": "function"
				},
				{
					"inputs": [],
					"name": "callSumWithTwoArguments",
					"outputs": [
						{
							"internalType": "uint256",
							"name": "",
							"type": "uint256"
						}
					],
					"stateMutability": "pure",
					"type": "function"
				}
			],
			"devdoc": {
				"kind": "dev",
				"methods": {},
				"version": 1
			},
			"evm": {
				"assembly": "    /* \"practical10a.sol\":58:554  contract SolidityTest {... */\n  mstore(0x40, 0x80)\n  callvalue\n  dup1\n  iszero\n  tag_1\n  jumpi\n  0x00\n  dup1\n  revert\ntag_1:\n  pop\n  dataSize(sub_0)\n  dup1\n  dataOffset(sub_0)\n  0x00\n  codecopy\n  0x00\n  return\nstop\n\nsub_0: assembly {\n        /* \"practical10a.sol\":58:554  contract SolidityTest {... */\n      mstore(0x40, 0x80)\n      callvalue\n      dup1\n      iszero\n      tag_1\n      jumpi\n      0x00\n      dup1\n      revert\n    tag_1:\n      pop\n      jumpi(tag_2, lt(calldatasize, 0x04))\n      shr(0xe0, calldataload(0x00))\n      dup1\n      0x4585ba2e\n      eq\n      tag_3\n      jumpi\n      dup1\n      0xd2074110\n      eq\n      tag_4\n      jumpi\n    tag_2:\n      0x00\n      dup1\n      revert\n        /* \"practical10a.sol\":339:440  function callSumWithTwoArguments() public pure returns (uint256) {... */\n    tag_3:\n      tag_5\n      tag_6\n      jump\t// in\n    tag_5:\n      mload(0x40)\n      tag_7\n      swap2\n      swap1\n      tag_8\n      jump\t// in\n    tag_7:\n      mload(0x40)\n      dup1\n      swap2\n      sub\n      swap1\n      return\n        /* \"practical10a.sol\":446:552  function callSumWithThreeArguments() public pure returns (uint256) {... */\n    tag_4:\n      tag_9\n      tag_10\n      jump\t// in\n    tag_9:\n      mload(0x40)\n      tag_11\n      swap2\n      swap1\n      tag_8\n      jump\t// in\n    tag_11:\n      mload(0x40)\n      dup1\n      swap2\n      sub\n      swap1\n      return\n        /* \"practical10a.sol\":339:440  function callSumWithTwoArguments() public pure returns (uint256) {... */\n    tag_6:\n        /* \"practical10a.sol\":395:402  uint256 */\n      0x00\n        /* \"practical10a.sol\":421:433  getSum(2, 2) */\n      tag_13\n        /* \"practical10a.sol\":428:429  2 */\n      0x02\n        /* \"practical10a.sol\":431:432  2 */\n      dup1\n        /* \"practical10a.sol\":421:427  getSum */\n      tag_14\n        /* \"practical10a.sol\":421:433  getSum(2, 2) */\n      jump\t// in\n    tag_13:\n        /* \"practical10a.sol\":414:433  return getSum(2, 2) */\n      swap1\n      pop\n        /* \"practical10a.sol\":339:440  function callSumWithTwoArguments() public pure returns (uint256) {... */\n      swap1\n      jump\t// out\n        /* \"practical10a.sol\":446:552  function callSumWithThreeArguments() public pure returns (uint256) {... */\n    tag_10:\n        /* \"practical10a.sol\":504:511  uint256 */\n      0x00\n        /* \"practical10a.sol\":530:545  getSum(1, 2, 4) */\n      tag_16\n        /* \"practical10a.sol\":537:538  1 */\n      0x01\n        /* \"practical10a.sol\":540:541  2 */\n      0x02\n        /* \"practical10a.sol\":543:544  4 */\n      0x04\n        /* \"practical10a.sol\":530:536  getSum */\n      tag_17\n        /* \"practical10a.sol\":530:545  getSum(1, 2, 4) */\n      jump\t// in\n    tag_16:\n        /* \"practical10a.sol\":523:545  return getSum(1, 2, 4) */\n      swap1\n      pop\n        /* \"practical10a.sol\":446:552  function callSumWithThreeArguments() public pure returns (uint256) {... */\n      swap1\n      jump\t// out\n        /* \"practical10a.sol\":86:184  function getSum(uint256 a, uint256 b) private pure returns (uint256) {... */\n    tag_14:\n        /* \"practical10a.sol\":146:153  uint256 */\n      0x00\n        /* \"practical10a.sol\":176:177  b */\n      dup2\n        /* \"practical10a.sol\":172:173  a */\n      dup4\n        /* \"practical10a.sol\":172:177  a + b */\n      tag_19\n      swap2\n      swap1\n      tag_20\n      jump\t// in\n    tag_19:\n        /* \"practical10a.sol\":165:177  return a + b */\n      swap1\n      pop\n        /* \"practical10a.sol\":86:184  function getSum(uint256 a, uint256 b) private pure returns (uint256) {... */\n      swap3\n      swap2\n      pop\n      pop\n      jump\t// out\n        /* \"practical10a.sol\":190:333  function getSum(... */\n    tag_17:\n        /* \"practical10a.sol\":291:298  uint256 */\n      0x00\n        /* \"practical10a.sol\":325:326  c */\n      dup2\n        /* \"practical10a.sol\":321:322  b */\n      dup4\n        /* \"practical10a.sol\":317:318  a */\n      dup6\n        /* \"practical10a.sol\":317:322  a + b */\n      tag_22\n      swap2\n      swap1\n      tag_20\n      jump\t// in\n    tag_22:\n        /* \"practical10a.sol\":317:326  a + b + c */\n      tag_23\n      swap2\n      swap1\n      tag_20\n      jump\t// in\n    tag_23:\n        /* \"practical10a.sol\":310:326  return a + b + c */\n      swap1\n      pop\n        /* \"practical10a.sol\":190:333  function getSum(... */\n      swap4\n      swap3\n      pop\n      pop\n      pop\n      jump\t// out\n        /* \"#utility.yul\":7:84   */\n    tag_24:\n        /* \"#utility.yul\":44:51   */\n      0x00\n        /* \"#utility.yul\":73:78   */\n      dup2\n        /* \"#utility.yul\":62:78   */\n      swap1\n      pop\n        /* \"#utility.yul\":7:84   */\n      swap2\n      swap1\n      pop\n      jump\t// out\n        /* \"#utility.yul\":90:208   */\n    tag_25:\n        /* \"#utility.yul\":177:201   */\n      tag_30\n        /* \"#utility.yul\":195:200   */\n      dup2\n        /* \"#utility.yul\":177:201   */\n      tag_24\n      jump\t// in\n    tag_30:\n        /* \"#utility.yul\":172:175   */\n      dup3\n        /* \"#utility.yul\":165:202   */\n      mstore\n        /* \"#utility.yul\":90:208   */\n      pop\n      pop\n      jump\t// out\n        /* \"#utility.yul\":214:436   */\n    tag_8:\n        /* \"#utility.yul\":307:311   */\n      0x00\n        /* \"#utility.yul\":345:347   */\n      0x20\n        /* \"#utility.yul\":334:343   */\n      dup3\n        /* \"#utility.yul\":330:348   */\n      add\n        /* \"#utility.yul\":322:348   */\n      swap1\n      pop\n        /* \"#utility.yul\":358:429   */\n      tag_32\n        /* \"#utility.yul\":426:427   */\n      0x00\n        /* \"#utility.yul\":415:424   */\n      dup4\n        /* \"#utility.yul\":411:428   */\n      add\n        /* \"#utility.yul\":402:408   */\n      dup5\n        /* \"#utility.yul\":358:429   */\n      tag_25\n      jump\t// in\n    tag_32:\n        /* \"#utility.yul\":214:436   */\n      swap3\n      swap2\n      pop\n      pop\n      jump\t// out\n        /* \"#utility.yul\":442:622   */\n    tag_26:\n        /* \"#utility.yul\":490:567   */\n      0x4e487b7100000000000000000000000000000000000000000000000000000000\n        /* \"#utility.yul\":487:488   */\n      0x00\n        /* \"#utility.yul\":480:568   */\n      mstore\n        /* \"#utility.yul\":587:591   */\n      0x11\n        /* \"#utility.yul\":584:585   */\n      0x04\n        /* \"#utility.yul\":577:592   */\n      mstore\n        /* \"#utility.yul\":611:615   */\n      0x24\n        /* \"#utility.yul\":608:609   */\n      0x00\n        /* \"#utility.yul\":601:616   */\n      revert\n        /* \"#utility.yul\":628:819   */\n    tag_20:\n        /* \"#utility.yul\":668:671   */\n      0x00\n        /* \"#utility.yul\":687:707   */\n      tag_35\n        /* \"#utility.yul\":705:706   */\n      dup3\n        /* \"#utility.yul\":687:707   */\n      tag_24\n      jump\t// in\n    tag_35:\n        /* \"#utility.yul\":682:707   */\n      swap2\n      pop\n        /* \"#utility.yul\":721:741   */\n      tag_36\n        /* \"#utility.yul\":739:740   */\n      dup4\n        /* \"#utility.yul\":721:741   */\n      tag_24\n      jump\t// in\n    tag_36:\n        /* \"#utility.yul\":716:741   */\n      swap3\n      pop\n        /* \"#utility.yul\":764:765   */\n      dup3\n        /* \"#utility.yul\":761:762   */\n      dup3\n        /* \"#utility.yul\":757:766   */\n      add\n        /* \"#utility.yul\":750:766   */\n      swap1\n      pop\n        /* \"#utility.yul\":785:788   */\n      dup1\n        /* \"#utility.yul\":782:783   */\n      dup3\n        /* \"#utility.yul\":779:789   */\n      gt\n        /* \"#utility.yul\":776:812   */\n      iszero\n      tag_37\n      jumpi\n        /* \"#utility.yul\":792:810   */\n      tag_38\n      tag_26\n      jump\t// in\n    tag_38:\n        /* \"#utility.yul\":776:812   */\n    tag_37:\n        /* \"#utility.yul\":628:819   */\n      swap3\n      swap2\n      pop\n      pop\n      jump\t// out\n\n    auxdata: 0xa264697066735822122098019083e956d4f14782765b67f56087a1953a67c54094efcf0b20d6c6f0fd4364736f6c63430008120033\n}\n",
				"bytecode": {
					"linkReferences": {},
					"object": "608060405234801561001057600080fd5b506101a3806100206000396000f3fe608060405234801561001057600080fd5b50600436106100365760003560e01c80634585ba2e1461003b578063d207411014610059575b600080fd5b610043610077565b60405161005091906100ef565b60405180910390f35b610061610089565b60405161006e91906100ef565b60405180910390f35b600061008460028061009e565b905090565b60006100996001600260046100b4565b905090565b600081836100ac9190610139565b905092915050565b60008183856100c39190610139565b6100cd9190610139565b90509392505050565b6000819050919050565b6100e9816100d6565b82525050565b600060208201905061010460008301846100e0565b92915050565b7f4e487b7100000000000000000000000000000000000000000000000000000000600052601160045260246000fd5b6000610144826100d6565b915061014f836100d6565b92508282019050808211156101675761016661010a565b5b9291505056fea264697066735822122098019083e956d4f14782765b67f56087a1953a67c54094efcf0b20d6c6f0fd4364736f6c63430008120033",
					"opcodes": "PUSH1 0x80 PUSH1 0x40 MSTORE CALLVALUE DUP1 ISZERO PUSH2 0x10 JUMPI PUSH1 0x0 DUP1 REVERT JUMPDEST POP PUSH2 0x1A3 DUP1 PUSH2 0x20 PUSH1 0x0 CODECOPY PUSH1 0x0 RETURN INVALID PUSH1 0x80 PUSH1 0x40 MSTORE CALLVALUE DUP1 ISZERO PUSH2 0x10 JUMPI PUSH1 0x0 DUP1 REVERT JUMPDEST POP PUSH1 0x4 CALLDATASIZE LT PUSH2 0x36 JUMPI PUSH1 0x0 CALLDATALOAD PUSH1 0xE0 SHR DUP1 PUSH4 0x4585BA2E EQ PUSH2 0x3B JUMPI DUP1 PUSH4 0xD2074110 EQ PUSH2 0x59 JUMPI JUMPDEST PUSH1 0x0 DUP1 REVERT JUMPDEST PUSH2 0x43 PUSH2 0x77 JUMP JUMPDEST PUSH1 0x40 MLOAD PUSH2 0x50 SWAP2 SWAP1 PUSH2 0xEF JUMP JUMPDEST PUSH1 0x40 MLOAD DUP1 SWAP2 SUB SWAP1 RETURN JUMPDEST PUSH2 0x61 PUSH2 0x89 JUMP JUMPDEST PUSH1 0x40 MLOAD PUSH2 0x6E SWAP2 SWAP1 PUSH2 0xEF JUMP JUMPDEST PUSH1 0x40 MLOAD DUP1 SWAP2 SUB SWAP1 RETURN JUMPDEST PUSH1 0x0 PUSH2 0x84 PUSH1 0x2 DUP1 PUSH2 0x9E JUMP JUMPDEST SWAP1 POP SWAP1 JUMP JUMPDEST PUSH1 0x0 PUSH2 0x99 PUSH1 0x1 PUSH1 0x2 PUSH1 0x4 PUSH2 0xB4 JUMP JUMPDEST SWAP1 POP SWAP1 JUMP JUMPDEST PUSH1 0x0 DUP2 DUP4 PUSH2 0xAC SWAP2 SWAP1 PUSH2 0x139 JUMP JUMPDEST SWAP1 POP SWAP3 SWAP2 POP POP JUMP JUMPDEST PUSH1 0x0 DUP2 DUP4 DUP6 PUSH2 0xC3 SWAP2 SWAP1 PUSH2 0x139 JUMP JUMPDEST PUSH2 0xCD SWAP2 SWAP1 PUSH2 0x139 JUMP JUMPDEST SWAP1 POP SWAP4 SWAP3 POP POP POP JUMP JUMPDEST PUSH1 0x0 DUP2 SWAP1 POP SWAP2 SWAP1 POP JUMP JUMPDEST PUSH2 0xE9 DUP2 PUSH2 0xD6 JUMP JUMPDEST DUP3 MSTORE POP POP JUMP JUMPDEST PUSH1 0x0 PUSH1 0x20 DUP3 ADD SWAP1 POP PUSH2 0x104 PUSH1 0x0 DUP4 ADD DUP5 PUSH2 0xE0 JUMP JUMPDEST SWAP3 SWAP2 POP POP JUMP JUMPDEST PUSH32 0x4E487B7100000000000000000000000000000000000000000000000000000000 PUSH1 0x0 MSTORE PUSH1 0x11 PUSH1 0x4 MSTORE PUSH1 0x24 PUSH1 0x0 REVERT JUMPDEST PUSH1 0x0 PUSH2 0x144 DUP3 PUSH2 0xD6 JUMP JUMPDEST SWAP2 POP PUSH2 0x14F DUP4 PUSH2 0xD6 JUMP JUMPDEST SWAP3 POP DUP3 DUP3 ADD SWAP1 POP DUP1 DUP3 GT ISZERO PUSH2 0x167 JUMPI PUSH2 0x166 PUSH2 0x10A JUMP JUMPDEST JUMPDEST SWAP3 SWAP2 POP POP JUMP INVALID LOG2 PUSH5 0x6970667358 0x22 SLT KECCAK256 SWAP9 ADD SWAP1 DUP4 0xE9 JUMP 0xD4 CALL SELFBALANCE DUP3 PUSH23 0x5B67F56087A1953A67C54094EFCF0B20D6C6F0FD436473 PUSH16 0x6C634300081200330000000000000000 "
				},
				"gasEstimates": {
					"creation": {
						"codeDepositCost": "83800",
						"executionCost": "135",
						"totalCost": "83935"
					},
					"external": {
						"callSumWithThreeArguments()": "infinite",
						"callSumWithTwoArguments()": "infinite"
					},
					"internal": {
						"getSum(uint256,uint256)": "infinite",
						"getSum(uint256,uint256,uint256)": "infinite"
					}
				},
				"methodIdentifiers": {
					"callSumWithThreeArguments()": "d2074110",
					"callSumWithTwoArguments()": "4585ba2e"
				}
			},
			"storageLayout": {
				"storage": [],
				"types": null
			},
			"userdoc": {
				"kind": "user",
				"methods": {},
				"version": 1
			}
		}
	}
}