{
	"practical2c.sol": {
		"SolidityTest": {
			"abi": [
				{
					"inputs": [],
					"name": "getResult",
					"outputs": [
						{
							"internalType": "string",
							"name": "",
							"type": "string"
						}
					],
					"stateMutability": "nonpayable",
					"type": "function"
				},
				{
					"inputs": [
						{
							"internalType": "uint256",
							"name": "i",
							"type": "uint256"
						}
					],
					"name": "integerToString",
					"outputs": [
						{
							"internalType": "string",
							"name": "",
							"type": "string"
						}
					],
					"stateMutability": "payable",
					"type": "function"
				}
			],
			"devdoc": {
				"kind": "dev",
				"methods": {},
				"version": 1
			},
			"evm": {
				"assembly": "    /* \"practical2c.sol\":129:809  contract SolidityTest {... */\n  mstore(0x40, 0x80)\n  callvalue\n  dup1\n  iszero\n  tag_1\n  jumpi\n  0x00\n  dup1\n  revert\ntag_1:\n  pop\n  dataSize(sub_0)\n  dup1\n  dataOffset(sub_0)\n  0x00\n  codecopy\n  0x00\n  return\nstop\n\nsub_0: assembly {\n        /* \"practical2c.sol\":129:809  contract SolidityTest {... */\n      mstore(0x40, 0x80)\n      jumpi(tag_1, lt(calldatasize, 0x04))\n      shr(0xe0, calldataload(0x00))\n      dup1\n      0xc88a3710\n      eq\n      tag_2\n      jumpi\n      dup1\n      0xde292789\n      eq\n      tag_3\n      jumpi\n    tag_1:\n      0x00\n      dup1\n      revert\n        /* \"practical2c.sol\":333:807  function integerToString(uint256 i) public payable returns (string memory) {... */\n    tag_2:\n      tag_4\n      0x04\n      dup1\n      calldatasize\n      sub\n      dup2\n      add\n      swap1\n      tag_5\n      swap2\n      swap1\n      tag_6\n      jump\t// in\n    tag_5:\n      tag_7\n      jump\t// in\n    tag_4:\n      mload(0x40)\n      tag_8\n      swap2\n      swap1\n      tag_9\n      jump\t// in\n    tag_8:\n      mload(0x40)\n      dup1\n      swap2\n      sub\n      swap1\n      return\n        /* \"practical2c.sol\":157:327  function getResult() public returns (string memory) {... */\n    tag_3:\n      callvalue\n      dup1\n      iszero\n      tag_10\n      jumpi\n      0x00\n      dup1\n      revert\n    tag_10:\n      pop\n      tag_11\n      tag_12\n      jump\t// in\n    tag_11:\n      mload(0x40)\n      tag_13\n      swap2\n      swap1\n      tag_9\n      jump\t// in\n    tag_13:\n      mload(0x40)\n      dup1\n      swap2\n      sub\n      swap1\n      return\n        /* \"practical2c.sol\":333:807  function integerToString(uint256 i) public payable returns (string memory) {... */\n    tag_7:\n        /* \"practical2c.sol\":393:406  string memory */\n      0x60\n        /* \"practical2c.sol\":427:428  0 */\n      0x00\n        /* \"practical2c.sol\":422:423  i */\n      dup3\n        /* \"practical2c.sol\":422:428  i == 0 */\n      sub\n        /* \"practical2c.sol\":418:440  if (i == 0) return \"0\" */\n      tag_15\n      jumpi\n        /* \"practical2c.sol\":430:440  return \"0\" */\n      mload(0x40)\n      dup1\n      0x40\n      add\n      0x40\n      mstore\n      dup1\n      0x01\n      dup2\n      mstore\n      0x20\n      add\n      0x3000000000000000000000000000000000000000000000000000000000000000\n      dup2\n      mstore\n      pop\n      swap1\n      pop\n      jump(tag_14)\n        /* \"practical2c.sol\":418:440  if (i == 0) return \"0\" */\n    tag_15:\n        /* \"practical2c.sol\":450:459  uint256 j */\n      0x00\n        /* \"practical2c.sol\":462:463  i */\n      dup3\n        /* \"practical2c.sol\":450:463  uint256 j = i */\n      swap1\n      pop\n        /* \"practical2c.sol\":473:480  int len */\n      0x00\n        /* \"practical2c.sol\":494:571  while (j != 0) {... */\n    tag_16:\n        /* \"practical2c.sol\":506:507  0 */\n      0x00\n        /* \"practical2c.sol\":501:502  j */\n      dup3\n        /* \"practical2c.sol\":501:507  j != 0 */\n      eq\n        /* \"practical2c.sol\":494:571  while (j != 0) {... */\n      tag_17\n      jumpi\n        /* \"practical2c.sol\":531:533  10 */\n      0x0a\n        /* \"practical2c.sol\":527:528  j */\n      dup3\n        /* \"practical2c.sol\":527:533  j / 10 */\n      tag_18\n      swap2\n      swap1\n      tag_19\n      jump\t// in\n    tag_18:\n        /* \"practical2c.sol\":523:533  j = j / 10 */\n      swap2\n      pop\n        /* \"practical2c.sol\":559:560  1 */\n      0x01\n        /* \"practical2c.sol\":553:556  len */\n      dup2\n        /* \"practical2c.sol\":553:560  len + 1 */\n      tag_20\n      swap2\n      swap1\n      tag_21\n      jump\t// in\n    tag_20:\n        /* \"practical2c.sol\":547:560  len = len + 1 */\n      swap1\n      pop\n        /* \"practical2c.sol\":494:571  while (j != 0) {... */\n      jump(tag_16)\n    tag_17:\n        /* \"practical2c.sol\":580:585  int k */\n      0x00\n        /* \"practical2c.sol\":594:595  1 */\n      0x01\n        /* \"practical2c.sol\":588:591  len */\n      dup3\n        /* \"practical2c.sol\":588:595  len - 1 */\n      tag_22\n      swap2\n      swap1\n      tag_23\n      jump\t// in\n    tag_22:\n        /* \"practical2c.sol\":580:595  int k = len - 1 */\n      swap1\n      pop\n        /* \"practical2c.sol\":605:622  bytes memory bstr */\n      0x00\n        /* \"practical2c.sol\":643:646  len */\n      dup3\n        /* \"practical2c.sol\":625:648  new bytes(uint256(len)) */\n      0xffffffffffffffff\n      dup2\n      gt\n      iszero\n      tag_24\n      jumpi\n      tag_25\n      tag_26\n      jump\t// in\n    tag_25:\n    tag_24:\n      mload(0x40)\n      swap1\n      dup1\n      dup3\n      mstore\n      dup1\n      0x1f\n      add\n      not(0x1f)\n      and\n      0x20\n      add\n      dup3\n      add\n      0x40\n      mstore\n      dup1\n      iszero\n      tag_27\n      jumpi\n      dup2\n      0x20\n      add\n      0x01\n      dup3\n      mul\n      dup1\n      calldatasize\n      dup4\n      calldatacopy\n      dup1\n      dup3\n      add\n      swap2\n      pop\n      pop\n      swap1\n      pop\n    tag_27:\n      pop\n        /* \"practical2c.sol\":605:648  bytes memory bstr = new bytes(uint256(len)) */\n      swap1\n      pop\n        /* \"practical2c.sol\":658:772  for (k; k >= 0; k--) {... */\n    tag_28:\n        /* \"practical2c.sol\":671:672  0 */\n      0x00\n        /* \"practical2c.sol\":666:667  k */\n      dup3\n        /* \"practical2c.sol\":666:672  k >= 0 */\n      slt\n        /* \"practical2c.sol\":658:772  for (k; k >= 0; k--) {... */\n      tag_29\n      jumpi\n        /* \"practical2c.sol\":735:737  10 */\n      0x0a\n        /* \"practical2c.sol\":731:732  i */\n      dup7\n        /* \"practical2c.sol\":731:737  i % 10 */\n      tag_31\n      swap2\n      swap1\n      tag_32\n      jump\t// in\n    tag_31:\n        /* \"practical2c.sol\":725:727  48 */\n      0x30\n        /* \"practical2c.sol\":725:738  48 + (i % 10) */\n      tag_33\n      swap2\n      swap1\n      tag_34\n      jump\t// in\n    tag_33:\n        /* \"practical2c.sol\":712:740  bytes1(uint8(48 + (i % 10))) */\n      0xf8\n      shl\n        /* \"practical2c.sol\":693:697  bstr */\n      dup2\n        /* \"practical2c.sol\":706:707  k */\n      dup4\n        /* \"practical2c.sol\":693:709  bstr[uint256(k)] */\n      dup2\n      mload\n      dup2\n      lt\n      tag_35\n      jumpi\n      tag_36\n      tag_37\n      jump\t// in\n    tag_36:\n    tag_35:\n      0x20\n      add\n      add\n        /* \"practical2c.sol\":693:740  bstr[uint256(k)] = bytes1(uint8(48 + (i % 10))) */\n      swap1\n      not(0xffffffffffffffffffffffffffffffffffffffffffffffffffffffffffffff)\n      and\n      swap1\n      dup2\n      0x00\n      byte\n      swap1\n      mstore8\n      pop\n        /* \"practical2c.sol\":759:761  10 */\n      0x0a\n        /* \"practical2c.sol\":754:761  i /= 10 */\n      dup7\n      tag_38\n      swap2\n      swap1\n      tag_19\n      jump\t// in\n    tag_38:\n      swap6\n      pop\n        /* \"practical2c.sol\":674:677  k-- */\n      dup2\n      dup1\n      tag_39\n      swap1\n      tag_40\n      jump\t// in\n    tag_39:\n      swap3\n      pop\n      pop\n        /* \"practical2c.sol\":658:772  for (k; k >= 0; k--) {... */\n      jump(tag_28)\n    tag_29:\n        /* \"practical2c.sol\":795:799  bstr */\n      dup1\n        /* \"practical2c.sol\":781:800  return string(bstr) */\n      swap5\n      pop\n      pop\n      pop\n      pop\n      pop\n        /* \"practical2c.sol\":333:807  function integerToString(uint256 i) public payable returns (string memory) {... */\n    tag_14:\n      swap2\n      swap1\n      pop\n      jump\t// out\n        /* \"practical2c.sol\":157:327  function getResult() public returns (string memory) {... */\n    tag_12:\n        /* \"practical2c.sol\":194:207  string memory */\n      0x60\n        /* \"practical2c.sol\":219:228  uint256 a */\n      0x00\n        /* \"practical2c.sol\":231:233  10 */\n      0x0a\n        /* \"practical2c.sol\":219:233  uint256 a = 10 */\n      swap1\n      pop\n        /* \"practical2c.sol\":243:252  uint256 b */\n      0x00\n        /* \"practical2c.sol\":255:258  113 */\n      0x71\n        /* \"practical2c.sol\":243:258  uint256 b = 113 */\n      swap1\n      pop\n        /* \"practical2c.sol\":268:277  uint256 c */\n      0x00\n        /* \"practical2c.sol\":284:285  b */\n      dup2\n        /* \"practical2c.sol\":280:281  a */\n      dup4\n        /* \"practical2c.sol\":280:285  a + b */\n      tag_42\n      swap2\n      swap1\n      tag_34\n      jump\t// in\n    tag_42:\n        /* \"practical2c.sol\":268:285  uint256 c = a + b */\n      swap1\n      pop\n        /* \"practical2c.sol\":302:320  integerToString(c) */\n      tag_43\n        /* \"practical2c.sol\":318:319  c */\n      dup2\n        /* \"practical2c.sol\":302:317  integerToString */\n      tag_7\n        /* \"practical2c.sol\":302:320  integerToString(c) */\n      jump\t// in\n    tag_43:\n        /* \"practical2c.sol\":295:320  return integerToString(c) */\n      swap4\n      pop\n      pop\n      pop\n      pop\n        /* \"practical2c.sol\":157:327  function getResult() public returns (string memory) {... */\n      swap1\n      jump\t// out\n        /* \"#utility.yul\":88:205   */\n    tag_45:\n        /* \"#utility.yul\":197:198   */\n      0x00\n        /* \"#utility.yul\":194:195   */\n      dup1\n        /* \"#utility.yul\":187:199   */\n      revert\n        /* \"#utility.yul\":334:411   */\n    tag_47:\n        /* \"#utility.yul\":371:378   */\n      0x00\n        /* \"#utility.yul\":400:405   */\n      dup2\n        /* \"#utility.yul\":389:405   */\n      swap1\n      pop\n        /* \"#utility.yul\":334:411   */\n      swap2\n      swap1\n      pop\n      jump\t// out\n        /* \"#utility.yul\":417:539   */\n    tag_48:\n        /* \"#utility.yul\":490:514   */\n      tag_64\n        /* \"#utility.yul\":508:513   */\n      dup2\n        /* \"#utility.yul\":490:514   */\n      tag_47\n      jump\t// in\n    tag_64:\n        /* \"#utility.yul\":483:488   */\n      dup2\n        /* \"#utility.yul\":480:515   */\n      eq\n        /* \"#utility.yul\":470:533   */\n      tag_65\n      jumpi\n        /* \"#utility.yul\":529:530   */\n      0x00\n        /* \"#utility.yul\":526:527   */\n      dup1\n        /* \"#utility.yul\":519:531   */\n      revert\n        /* \"#utility.yul\":470:533   */\n    tag_65:\n        /* \"#utility.yul\":417:539   */\n      pop\n      jump\t// out\n        /* \"#utility.yul\":545:684   */\n    tag_49:\n        /* \"#utility.yul\":591:596   */\n      0x00\n        /* \"#utility.yul\":629:635   */\n      dup2\n        /* \"#utility.yul\":616:636   */\n      calldataload\n        /* \"#utility.yul\":607:636   */\n      swap1\n      pop\n        /* \"#utility.yul\":645:678   */\n      tag_67\n        /* \"#utility.yul\":672:677   */\n      dup2\n        /* \"#utility.yul\":645:678   */\n      tag_48\n      jump\t// in\n    tag_67:\n        /* \"#utility.yul\":545:684   */\n      swap3\n      swap2\n      pop\n      pop\n      jump\t// out\n        /* \"#utility.yul\":690:1019   */\n    tag_6:\n        /* \"#utility.yul\":749:755   */\n      0x00\n        /* \"#utility.yul\":798:800   */\n      0x20\n        /* \"#utility.yul\":786:795   */\n      dup3\n        /* \"#utility.yul\":777:784   */\n      dup5\n        /* \"#utility.yul\":773:796   */\n      sub\n        /* \"#utility.yul\":769:801   */\n      slt\n        /* \"#utility.yul\":766:885   */\n      iszero\n      tag_69\n      jumpi\n        /* \"#utility.yul\":804:883   */\n      tag_70\n      tag_45\n      jump\t// in\n    tag_70:\n        /* \"#utility.yul\":766:885   */\n    tag_69:\n        /* \"#utility.yul\":924:925   */\n      0x00\n        /* \"#utility.yul\":949:1002   */\n      tag_71\n        /* \"#utility.yul\":994:1001   */\n      dup5\n        /* \"#utility.yul\":985:991   */\n      dup3\n        /* \"#utility.yul\":974:983   */\n      dup6\n        /* \"#utility.yul\":970:992   */\n      add\n        /* \"#utility.yul\":949:1002   */\n      tag_49\n      jump\t// in\n    tag_71:\n        /* \"#utility.yul\":939:1002   */\n      swap2\n      pop\n        /* \"#utility.yul\":895:1012   */\n      pop\n        /* \"#utility.yul\":690:1019   */\n      swap3\n      swap2\n      pop\n      pop\n      jump\t// out\n        /* \"#utility.yul\":1025:1124   */\n    tag_50:\n        /* \"#utility.yul\":1077:1083   */\n      0x00\n        /* \"#utility.yul\":1111:1116   */\n      dup2\n        /* \"#utility.yul\":1105:1117   */\n      mload\n        /* \"#utility.yul\":1095:1117   */\n      swap1\n      pop\n        /* \"#utility.yul\":1025:1124   */\n      swap2\n      swap1\n      pop\n      jump\t// out\n        /* \"#utility.yul\":1130:1299   */\n    tag_51:\n        /* \"#utility.yul\":1214:1225   */\n      0x00\n        /* \"#utility.yul\":1248:1254   */\n      dup3\n        /* \"#utility.yul\":1243:1246   */\n      dup3\n        /* \"#utility.yul\":1236:1255   */\n      mstore\n        /* \"#utility.yul\":1288:1292   */\n      0x20\n        /* \"#utility.yul\":1283:1286   */\n      dup3\n        /* \"#utility.yul\":1279:1293   */\n      add\n        /* \"#utility.yul\":1264:1293   */\n      swap1\n      pop\n        /* \"#utility.yul\":1130:1299   */\n      swap3\n      swap2\n      pop\n      pop\n      jump\t// out\n        /* \"#utility.yul\":1305:1551   */\n    tag_52:\n        /* \"#utility.yul\":1386:1387   */\n      0x00\n        /* \"#utility.yul\":1396:1509   */\n    tag_75:\n        /* \"#utility.yul\":1410:1416   */\n      dup4\n        /* \"#utility.yul\":1407:1408   */\n      dup2\n        /* \"#utility.yul\":1404:1417   */\n      lt\n        /* \"#utility.yul\":1396:1509   */\n      iszero\n      tag_77\n      jumpi\n        /* \"#utility.yul\":1495:1496   */\n      dup1\n        /* \"#utility.yul\":1490:1493   */\n      dup3\n        /* \"#utility.yul\":1486:1497   */\n      add\n        /* \"#utility.yul\":1480:1498   */\n      mload\n        /* \"#utility.yul\":1476:1477   */\n      dup2\n        /* \"#utility.yul\":1471:1474   */\n      dup5\n        /* \"#utility.yul\":1467:1478   */\n      add\n        /* \"#utility.yul\":1460:1499   */\n      mstore\n        /* \"#utility.yul\":1432:1434   */\n      0x20\n        /* \"#utility.yul\":1429:1430   */\n      dup2\n        /* \"#utility.yul\":1425:1435   */\n      add\n        /* \"#utility.yul\":1420:1435   */\n      swap1\n      pop\n        /* \"#utility.yul\":1396:1509   */\n      jump(tag_75)\n    tag_77:\n        /* \"#utility.yul\":1543:1544   */\n      0x00\n        /* \"#utility.yul\":1534:1540   */\n      dup5\n        /* \"#utility.yul\":1529:1532   */\n      dup5\n        /* \"#utility.yul\":1525:1541   */\n      add\n        /* \"#utility.yul\":1518:1545   */\n      mstore\n        /* \"#utility.yul\":1367:1551   */\n      pop\n        /* \"#utility.yul\":1305:1551   */\n      pop\n      pop\n      pop\n      jump\t// out\n        /* \"#utility.yul\":1557:1659   */\n    tag_53:\n        /* \"#utility.yul\":1598:1604   */\n      0x00\n        /* \"#utility.yul\":1649:1651   */\n      0x1f\n        /* \"#utility.yul\":1645:1652   */\n      not\n        /* \"#utility.yul\":1640:1642   */\n      0x1f\n        /* \"#utility.yul\":1633:1638   */\n      dup4\n        /* \"#utility.yul\":1629:1643   */\n      add\n        /* \"#utility.yul\":1625:1653   */\n      and\n        /* \"#utility.yul\":1615:1653   */\n      swap1\n      pop\n        /* \"#utility.yul\":1557:1659   */\n      swap2\n      swap1\n      pop\n      jump\t// out\n        /* \"#utility.yul\":1665:2042   */\n    tag_54:\n        /* \"#utility.yul\":1753:1756   */\n      0x00\n        /* \"#utility.yul\":1781:1820   */\n      tag_80\n        /* \"#utility.yul\":1814:1819   */\n      dup3\n        /* \"#utility.yul\":1781:1820   */\n      tag_50\n      jump\t// in\n    tag_80:\n        /* \"#utility.yul\":1836:1907   */\n      tag_81\n        /* \"#utility.yul\":1900:1906   */\n      dup2\n        /* \"#utility.yul\":1895:1898   */\n      dup6\n        /* \"#utility.yul\":1836:1907   */\n      tag_51\n      jump\t// in\n    tag_81:\n        /* \"#utility.yul\":1829:1907   */\n      swap4\n      pop\n        /* \"#utility.yul\":1916:1981   */\n      tag_82\n        /* \"#utility.yul\":1974:1980   */\n      dup2\n        /* \"#utility.yul\":1969:1972   */\n      dup6\n        /* \"#utility.yul\":1962:1966   */\n      0x20\n        /* \"#utility.yul\":1955:1960   */\n      dup7\n        /* \"#utility.yul\":1951:1967   */\n      add\n        /* \"#utility.yul\":1916:1981   */\n      tag_52\n      jump\t// in\n    tag_82:\n        /* \"#utility.yul\":2006:2035   */\n      tag_83\n        /* \"#utility.yul\":2028:2034   */\n      dup2\n        /* \"#utility.yul\":2006:2035   */\n      tag_53\n      jump\t// in\n    tag_83:\n        /* \"#utility.yul\":2001:2004   */\n      dup5\n        /* \"#utility.yul\":1997:2036   */\n      add\n        /* \"#utility.yul\":1990:2036   */\n      swap2\n      pop\n        /* \"#utility.yul\":1757:2042   */\n      pop\n        /* \"#utility.yul\":1665:2042   */\n      swap3\n      swap2\n      pop\n      pop\n      jump\t// out\n        /* \"#utility.yul\":2048:2361   */\n    tag_9:\n        /* \"#utility.yul\":2161:2165   */\n      0x00\n        /* \"#utility.yul\":2199:2201   */\n      0x20\n        /* \"#utility.yul\":2188:2197   */\n      dup3\n        /* \"#utility.yul\":2184:2202   */\n      add\n        /* \"#utility.yul\":2176:2202   */\n      swap1\n      pop\n        /* \"#utility.yul\":2248:2257   */\n      dup2\n        /* \"#utility.yul\":2242:2246   */\n      dup2\n        /* \"#utility.yul\":2238:2258   */\n      sub\n        /* \"#utility.yul\":2234:2235   */\n      0x00\n        /* \"#utility.yul\":2223:2232   */\n      dup4\n        /* \"#utility.yul\":2219:2236   */\n      add\n        /* \"#utility.yul\":2212:2259   */\n      mstore\n        /* \"#utility.yul\":2276:2354   */\n      tag_85\n        /* \"#utility.yul\":2349:2353   */\n      dup2\n        /* \"#utility.yul\":2340:2346   */\n      dup5\n        /* \"#utility.yul\":2276:2354   */\n      tag_54\n      jump\t// in\n    tag_85:\n        /* \"#utility.yul\":2268:2354   */\n      swap1\n      pop\n        /* \"#utility.yul\":2048:2361   */\n      swap3\n      swap2\n      pop\n      pop\n      jump\t// out\n        /* \"#utility.yul\":2367:2547   */\n    tag_55:\n        /* \"#utility.yul\":2415:2492   */\n      0x4e487b7100000000000000000000000000000000000000000000000000000000\n        /* \"#utility.yul\":2412:2413   */\n      0x00\n        /* \"#utility.yul\":2405:2493   */\n      mstore\n        /* \"#utility.yul\":2512:2516   */\n      0x12\n        /* \"#utility.yul\":2509:2510   */\n      0x04\n        /* \"#utility.yul\":2502:2517   */\n      mstore\n        /* \"#utility.yul\":2536:2540   */\n      0x24\n        /* \"#utility.yul\":2533:2534   */\n      0x00\n        /* \"#utility.yul\":2526:2541   */\n      revert\n        /* \"#utility.yul\":2553:2733   */\n    tag_56:\n        /* \"#utility.yul\":2601:2678   */\n      0x4e487b7100000000000000000000000000000000000000000000000000000000\n        /* \"#utility.yul\":2598:2599   */\n      0x00\n        /* \"#utility.yul\":2591:2679   */\n      mstore\n        /* \"#utility.yul\":2698:2702   */\n      0x11\n        /* \"#utility.yul\":2695:2696   */\n      0x04\n        /* \"#utility.yul\":2688:2703   */\n      mstore\n        /* \"#utility.yul\":2722:2726   */\n      0x24\n        /* \"#utility.yul\":2719:2720   */\n      0x00\n        /* \"#utility.yul\":2712:2727   */\n      revert\n        /* \"#utility.yul\":2739:2924   */\n    tag_19:\n        /* \"#utility.yul\":2779:2780   */\n      0x00\n        /* \"#utility.yul\":2796:2816   */\n      tag_89\n        /* \"#utility.yul\":2814:2815   */\n      dup3\n        /* \"#utility.yul\":2796:2816   */\n      tag_47\n      jump\t// in\n    tag_89:\n        /* \"#utility.yul\":2791:2816   */\n      swap2\n      pop\n        /* \"#utility.yul\":2830:2850   */\n      tag_90\n        /* \"#utility.yul\":2848:2849   */\n      dup4\n        /* \"#utility.yul\":2830:2850   */\n      tag_47\n      jump\t// in\n    tag_90:\n        /* \"#utility.yul\":2825:2850   */\n      swap3\n      pop\n        /* \"#utility.yul\":2869:2870   */\n      dup3\n        /* \"#utility.yul\":2859:2894   */\n      tag_91\n      jumpi\n        /* \"#utility.yul\":2874:2892   */\n      tag_92\n      tag_55\n      jump\t// in\n    tag_92:\n        /* \"#utility.yul\":2859:2894   */\n    tag_91:\n        /* \"#utility.yul\":2916:2917   */\n      dup3\n        /* \"#utility.yul\":2913:2914   */\n      dup3\n        /* \"#utility.yul\":2909:2918   */\n      div\n        /* \"#utility.yul\":2904:2918   */\n      swap1\n      pop\n        /* \"#utility.yul\":2739:2924   */\n      swap3\n      swap2\n      pop\n      pop\n      jump\t// out\n        /* \"#utility.yul\":2930:3006   */\n    tag_57:\n        /* \"#utility.yul\":2966:2973   */\n      0x00\n        /* \"#utility.yul\":2995:3000   */\n      dup2\n        /* \"#utility.yul\":2984:3000   */\n      swap1\n      pop\n        /* \"#utility.yul\":2930:3006   */\n      swap2\n      swap1\n      pop\n      jump\t// out\n        /* \"#utility.yul\":3012:3387   */\n    tag_21:\n        /* \"#utility.yul\":3051:3054   */\n      0x00\n        /* \"#utility.yul\":3070:3089   */\n      tag_95\n        /* \"#utility.yul\":3087:3088   */\n      dup3\n        /* \"#utility.yul\":3070:3089   */\n      tag_57\n      jump\t// in\n    tag_95:\n        /* \"#utility.yul\":3065:3089   */\n      swap2\n      pop\n        /* \"#utility.yul\":3103:3122   */\n      tag_96\n        /* \"#utility.yul\":3120:3121   */\n      dup4\n        /* \"#utility.yul\":3103:3122   */\n      tag_57\n      jump\t// in\n    tag_96:\n        /* \"#utility.yul\":3098:3122   */\n      swap3\n      pop\n        /* \"#utility.yul\":3145:3146   */\n      dup3\n        /* \"#utility.yul\":3142:3143   */\n      dup3\n        /* \"#utility.yul\":3138:3147   */\n      add\n        /* \"#utility.yul\":3131:3147   */\n      swap1\n      pop\n        /* \"#utility.yul\":3343:3344   */\n      dup3\n        /* \"#utility.yul\":3338:3341   */\n      dup2\n        /* \"#utility.yul\":3334:3345   */\n      slt\n        /* \"#utility.yul\":3327:3346   */\n      iszero\n        /* \"#utility.yul\":3323:3324   */\n      0x00\n        /* \"#utility.yul\":3320:3321   */\n      dup4\n        /* \"#utility.yul\":3316:3325   */\n      slt\n        /* \"#utility.yul\":3312:3347   */\n      and\n        /* \"#utility.yul\":3295:3296   */\n      dup4\n        /* \"#utility.yul\":3290:3293   */\n      dup3\n        /* \"#utility.yul\":3286:3297   */\n      slt\n        /* \"#utility.yul\":3281:3282   */\n      0x00\n        /* \"#utility.yul\":3278:3279   */\n      dup5\n        /* \"#utility.yul\":3274:3283   */\n      slt\n        /* \"#utility.yul\":3267:3284   */\n      iszero\n        /* \"#utility.yul\":3263:3298   */\n      and\n        /* \"#utility.yul\":3247:3357   */\n      or\n        /* \"#utility.yul\":3244:3380   */\n      iszero\n      tag_97\n      jumpi\n        /* \"#utility.yul\":3360:3378   */\n      tag_98\n      tag_56\n      jump\t// in\n    tag_98:\n        /* \"#utility.yul\":3244:3380   */\n    tag_97:\n        /* \"#utility.yul\":3012:3387   */\n      swap3\n      swap2\n      pop\n      pop\n      jump\t// out\n        /* \"#utility.yul\":3393:3765   */\n    tag_23:\n        /* \"#utility.yul\":3432:3436   */\n      0x00\n        /* \"#utility.yul\":3452:3471   */\n      tag_100\n        /* \"#utility.yul\":3469:3470   */\n      dup3\n        /* \"#utility.yul\":3452:3471   */\n      tag_57\n      jump\t// in\n    tag_100:\n        /* \"#utility.yul\":3447:3471   */\n      swap2\n      pop\n        /* \"#utility.yul\":3485:3504   */\n      tag_101\n        /* \"#utility.yul\":3502:3503   */\n      dup4\n        /* \"#utility.yul\":3485:3504   */\n      tag_57\n      jump\t// in\n    tag_101:\n        /* \"#utility.yul\":3480:3504   */\n      swap3\n      pop\n        /* \"#utility.yul\":3528:3529   */\n      dup3\n        /* \"#utility.yul\":3525:3526   */\n      dup3\n        /* \"#utility.yul\":3521:3530   */\n      sub\n        /* \"#utility.yul\":3513:3530   */\n      swap1\n      pop\n        /* \"#utility.yul\":3722:3723   */\n      dup2\n        /* \"#utility.yul\":3716:3720   */\n      dup2\n        /* \"#utility.yul\":3712:3724   */\n      slt\n        /* \"#utility.yul\":3708:3709   */\n      0x00\n        /* \"#utility.yul\":3705:3706   */\n      dup5\n        /* \"#utility.yul\":3701:3710   */\n      slt\n        /* \"#utility.yul\":3697:3725   */\n      and\n        /* \"#utility.yul\":3680:3681   */\n      dup3\n        /* \"#utility.yul\":3674:3678   */\n      dup3\n        /* \"#utility.yul\":3670:3682   */\n      sgt\n        /* \"#utility.yul\":3665:3666   */\n      0x00\n        /* \"#utility.yul\":3662:3663   */\n      dup6\n        /* \"#utility.yul\":3658:3667   */\n      slt\n        /* \"#utility.yul\":3651:3668   */\n      iszero\n        /* \"#utility.yul\":3647:3683   */\n      and\n        /* \"#utility.yul\":3631:3735   */\n      or\n        /* \"#utility.yul\":3628:3758   */\n      iszero\n      tag_102\n      jumpi\n        /* \"#utility.yul\":3738:3756   */\n      tag_103\n      tag_56\n      jump\t// in\n    tag_103:\n        /* \"#utility.yul\":3628:3758   */\n    tag_102:\n        /* \"#utility.yul\":3393:3765   */\n      swap3\n      swap2\n      pop\n      pop\n      jump\t// out\n        /* \"#utility.yul\":3771:3951   */\n    tag_26:\n        /* \"#utility.yul\":3819:3896   */\n      0x4e487b7100000000000000000000000000000000000000000000000000000000\n        /* \"#utility.yul\":3816:3817   */\n      0x00\n        /* \"#utility.yul\":3809:3897   */\n      mstore\n        /* \"#utility.yul\":3916:3920   */\n      0x41\n        /* \"#utility.yul\":3913:3914   */\n      0x04\n        /* \"#utility.yul\":3906:3921   */\n      mstore\n        /* \"#utility.yul\":3940:3944   */\n      0x24\n        /* \"#utility.yul\":3937:3938   */\n      0x00\n        /* \"#utility.yul\":3930:3945   */\n      revert\n        /* \"#utility.yul\":3957:4133   */\n    tag_32:\n        /* \"#utility.yul\":3989:3990   */\n      0x00\n        /* \"#utility.yul\":4006:4026   */\n      tag_106\n        /* \"#utility.yul\":4024:4025   */\n      dup3\n        /* \"#utility.yul\":4006:4026   */\n      tag_47\n      jump\t// in\n    tag_106:\n        /* \"#utility.yul\":4001:4026   */\n      swap2\n      pop\n        /* \"#utility.yul\":4040:4060   */\n      tag_107\n        /* \"#utility.yul\":4058:4059   */\n      dup4\n        /* \"#utility.yul\":4040:4060   */\n      tag_47\n      jump\t// in\n    tag_107:\n        /* \"#utility.yul\":4035:4060   */\n      swap3\n      pop\n        /* \"#utility.yul\":4079:4080   */\n      dup3\n        /* \"#utility.yul\":4069:4104   */\n      tag_108\n      jumpi\n        /* \"#utility.yul\":4084:4102   */\n      tag_109\n      tag_55\n      jump\t// in\n    tag_109:\n        /* \"#utility.yul\":4069:4104   */\n    tag_108:\n        /* \"#utility.yul\":4125:4126   */\n      dup3\n        /* \"#utility.yul\":4122:4123   */\n      dup3\n        /* \"#utility.yul\":4118:4127   */\n      mod\n        /* \"#utility.yul\":4113:4127   */\n      swap1\n      pop\n        /* \"#utility.yul\":3957:4133   */\n      swap3\n      swap2\n      pop\n      pop\n      jump\t// out\n        /* \"#utility.yul\":4139:4330   */\n    tag_34:\n        /* \"#utility.yul\":4179:4182   */\n      0x00\n        /* \"#utility.yul\":4198:4218   */\n      tag_111\n        /* \"#utility.yul\":4216:4217   */\n      dup3\n        /* \"#utility.yul\":4198:4218   */\n      tag_47\n      jump\t// in\n    tag_111:\n        /* \"#utility.yul\":4193:4218   */\n      swap2\n      pop\n        /* \"#utility.yul\":4232:4252   */\n      tag_112\n        /* \"#utility.yul\":4250:4251   */\n      dup4\n        /* \"#utility.yul\":4232:4252   */\n      tag_47\n      jump\t// in\n    tag_112:\n        /* \"#utility.yul\":4227:4252   */\n      swap3\n      pop\n        /* \"#utility.yul\":4275:4276   */\n      dup3\n        /* \"#utility.yul\":4272:4273   */\n      dup3\n        /* \"#utility.yul\":4268:4277   */\n      add\n        /* \"#utility.yul\":4261:4277   */\n      swap1\n      pop\n        /* \"#utility.yul\":4296:4299   */\n      dup1\n        /* \"#utility.yul\":4293:4294   */\n      dup3\n        /* \"#utility.yul\":4290:4300   */\n      gt\n        /* \"#utility.yul\":4287:4323   */\n      iszero\n      tag_113\n      jumpi\n        /* \"#utility.yul\":4303:4321   */\n      tag_114\n      tag_56\n      jump\t// in\n    tag_114:\n        /* \"#utility.yul\":4287:4323   */\n    tag_113:\n        /* \"#utility.yul\":4139:4330   */\n      swap3\n      swap2\n      pop\n      pop\n      jump\t// out\n        /* \"#utility.yul\":4336:4516   */\n    tag_37:\n        /* \"#utility.yul\":4384:4461   */\n      0x4e487b7100000000000000000000000000000000000000000000000000000000\n        /* \"#utility.yul\":4381:4382   */\n      0x00\n        /* \"#utility.yul\":4374:4462   */\n      mstore\n        /* \"#utility.yul\":4481:4485   */\n      0x32\n        /* \"#utility.yul\":4478:4479   */\n      0x04\n        /* \"#utility.yul\":4471:4486   */\n      mstore\n        /* \"#utility.yul\":4505:4509   */\n      0x24\n        /* \"#utility.yul\":4502:4503   */\n      0x00\n        /* \"#utility.yul\":4495:4510   */\n      revert\n        /* \"#utility.yul\":4522:4753   */\n    tag_40:\n        /* \"#utility.yul\":4560:4563   */\n      0x00\n        /* \"#utility.yul\":4583:4606   */\n      tag_117\n        /* \"#utility.yul\":4600:4605   */\n      dup3\n        /* \"#utility.yul\":4583:4606   */\n      tag_57\n      jump\t// in\n    tag_117:\n        /* \"#utility.yul\":4574:4606   */\n      swap2\n      pop\n        /* \"#utility.yul\":4628:4694   */\n      0x8000000000000000000000000000000000000000000000000000000000000000\n        /* \"#utility.yul\":4621:4626   */\n      dup3\n        /* \"#utility.yul\":4618:4695   */\n      sub\n        /* \"#utility.yul\":4615:4718   */\n      tag_118\n      jumpi\n        /* \"#utility.yul\":4698:4716   */\n      tag_119\n      tag_56\n      jump\t// in\n    tag_119:\n        /* \"#utility.yul\":4615:4718   */\n    tag_118:\n        /* \"#utility.yul\":4745:4746   */\n      0x01\n        /* \"#utility.yul\":4738:4743   */\n      dup3\n        /* \"#utility.yul\":4734:4747   */\n      sub\n        /* \"#utility.yul\":4727:4747   */\n      swap1\n      pop\n        /* \"#utility.yul\":4522:4753   */\n      swap2\n      swap1\n      pop\n      jump\t// out\n\n    auxdata: 0xa264697066735822122010749192cc5af91ba643b921455969de8af9e0089de19c061ba0bcc1ac6771d064736f6c63430008120033\n}\n",
				"bytecode": {
					"linkReferences": {},
					"object": "608060405234801561001057600080fd5b506105a5806100206000396000f3fe6080604052600436106100295760003560e01c8063c88a37101461002e578063de2927891461005e575b600080fd5b61004860048036038101906100439190610265565b610089565b6040516100559190610322565b60405180910390f35b34801561006a57600080fd5b506100736101fb565b6040516100809190610322565b60405180910390f35b6060600082036100d0576040518060400160405280600181526020017f300000000000000000000000000000000000000000000000000000000000000081525090506101f6565b600082905060005b6000821461010357600a826100ed91906103a2565b91506001816100fc91906103dd565b90506100d8565b60006001826101129190610421565b905060008267ffffffffffffffff8111156101305761012f610464565b5b6040519080825280601f01601f1916602001820160405280156101625781602001600182028036833780820191505090505b5090505b600082126101ee57600a8661017b9190610493565b603061018791906104c4565b60f81b81838151811061019d5761019c6104f8565b5b60200101907effffffffffffffffffffffffffffffffffffffffffffffffffffffffffffff1916908160001a905350600a866101d991906103a2565b955081806101e690610527565b925050610166565b809450505050505b919050565b60606000600a90506000607190506000818361021791906104c4565b905061022281610089565b935050505090565b600080fd5b6000819050919050565b6102428161022f565b811461024d57600080fd5b50565b60008135905061025f81610239565b92915050565b60006020828403121561027b5761027a61022a565b5b600061028984828501610250565b91505092915050565b600081519050919050565b600082825260208201905092915050565b60005b838110156102cc5780820151818401526020810190506102b1565b60008484015250505050565b6000601f19601f8301169050919050565b60006102f482610292565b6102fe818561029d565b935061030e8185602086016102ae565b610317816102d8565b840191505092915050565b6000602082019050818103600083015261033c81846102e9565b905092915050565b7f4e487b7100000000000000000000000000000000000000000000000000000000600052601260045260246000fd5b7f4e487b7100000000000000000000000000000000000000000000000000000000600052601160045260246000fd5b60006103ad8261022f565b91506103b88361022f565b9250826103c8576103c7610344565b5b828204905092915050565b6000819050919050565b60006103e8826103d3565b91506103f3836103d3565b92508282019050828112156000831216838212600084121516171561041b5761041a610373565b5b92915050565b600061042c826103d3565b9150610437836103d3565b925082820390508181126000841216828213600085121516171561045e5761045d610373565b5b92915050565b7f4e487b7100000000000000000000000000000000000000000000000000000000600052604160045260246000fd5b600061049e8261022f565b91506104a98361022f565b9250826104b9576104b8610344565b5b828206905092915050565b60006104cf8261022f565b91506104da8361022f565b92508282019050808211156104f2576104f1610373565b5b92915050565b7f4e487b7100000000000000000000000000000000000000000000000000000000600052603260045260246000fd5b6000610532826103d3565b91507f8000000000000000000000000000000000000000000000000000000000000000820361056457610563610373565b5b60018203905091905056fea264697066735822122010749192cc5af91ba643b921455969de8af9e0089de19c061ba0bcc1ac6771d064736f6c63430008120033",
					"opcodes": "PUSH1 0x80 PUSH1 0x40 MSTORE CALLVALUE DUP1 ISZERO PUSH2 0x10 JUMPI PUSH1 0x0 DUP1 REVERT JUMPDEST POP PUSH2 0x5A5 DUP1 PUSH2 0x20 PUSH1 0x0 CODECOPY PUSH1 0x0 RETURN INVALID PUSH1 0x80 PUSH1 0x40 MSTORE PUSH1 0x4 CALLDATASIZE LT PUSH2 0x29 JUMPI PUSH1 0x0 CALLDATALOAD PUSH1 0xE0 SHR DUP1 PUSH4 0xC88A3710 EQ PUSH2 0x2E JUMPI DUP1 PUSH4 0xDE292789 EQ PUSH2 0x5E JUMPI JUMPDEST PUSH1 0x0 DUP1 REVERT JUMPDEST PUSH2 0x48 PUSH1 0x4 DUP1 CALLDATASIZE SUB DUP2 ADD SWAP1 PUSH2 0x43 SWAP2 SWAP1 PUSH2 0x265 JUMP JUMPDEST PUSH2 0x89 JUMP JUMPDEST PUSH1 0x40 MLOAD PUSH2 0x55 SWAP2 SWAP1 PUSH2 0x322 JUMP JUMPDEST PUSH1 0x40 MLOAD DUP1 SWAP2 SUB SWAP1 RETURN JUMPDEST CALLVALUE DUP1 ISZERO PUSH2 0x6A JUMPI PUSH1 0x0 DUP1 REVERT JUMPDEST POP PUSH2 0x73 PUSH2 0x1FB JUMP JUMPDEST PUSH1 0x40 MLOAD PUSH2 0x80 SWAP2 SWAP1 PUSH2 0x322 JUMP JUMPDEST PUSH1 0x40 MLOAD DUP1 SWAP2 SUB SWAP1 RETURN JUMPDEST PUSH1 0x60 PUSH1 0x0 DUP3 SUB PUSH2 0xD0 JUMPI PUSH1 0x40 MLOAD DUP1 PUSH1 0x40 ADD PUSH1 0x40 MSTORE DUP1 PUSH1 0x1 DUP2 MSTORE PUSH1 0x20 ADD PUSH32 0x3000000000000000000000000000000000000000000000000000000000000000 DUP2 MSTORE POP SWAP1 POP PUSH2 0x1F6 JUMP JUMPDEST PUSH1 0x0 DUP3 SWAP1 POP PUSH1 0x0 JUMPDEST PUSH1 0x0 DUP3 EQ PUSH2 0x103 JUMPI PUSH1 0xA DUP3 PUSH2 0xED SWAP2 SWAP1 PUSH2 0x3A2 JUMP JUMPDEST SWAP2 POP PUSH1 0x1 DUP2 PUSH2 0xFC SWAP2 SWAP1 PUSH2 0x3DD JUMP JUMPDEST SWAP1 POP PUSH2 0xD8 JUMP JUMPDEST PUSH1 0x0 PUSH1 0x1 DUP3 PUSH2 0x112 SWAP2 SWAP1 PUSH2 0x421 JUMP JUMPDEST SWAP1 POP PUSH1 0x0 DUP3 PUSH8 0xFFFFFFFFFFFFFFFF DUP2 GT ISZERO PUSH2 0x130 JUMPI PUSH2 0x12F PUSH2 0x464 JUMP JUMPDEST JUMPDEST PUSH1 0x40 MLOAD SWAP1 DUP1 DUP3 MSTORE DUP1 PUSH1 0x1F ADD PUSH1 0x1F NOT AND PUSH1 0x20 ADD DUP3 ADD PUSH1 0x40 MSTORE DUP1 ISZERO PUSH2 0x162 JUMPI DUP2 PUSH1 0x20 ADD PUSH1 0x1 DUP3 MUL DUP1 CALLDATASIZE DUP4 CALLDATACOPY DUP1 DUP3 ADD SWAP2 POP POP SWAP1 POP JUMPDEST POP SWAP1 POP JUMPDEST PUSH1 0x0 DUP3 SLT PUSH2 0x1EE JUMPI PUSH1 0xA DUP7 PUSH2 0x17B SWAP2 SWAP1 PUSH2 0x493 JUMP JUMPDEST PUSH1 0x30 PUSH2 0x187 SWAP2 SWAP1 PUSH2 0x4C4 JUMP JUMPDEST PUSH1 0xF8 SHL DUP2 DUP4 DUP2 MLOAD DUP2 LT PUSH2 0x19D JUMPI PUSH2 0x19C PUSH2 0x4F8 JUMP JUMPDEST JUMPDEST PUSH1 0x20 ADD ADD SWAP1 PUSH31 0xFFFFFFFFFFFFFFFFFFFFFFFFFFFFFFFFFFFFFFFFFFFFFFFFFFFFFFFFFFFFFF NOT AND SWAP1 DUP2 PUSH1 0x0 BYTE SWAP1 MSTORE8 POP PUSH1 0xA DUP7 PUSH2 0x1D9 SWAP2 SWAP1 PUSH2 0x3A2 JUMP JUMPDEST SWAP6 POP DUP2 DUP1 PUSH2 0x1E6 SWAP1 PUSH2 0x527 JUMP JUMPDEST SWAP3 POP POP PUSH2 0x166 JUMP JUMPDEST DUP1 SWAP5 POP POP POP POP POP JUMPDEST SWAP2 SWAP1 POP JUMP JUMPDEST PUSH1 0x60 PUSH1 0x0 PUSH1 0xA SWAP1 POP PUSH1 0x0 PUSH1 0x71 SWAP1 POP PUSH1 0x0 DUP2 DUP4 PUSH2 0x217 SWAP2 SWAP1 PUSH2 0x4C4 JUMP JUMPDEST SWAP1 POP PUSH2 0x222 DUP2 PUSH2 0x89 JUMP JUMPDEST SWAP4 POP POP POP POP SWAP1 JUMP JUMPDEST PUSH1 0x0 DUP1 REVERT JUMPDEST PUSH1 0x0 DUP2 SWAP1 POP SWAP2 SWAP1 POP JUMP JUMPDEST PUSH2 0x242 DUP2 PUSH2 0x22F JUMP JUMPDEST DUP2 EQ PUSH2 0x24D JUMPI PUSH1 0x0 DUP1 REVERT JUMPDEST POP JUMP JUMPDEST PUSH1 0x0 DUP2 CALLDATALOAD SWAP1 POP PUSH2 0x25F DUP2 PUSH2 0x239 JUMP JUMPDEST SWAP3 SWAP2 POP POP JUMP JUMPDEST PUSH1 0x0 PUSH1 0x20 DUP3 DUP5 SUB SLT ISZERO PUSH2 0x27B JUMPI PUSH2 0x27A PUSH2 0x22A JUMP JUMPDEST JUMPDEST PUSH1 0x0 PUSH2 0x289 DUP5 DUP3 DUP6 ADD PUSH2 0x250 JUMP JUMPDEST SWAP2 POP POP SWAP3 SWAP2 POP POP JUMP JUMPDEST PUSH1 0x0 DUP2 MLOAD SWAP1 POP SWAP2 SWAP1 POP JUMP JUMPDEST PUSH1 0x0 DUP3 DUP3 MSTORE PUSH1 0x20 DUP3 ADD SWAP1 POP SWAP3 SWAP2 POP POP JUMP JUMPDEST PUSH1 0x0 JUMPDEST DUP4 DUP2 LT ISZERO PUSH2 0x2CC JUMPI DUP1 DUP3 ADD MLOAD DUP2 DUP5 ADD MSTORE PUSH1 0x20 DUP2 ADD SWAP1 POP PUSH2 0x2B1 JUMP JUMPDEST PUSH1 0x0 DUP5 DUP5 ADD MSTORE POP POP POP POP JUMP JUMPDEST PUSH1 0x0 PUSH1 0x1F NOT PUSH1 0x1F DUP4 ADD AND SWAP1 POP SWAP2 SWAP1 POP JUMP JUMPDEST PUSH1 0x0 PUSH2 0x2F4 DUP3 PUSH2 0x292 JUMP JUMPDEST PUSH2 0x2FE DUP2 DUP6 PUSH2 0x29D JUMP JUMPDEST SWAP4 POP PUSH2 0x30E DUP2 DUP6 PUSH1 0x20 DUP7 ADD PUSH2 0x2AE JUMP JUMPDEST PUSH2 0x317 DUP2 PUSH2 0x2D8 JUMP JUMPDEST DUP5 ADD SWAP2 POP POP SWAP3 SWAP2 POP POP JUMP JUMPDEST PUSH1 0x0 PUSH1 0x20 DUP3 ADD SWAP1 POP DUP2 DUP2 SUB PUSH1 0x0 DUP4 ADD MSTORE PUSH2 0x33C DUP2 DUP5 PUSH2 0x2E9 JUMP JUMPDEST SWAP1 POP SWAP3 SWAP2 POP POP JUMP JUMPDEST PUSH32 0x4E487B7100000000000000000000000000000000000000000000000000000000 PUSH1 0x0 MSTORE PUSH1 0x12 PUSH1 0x4 MSTORE PUSH1 0x24 PUSH1 0x0 REVERT JUMPDEST PUSH32 0x4E487B7100000000000000000000000000000000000000000000000000000000 PUSH1 0x0 MSTORE PUSH1 0x11 PUSH1 0x4 MSTORE PUSH1 0x24 PUSH1 0x0 REVERT JUMPDEST PUSH1 0x0 PUSH2 0x3AD DUP3 PUSH2 0x22F JUMP JUMPDEST SWAP2 POP PUSH2 0x3B8 DUP4 PUSH2 0x22F JUMP JUMPDEST SWAP3 POP DUP3 PUSH2 0x3C8 JUMPI PUSH2 0x3C7 PUSH2 0x344 JUMP JUMPDEST JUMPDEST DUP3 DUP3 DIV SWAP1 POP SWAP3 SWAP2 POP POP JUMP JUMPDEST PUSH1 0x0 DUP2 SWAP1 POP SWAP2 SWAP1 POP JUMP JUMPDEST PUSH1 0x0 PUSH2 0x3E8 DUP3 PUSH2 0x3D3 JUMP JUMPDEST SWAP2 POP PUSH2 0x3F3 DUP4 PUSH2 0x3D3 JUMP JUMPDEST SWAP3 POP DUP3 DUP3 ADD SWAP1 POP DUP3 DUP2 SLT ISZERO PUSH1 0x0 DUP4 SLT AND DUP4 DUP3 SLT PUSH1 0x0 DUP5 SLT ISZERO AND OR ISZERO PUSH2 0x41B JUMPI PUSH2 0x41A PUSH2 0x373 JUMP JUMPDEST JUMPDEST SWAP3 SWAP2 POP POP JUMP JUMPDEST PUSH1 0x0 PUSH2 0x42C DUP3 PUSH2 0x3D3 JUMP JUMPDEST SWAP2 POP PUSH2 0x437 DUP4 PUSH2 0x3D3 JUMP JUMPDEST SWAP3 POP DUP3 DUP3 SUB SWAP1 POP DUP2 DUP2 SLT PUSH1 0x0 DUP5 SLT AND DUP3 DUP3 SGT PUSH1 0x0 DUP6 SLT ISZERO AND OR ISZERO PUSH2 0x45E JUMPI PUSH2 0x45D PUSH2 0x373 JUMP JUMPDEST JUMPDEST SWAP3 SWAP2 POP POP JUMP JUMPDEST PUSH32 0x4E487B7100000000000000000000000000000000000000000000000000000000 PUSH1 0x0 MSTORE PUSH1 0x41 PUSH1 0x4 MSTORE PUSH1 0x24 PUSH1 0x0 REVERT JUMPDEST PUSH1 0x0 PUSH2 0x49E DUP3 PUSH2 0x22F JUMP JUMPDEST SWAP2 POP PUSH2 0x4A9 DUP4 PUSH2 0x22F JUMP JUMPDEST SWAP3 POP DUP3 PUSH2 0x4B9 JUMPI PUSH2 0x4B8 PUSH2 0x344 JUMP JUMPDEST JUMPDEST DUP3 DUP3 MOD SWAP1 POP SWAP3 SWAP2 POP POP JUMP JUMPDEST PUSH1 0x0 PUSH2 0x4CF DUP3 PUSH2 0x22F JUMP JUMPDEST SWAP2 POP PUSH2 0x4DA DUP4 PUSH2 0x22F JUMP JUMPDEST SWAP3 POP DUP3 DUP3 ADD SWAP1 POP DUP1 DUP3 GT ISZERO PUSH2 0x4F2 JUMPI PUSH2 0x4F1 PUSH2 0x373 JUMP JUMPDEST JUMPDEST SWAP3 SWAP2 POP POP JUMP JUMPDEST PUSH32 0x4E487B7100000000000000000000000000000000000000000000000000000000 PUSH1 0x0 MSTORE PUSH1 0x32 PUSH1 0x4 MSTORE PUSH1 0x24 PUSH1 0x0 REVERT JUMPDEST PUSH1 0x0 PUSH2 0x532 DUP3 PUSH2 0x3D3 JUMP JUMPDEST SWAP2 POP PUSH32 0x8000000000000000000000000000000000000000000000000000000000000000 DUP3 SUB PUSH2 0x564 JUMPI PUSH2 0x563 PUSH2 0x373 JUMP JUMPDEST JUMPDEST PUSH1 0x1 DUP3 SUB SWAP1 POP SWAP2 SWAP1 POP JUMP INVALID LOG2 PUSH5 0x6970667358 0x22 SLT KECCAK256 LT PUSH21 0x9192CC5AF91BA643B921455969DE8AF9E0089DE19C MOD SHL LOG0 0xBC 0xC1 0xAC PUSH8 0x71D064736F6C6343 STOP ADDMOD SLT STOP CALLER "
				},
				"gasEstimates": {
					"creation": {
						"codeDepositCost": "289000",
						"executionCost": "331",
						"totalCost": "289331"
					},
					"external": {
						"getResult()": "infinite",
						"integerToString(uint256)": "infinite"
					}
				},
				"methodIdentifiers": {
					"getResult()": "de292789",
					"integerToString(uint256)": "c88a3710"
				}
			},
			"storageLayout": {
				"storage": [],
				"types": null
			},
			"userdoc": {
				"kind": "user",
				"methods": {},
				"version": 1
			}
		}
	}
}