{
	"data": {
		"bytecode": {
			"linkReferences": {},
			"object": "6080604052600b60005534801561001557600080fd5b506103a8806100256000396000f3fe6080604052600436106100345760003560e01c806336b166ba14610039578063b93ea81214610057578063de29278914610094575b600080fd5b6100416100bf565b60405161004e9190610178565b60405180910390f35b34801561006357600080fd5b5061007e600480360381019061007991906101ce565b61010e565b60405161008b919061021d565b60405180910390f35b3480156100a057600080fd5b506100a961013d565b6040516100b69190610251565b60405180910390f35b60008060026000546100d1919061029b565b146100dd5760006100e0565b60015b600160006101000a81548160ff021916908315150217905550600160009054906101000a900460ff16905090565b600081831361012857828261012391906102fb565b610135565b818361013491906102fb565b5b905092915050565b600080600a90506000603290508082610156919061033e565b9250505090565b60008115159050919050565b6101728161015d565b82525050565b600060208201905061018d6000830184610169565b92915050565b600080fd5b6000819050919050565b6101ab81610198565b81146101b657600080fd5b50565b6000813590506101c8816101a2565b92915050565b600080604083850312156101e5576101e4610193565b5b60006101f3858286016101b9565b9250506020610204858286016101b9565b9150509250929050565b61021781610198565b82525050565b6000602082019050610232600083018461020e565b92915050565b6000819050919050565b61024b81610238565b82525050565b60006020820190506102666000830184610242565b92915050565b7f4e487b7100000000000000000000000000000000000000000000000000000000600052601260045260246000fd5b60006102a682610198565b91506102b183610198565b9250826102c1576102c061026c565b5b828207905092915050565b7f4e487b7100000000000000000000000000000000000000000000000000000000600052601160045260246000fd5b600061030682610198565b915061031183610198565b9250828203905081811260008412168282136000851215161715610338576103376102cc565b5b92915050565b600061034982610238565b915061035483610238565b925082820190508082111561036c5761036b6102cc565b5b9291505056fea26469706673582212207be70df6b1fc2ec3aadb7fedbbb3b446c51f1a7d769e4f3dcca2384524b2ed9464736f6c63430008120033",
			"opcodes": "PUSH1 0x80 PUSH1 0x40 MSTORE PUSH1 0xB PUSH1 0x0 SSTORE CALLVALUE DUP1 ISZERO PUSH2 0x15 JUMPI PUSH1 0x0 DUP1 REVERT JUMPDEST POP PUSH2 0x3A8 DUP1 PUSH2 0x25 PUSH1 0x0 CODECOPY PUSH1 0x0 RETURN INVALID PUSH1 0x80 PUSH1 0x40 MSTORE PUSH1 0x4 CALLDATASIZE LT PUSH2 0x34 JUMPI PUSH1 0x0 CALLDATALOAD PUSH1 0xE0 SHR DUP1 PUSH4 0x36B166BA EQ PUSH2 0x39 JUMPI DUP1 PUSH4 0xB93EA812 EQ PUSH2 0x57 JUMPI DUP1 PUSH4 0xDE292789 EQ PUSH2 0x94 JUMPI JUMPDEST PUSH1 0x0 DUP1 REVERT JUMPDEST PUSH2 0x41 PUSH2 0xBF JUMP JUMPDEST PUSH1 0x40 MLOAD PUSH2 0x4E SWAP2 SWAP1 PUSH2 0x178 JUMP JUMPDEST PUSH1 0x40 MLOAD DUP1 SWAP2 SUB SWAP1 RETURN JUMPDEST CALLVALUE DUP1 ISZERO PUSH2 0x63 JUMPI PUSH1 0x0 DUP1 REVERT JUMPDEST POP PUSH2 0x7E PUSH1 0x4 DUP1 CALLDATASIZE SUB DUP2 ADD SWAP1 PUSH2 0x79 SWAP2 SWAP1 PUSH2 0x1CE JUMP JUMPDEST PUSH2 0x10E JUMP JUMPDEST PUSH1 0x40 MLOAD PUSH2 0x8B SWAP2 SWAP1 PUSH2 0x21D JUMP JUMPDEST PUSH1 0x40 MLOAD DUP1 SWAP2 SUB SWAP1 RETURN JUMPDEST CALLVALUE DUP1 ISZERO PUSH2 0xA0 JUMPI PUSH1 0x0 DUP1 REVERT JUMPDEST POP PUSH2 0xA9 PUSH2 0x13D JUMP JUMPDEST PUSH1 0x40 MLOAD PUSH2 0xB6 SWAP2 SWAP1 PUSH2 0x251 JUMP JUMPDEST PUSH1 0x40 MLOAD DUP1 SWAP2 SUB SWAP1 RETURN JUMPDEST PUSH1 0x0 DUP1 PUSH1 0x2 PUSH1 0x0 SLOAD PUSH2 0xD1 SWAP2 SWAP1 PUSH2 0x29B JUMP JUMPDEST EQ PUSH2 0xDD JUMPI PUSH1 0x0 PUSH2 0xE0 JUMP JUMPDEST PUSH1 0x1 JUMPDEST PUSH1 0x1 PUSH1 0x0 PUSH2 0x100 EXP DUP2 SLOAD DUP2 PUSH1 0xFF MUL NOT AND SWAP1 DUP4 ISZERO ISZERO MUL OR SWAP1 SSTORE POP PUSH1 0x1 PUSH1 0x0 SWAP1 SLOAD SWAP1 PUSH2 0x100 EXP SWAP1 DIV PUSH1 0xFF AND SWAP1 POP SWAP1 JUMP JUMPDEST PUSH1 0x0 DUP2 DUP4 SGT PUSH2 0x128 JUMPI DUP3 DUP3 PUSH2 0x123 SWAP2 SWAP1 PUSH2 0x2FB JUMP JUMPDEST PUSH2 0x135 JUMP JUMPDEST DUP2 DUP4 PUSH2 0x134 SWAP2 SWAP1 PUSH2 0x2FB JUMP JUMPDEST JUMPDEST SWAP1 POP SWAP3 SWAP2 POP POP JUMP JUMPDEST PUSH1 0x0 DUP1 PUSH1 0xA SWAP1 POP PUSH1 0x0 PUSH1 0x32 SWAP1 POP DUP1 DUP3 PUSH2 0x156 SWAP2 SWAP1 PUSH2 0x33E JUMP JUMPDEST SWAP3 POP POP POP SWAP1 JUMP JUMPDEST PUSH1 0x0 DUP2 ISZERO ISZERO SWAP1 POP SWAP2 SWAP1 POP JUMP JUMPDEST PUSH2 0x172 DUP2 PUSH2 0x15D JUMP JUMPDEST DUP3 MSTORE POP POP JUMP JUMPDEST PUSH1 0x0 PUSH1 0x20 DUP3 ADD SWAP1 POP PUSH2 0x18D PUSH1 0x0 DUP4 ADD DUP5 PUSH2 0x169 JUMP JUMPDEST SWAP3 SWAP2 POP POP JUMP JUMPDEST PUSH1 0x0 DUP1 REVERT JUMPDEST PUSH1 0x0 DUP2 SWAP1 POP SWAP2 SWAP1 POP JUMP JUMPDEST PUSH2 0x1AB DUP2 PUSH2 0x198 JUMP JUMPDEST DUP2 EQ PUSH2 0x1B6 JUMPI PUSH1 0x0 DUP1 REVERT JUMPDEST POP JUMP JUMPDEST PUSH1 0x0 DUP2 CALLDATALOAD SWAP1 POP PUSH2 0x1C8 DUP2 PUSH2 0x1A2 JUMP JUMPDEST SWAP3 SWAP2 POP POP JUMP JUMPDEST PUSH1 0x0 DUP1 PUSH1 0x40 DUP4 DUP6 SUB SLT ISZERO PUSH2 0x1E5 JUMPI PUSH2 0x1E4 PUSH2 0x193 JUMP JUMPDEST JUMPDEST PUSH1 0x0 PUSH2 0x1F3 DUP6 DUP3 DUP7 ADD PUSH2 0x1B9 JUMP JUMPDEST SWAP3 POP POP PUSH1 0x20 PUSH2 0x204 DUP6 DUP3 DUP7 ADD PUSH2 0x1B9 JUMP JUMPDEST SWAP2 POP POP SWAP3 POP SWAP3 SWAP1 POP JUMP JUMPDEST PUSH2 0x217 DUP2 PUSH2 0x198 JUMP JUMPDEST DUP3 MSTORE POP POP JUMP JUMPDEST PUSH1 0x0 PUSH1 0x20 DUP3 ADD SWAP1 POP PUSH2 0x232 PUSH1 0x0 DUP4 ADD DUP5 PUSH2 0x20E JUMP JUMPDEST SWAP3 SWAP2 POP POP JUMP JUMPDEST PUSH1 0x0 DUP2 SWAP1 POP SWAP2 SWAP1 POP JUMP JUMPDEST PUSH2 0x24B DUP2 PUSH2 0x238 JUMP JUMPDEST DUP3 MSTORE POP POP JUMP JUMPDEST PUSH1 0x0 PUSH1 0x20 DUP3 ADD SWAP1 POP PUSH2 0x266 PUSH1 0x0 DUP4 ADD DUP5 PUSH2 0x242 JUMP JUMPDEST SWAP3 SWAP2 POP POP JUMP JUMPDEST PUSH32 0x4E487B7100000000000000000000000000000000000000000000000000000000 PUSH1 0x0 MSTORE PUSH1 0x12 PUSH1 0x4 MSTORE PUSH1 0x24 PUSH1 0x0 REVERT JUMPDEST PUSH1 0x0 PUSH2 0x2A6 DUP3 PUSH2 0x198 JUMP JUMPDEST SWAP2 POP PUSH2 0x2B1 DUP4 PUSH2 0x198 JUMP JUMPDEST SWAP3 POP DUP3 PUSH2 0x2C1 JUMPI PUSH2 0x2C0 PUSH2 0x26C JUMP JUMPDEST JUMPDEST DUP3 DUP3 SMOD SWAP1 POP SWAP3 SWAP2 POP POP JUMP JUMPDEST PUSH32 0x4E487B7100000000000000000000000000000000000000000000000000000000 PUSH1 0x0 MSTORE PUSH1 0x11 PUSH1 0x4 MSTORE PUSH1 0x24 PUSH1 0x0 REVERT JUMPDEST PUSH1 0x0 PUSH2 0x306 DUP3 PUSH2 0x198 JUMP JUMPDEST SWAP2 POP PUSH2 0x311 DUP4 PUSH2 0x198 JUMP JUMPDEST SWAP3 POP DUP3 DUP3 SUB SWAP1 POP DUP2 DUP2 SLT PUSH1 0x0 DUP5 SLT AND DUP3 DUP3 SGT PUSH1 0x0 DUP6 SLT ISZERO AND OR ISZERO PUSH2 0x338 JUMPI PUSH2 0x337 PUSH2 0x2CC JUMP JUMPDEST JUMPDEST SWAP3 SWAP2 POP POP JUMP JUMPDEST PUSH1 0x0 PUSH2 0x349 DUP3 PUSH2 0x238 JUMP JUMPDEST SWAP2 POP PUSH2 0x354 DUP4 PUSH2 0x238 JUMP JUMPDEST SWAP3 POP DUP3 DUP3 ADD SWAP1 POP DUP1 DUP3 GT ISZERO PUSH2 0x36C JUMPI PUSH2 0x36B PUSH2 0x2CC JUMP JUMPDEST JUMPDEST SWAP3 SWAP2 POP POP JUMP INVALID LOG2 PUSH5 0x6970667358 0x22 SLT KECCAK256 PUSH28 0xE70DF6B1FC2EC3AADB7FEDBBB3B446C51F1A7D769E4F3DCCA2384524 0xB2 0xED SWAP5 PUSH5 0x736F6C6343 STOP ADDMOD SLT STOP CALLER "
		},
		"gasEstimates": {
			"creation": {
				"codeDepositCost": "187200",
				"executionCost": "22338",
				"totalCost": "209538"
			},
			"external": {
				"getResult()": "infinite",
				"isEven()": "infinite",
				"subtract(int256,int256)": "infinite"
			}
		},
		"methodIdentifiers": {
			"getResult()": "de292789",
			"isEven()": "36b166ba",
			"subtract(int256,int256)": "b93ea812"
		}
	},
	"abi": [
		{
			"inputs": [],
			"name": "getResult",
			"outputs": [
				{
					"internalType": "uint256",
					"name": "",
					"type": "uint256"
				}
			],
			"stateMutability": "pure",
			"type": "function"
		},
		{
			"inputs": [],
			"name": "isEven",
			"outputs": [
				{
					"internalType": "bool",
					"name": "",
					"type": "bool"
				}
			],
			"stateMutability": "payable",
			"type": "function"
		},
		{
			"inputs": [
				{
					"internalType": "int256",
					"name": "a",
					"type": "int256"
				},
				{
					"internalType": "int256",
					"name": "b",
					"type": "int256"
				}
			],
			"name": "subtract",
			"outputs": [
				{
					"internalType": "int256",
					"name": "",
					"type": "int256"
				}
			],
			"stateMutability": "pure",
			"type": "function"
		}
	]
}